{
  "_format": "hh-sol-artifact-1",
  "contractName": "KAUSToken",
  "sourceName": "contracts/KAUSToken.sol",
  "abi": [
    {
      "inputs": [
        {
          "internalType": "address",
          "name": "_treasury",
          "type": "address"
        },
        {
          "internalType": "address",
          "name": "_feeCollector",
          "type": "address"
        }
      ],
      "stateMutability": "nonpayable",
      "type": "constructor"
    },
    {
      "inputs": [],
      "name": "AccessControlBadConfirmation",
      "type": "error"
    },
    {
      "inputs": [
        {
          "internalType": "address",
          "name": "account",
          "type": "address"
        },
        {
          "internalType": "bytes32",
          "name": "neededRole",
          "type": "bytes32"
        }
      ],
      "name": "AccessControlUnauthorizedAccount",
      "type": "error"
    },
    {
      "inputs": [],
      "name": "ECDSAInvalidSignature",
      "type": "error"
    },
    {
      "inputs": [
        {
          "internalType": "uint256",
          "name": "length",
          "type": "uint256"
        }
      ],
      "name": "ECDSAInvalidSignatureLength",
      "type": "error"
    },
    {
      "inputs": [
        {
          "internalType": "bytes32",
          "name": "s",
          "type": "bytes32"
        }
      ],
      "name": "ECDSAInvalidSignatureS",
      "type": "error"
    },
    {
      "inputs": [
        {
          "internalType": "address",
          "name": "spender",
          "type": "address"
        },
        {
          "internalType": "uint256",
          "name": "allowance",
          "type": "uint256"
        },
        {
          "internalType": "uint256",
          "name": "needed",
          "type": "uint256"
        }
      ],
      "name": "ERC20InsufficientAllowance",
      "type": "error"
    },
    {
      "inputs": [
        {
          "internalType": "address",
          "name": "sender",
          "type": "address"
        },
        {
          "internalType": "uint256",
          "name": "balance",
          "type": "uint256"
        },
        {
          "internalType": "uint256",
          "name": "needed",
          "type": "uint256"
        }
      ],
      "name": "ERC20InsufficientBalance",
      "type": "error"
    },
    {
      "inputs": [
        {
          "internalType": "address",
          "name": "approver",
          "type": "address"
        }
      ],
      "name": "ERC20InvalidApprover",
      "type": "error"
    },
    {
      "inputs": [
        {
          "internalType": "address",
          "name": "receiver",
          "type": "address"
        }
      ],
      "name": "ERC20InvalidReceiver",
      "type": "error"
    },
    {
      "inputs": [
        {
          "internalType": "address",
          "name": "sender",
          "type": "address"
        }
      ],
      "name": "ERC20InvalidSender",
      "type": "error"
    },
    {
      "inputs": [
        {
          "internalType": "address",
          "name": "spender",
          "type": "address"
        }
      ],
      "name": "ERC20InvalidSpender",
      "type": "error"
    },
    {
      "inputs": [
        {
          "internalType": "uint256",
          "name": "deadline",
          "type": "uint256"
        }
      ],
      "name": "ERC2612ExpiredSignature",
      "type": "error"
    },
    {
      "inputs": [
        {
          "internalType": "address",
          "name": "signer",
          "type": "address"
        },
        {
          "internalType": "address",
          "name": "owner",
          "type": "address"
        }
      ],
      "name": "ERC2612InvalidSigner",
      "type": "error"
    },
    {
      "inputs": [],
      "name": "EnforcedPause",
      "type": "error"
    },
    {
      "inputs": [],
      "name": "ExpectedPause",
      "type": "error"
    },
    {
      "inputs": [
        {
          "internalType": "address",
          "name": "account",
          "type": "address"
        },
        {
          "internalType": "uint256",
          "name": "currentNonce",
          "type": "uint256"
        }
      ],
      "name": "InvalidAccountNonce",
      "type": "error"
    },
    {
      "inputs": [],
      "name": "InvalidShortString",
      "type": "error"
    },
    {
      "inputs": [
        {
          "internalType": "string",
          "name": "str",
          "type": "string"
        }
      ],
      "name": "StringTooLong",
      "type": "error"
    },
    {
      "anonymous": false,
      "inputs": [
        {
          "indexed": true,
          "internalType": "address",
          "name": "owner",
          "type": "address"
        },
        {
          "indexed": true,
          "internalType": "address",
          "name": "spender",
          "type": "address"
        },
        {
          "indexed": false,
          "internalType": "uint256",
          "name": "value",
          "type": "uint256"
        }
      ],
      "name": "Approval",
      "type": "event"
    },
    {
      "anonymous": false,
      "inputs": [],
      "name": "EIP712DomainChanged",
      "type": "event"
    },
    {
      "anonymous": false,
      "inputs": [
        {
          "indexed": true,
          "internalType": "address",
          "name": "agent",
          "type": "address"
        },
        {
          "indexed": false,
          "internalType": "uint256",
          "name": "fee",
          "type": "uint256"
        },
        {
          "indexed": false,
          "internalType": "string",
          "name": "txId",
          "type": "string"
        }
      ],
      "name": "FeeCollected",
      "type": "event"
    },
    {
      "anonymous": false,
      "inputs": [
        {
          "indexed": true,
          "internalType": "address",
          "name": "agent",
          "type": "address"
        },
        {
          "indexed": false,
          "internalType": "uint256",
          "name": "slot",
          "type": "uint256"
        }
      ],
      "name": "GenesisMinted",
      "type": "event"
    },
    {
      "anonymous": false,
      "inputs": [
        {
          "indexed": false,
          "internalType": "uint256",
          "name": "burned",
          "type": "uint256"
        },
        {
          "indexed": false,
          "internalType": "uint256",
          "name": "distributed",
          "type": "uint256"
        },
        {
          "indexed": false,
          "internalType": "uint256",
          "name": "retained",
          "type": "uint256"
        },
        {
          "indexed": false,
          "internalType": "uint256",
          "name": "holderCount",
          "type": "uint256"
        }
      ],
      "name": "MonthlyDistribution",
      "type": "event"
    },
    {
      "anonymous": false,
      "inputs": [
        {
          "indexed": false,
          "internalType": "address",
          "name": "account",
          "type": "address"
        }
      ],
      "name": "Paused",
      "type": "event"
    },
    {
      "anonymous": false,
      "inputs": [
        {
          "indexed": false,
          "internalType": "uint256",
          "name": "oldPrice",
          "type": "uint256"
        },
        {
          "indexed": false,
          "internalType": "uint256",
          "name": "newPrice",
          "type": "uint256"
        }
      ],
      "name": "PriceUpdated",
      "type": "event"
    },
    {
      "anonymous": false,
      "inputs": [
        {
          "indexed": true,
          "internalType": "bytes32",
          "name": "role",
          "type": "bytes32"
        },
        {
          "indexed": true,
          "internalType": "bytes32",
          "name": "previousAdminRole",
          "type": "bytes32"
        },
        {
          "indexed": true,
          "internalType": "bytes32",
          "name": "newAdminRole",
          "type": "bytes32"
        }
      ],
      "name": "RoleAdminChanged",
      "type": "event"
    },
    {
      "anonymous": false,
      "inputs": [
        {
          "indexed": true,
          "internalType": "bytes32",
          "name": "role",
          "type": "bytes32"
        },
        {
          "indexed": true,
          "internalType": "address",
          "name": "account",
          "type": "address"
        },
        {
          "indexed": true,
          "internalType": "address",
          "name": "sender",
          "type": "address"
        }
      ],
      "name": "RoleGranted",
      "type": "event"
    },
    {
      "anonymous": false,
      "inputs": [
        {
          "indexed": true,
          "internalType": "bytes32",
          "name": "role",
          "type": "bytes32"
        },
        {
          "indexed": true,
          "internalType": "address",
          "name": "account",
          "type": "address"
        },
        {
          "indexed": true,
          "internalType": "address",
          "name": "sender",
          "type": "address"
        }
      ],
      "name": "RoleRevoked",
      "type": "event"
    },
    {
      "anonymous": false,
      "inputs": [
        {
          "indexed": true,
          "internalType": "address",
          "name": "from",
          "type": "address"
        },
        {
          "indexed": true,
          "internalType": "address",
          "name": "to",
          "type": "address"
        },
        {
          "indexed": false,
          "internalType": "uint256",
          "name": "value",
          "type": "uint256"
        }
      ],
      "name": "Transfer",
      "type": "event"
    },
    {
      "anonymous": false,
      "inputs": [
        {
          "indexed": false,
          "internalType": "address",
          "name": "account",
          "type": "address"
        }
      ],
      "name": "Unpaused",
      "type": "event"
    },
    {
      "inputs": [],
      "name": "DEFAULT_ADMIN_ROLE",
      "outputs": [
        {
          "internalType": "bytes32",
          "name": "",
          "type": "bytes32"
        }
      ],
      "stateMutability": "view",
      "type": "function"
    },
    {
      "inputs": [],
      "name": "DOMAIN_SEPARATOR",
      "outputs": [
        {
          "internalType": "bytes32",
          "name": "",
          "type": "bytes32"
        }
      ],
      "stateMutability": "view",
      "type": "function"
    },
    {
      "inputs": [],
      "name": "FEE_ROLE",
      "outputs": [
        {
          "internalType": "bytes32",
          "name": "",
          "type": "bytes32"
        }
      ],
      "stateMutability": "view",
      "type": "function"
    },
    {
      "inputs": [],
      "name": "GENESIS_MAX",
      "outputs": [
        {
          "internalType": "uint256",
          "name": "",
          "type": "uint256"
        }
      ],
      "stateMutability": "view",
      "type": "function"
    },
    {
      "inputs": [],
      "name": "GENESIS_PRICE",
      "outputs": [
        {
          "internalType": "uint256",
          "name": "",
          "type": "uint256"
        }
      ],
      "stateMutability": "view",
      "type": "function"
    },
    {
      "inputs": [],
      "name": "INITIAL_MINT",
      "outputs": [
        {
          "internalType": "uint256",
          "name": "",
          "type": "uint256"
        }
      ],
      "stateMutability": "view",
      "type": "function"
    },
    {
      "inputs": [],
      "name": "MAX_SUPPLY",
      "outputs": [
        {
          "internalType": "uint256",
          "name": "",
          "type": "uint256"
        }
      ],
      "stateMutability": "view",
      "type": "function"
    },
    {
      "inputs": [],
      "name": "MINTER_ROLE",
      "outputs": [
        {
          "internalType": "bytes32",
          "name": "",
          "type": "bytes32"
        }
      ],
      "stateMutability": "view",
      "type": "function"
    },
    {
      "inputs": [],
      "name": "PAUSER_ROLE",
      "outputs": [
        {
          "internalType": "bytes32",
          "name": "",
          "type": "bytes32"
        }
      ],
      "stateMutability": "view",
      "type": "function"
    },
    {
      "inputs": [
        {
          "internalType": "address",
          "name": "owner",
          "type": "address"
        },
        {
          "internalType": "address",
          "name": "spender",
          "type": "address"
        }
      ],
      "name": "allowance",
      "outputs": [
        {
          "internalType": "uint256",
          "name": "",
          "type": "uint256"
        }
      ],
      "stateMutability": "view",
      "type": "function"
    },
    {
      "inputs": [
        {
          "internalType": "address",
          "name": "spender",
          "type": "address"
        },
        {
          "internalType": "uint256",
          "name": "value",
          "type": "uint256"
        }
      ],
      "name": "approve",
      "outputs": [
        {
          "internalType": "bool",
          "name": "",
          "type": "bool"
        }
      ],
      "stateMutability": "nonpayable",
      "type": "function"
    },
    {
      "inputs": [
        {
          "internalType": "address",
          "name": "account",
          "type": "address"
        }
      ],
      "name": "balanceOf",
      "outputs": [
        {
          "internalType": "uint256",
          "name": "",
          "type": "uint256"
        }
      ],
      "stateMutability": "view",
      "type": "function"
    },
    {
      "inputs": [
        {
          "internalType": "uint256",
          "name": "value",
          "type": "uint256"
        }
      ],
      "name": "burn",
      "outputs": [],
      "stateMutability": "nonpayable",
      "type": "function"
    },
    {
      "inputs": [
        {
          "internalType": "address",
          "name": "account",
          "type": "address"
        },
        {
          "internalType": "uint256",
          "name": "value",
          "type": "uint256"
        }
      ],
      "name": "burnFrom",
      "outputs": [],
      "stateMutability": "nonpayable",
      "type": "function"
    },
    {
      "inputs": [],
      "name": "burnShare",
      "outputs": [
        {
          "internalType": "uint256",
          "name": "",
          "type": "uint256"
        }
      ],
      "stateMutability": "view",
      "type": "function"
    },
    {
      "inputs": [
        {
          "internalType": "address",
          "name": "agent",
          "type": "address"
        },
        {
          "internalType": "uint256",
          "name": "tradeAmountKAUS",
          "type": "uint256"
        },
        {
          "internalType": "string",
          "name": "txId",
          "type": "string"
        }
      ],
      "name": "collectFee",
      "outputs": [
        {
          "internalType": "uint256",
          "name": "fee",
          "type": "uint256"
        }
      ],
      "stateMutability": "nonpayable",
      "type": "function"
    },
    {
      "inputs": [],
      "name": "decimals",
      "outputs": [
        {
          "internalType": "uint8",
          "name": "",
          "type": "uint8"
        }
      ],
      "stateMutability": "view",
      "type": "function"
    },
    {
      "inputs": [],
      "name": "eip712Domain",
      "outputs": [
        {
          "internalType": "bytes1",
          "name": "fields",
          "type": "bytes1"
        },
        {
          "internalType": "string",
          "name": "name",
          "type": "string"
        },
        {
          "internalType": "string",
          "name": "version",
          "type": "string"
        },
        {
          "internalType": "uint256",
          "name": "chainId",
          "type": "uint256"
        },
        {
          "internalType": "address",
          "name": "verifyingContract",
          "type": "address"
        },
        {
          "internalType": "bytes32",
          "name": "salt",
          "type": "bytes32"
        },
        {
          "internalType": "uint256[]",
          "name": "extensions",
          "type": "uint256[]"
        }
      ],
      "stateMutability": "view",
      "type": "function"
    },
    {
      "inputs": [],
      "name": "feeCollector",
      "outputs": [
        {
          "internalType": "address",
          "name": "",
          "type": "address"
        }
      ],
      "stateMutability": "view",
      "type": "function"
    },
    {
      "inputs": [],
      "name": "feeRate",
      "outputs": [
        {
          "internalType": "uint256",
          "name": "",
          "type": "uint256"
        }
      ],
      "stateMutability": "view",
      "type": "function"
    },
    {
      "inputs": [],
      "name": "genesisHolderCount",
      "outputs": [
        {
          "internalType": "uint256",
          "name": "",
          "type": "uint256"
        }
      ],
      "stateMutability": "view",
      "type": "function"
    },
    {
      "inputs": [],
      "name": "genesisRemaining",
      "outputs": [
        {
          "internalType": "uint256",
          "name": "",
          "type": "uint256"
        }
      ],
      "stateMutability": "view",
      "type": "function"
    },
    {
      "inputs": [
        {
          "internalType": "address",
          "name": "",
          "type": "address"
        }
      ],
      "name": "genesisSlot",
      "outputs": [
        {
          "internalType": "uint256",
          "name": "",
          "type": "uint256"
        }
      ],
      "stateMutability": "view",
      "type": "function"
    },
    {
      "inputs": [],
      "name": "genesisSold",
      "outputs": [
        {
          "internalType": "uint256",
          "name": "",
          "type": "uint256"
        }
      ],
      "stateMutability": "view",
      "type": "function"
    },
    {
      "inputs": [
        {
          "internalType": "bytes32",
          "name": "role",
          "type": "bytes32"
        }
      ],
      "name": "getRoleAdmin",
      "outputs": [
        {
          "internalType": "bytes32",
          "name": "",
          "type": "bytes32"
        }
      ],
      "stateMutability": "view",
      "type": "function"
    },
    {
      "inputs": [
        {
          "internalType": "bytes32",
          "name": "role",
          "type": "bytes32"
        },
        {
          "internalType": "address",
          "name": "account",
          "type": "address"
        }
      ],
      "name": "grantRole",
      "outputs": [],
      "stateMutability": "nonpayable",
      "type": "function"
    },
    {
      "inputs": [
        {
          "internalType": "bytes32",
          "name": "role",
          "type": "bytes32"
        },
        {
          "internalType": "address",
          "name": "account",
          "type": "address"
        }
      ],
      "name": "hasRole",
      "outputs": [
        {
          "internalType": "bool",
          "name": "",
          "type": "bool"
        }
      ],
      "stateMutability": "view",
      "type": "function"
    },
    {
      "inputs": [],
      "name": "holderShare",
      "outputs": [
        {
          "internalType": "uint256",
          "name": "",
          "type": "uint256"
        }
      ],
      "stateMutability": "view",
      "type": "function"
    },
    {
      "inputs": [
        {
          "internalType": "address",
          "name": "",
          "type": "address"
        }
      ],
      "name": "isGenesisMember",
      "outputs": [
        {
          "internalType": "bool",
          "name": "",
          "type": "bool"
        }
      ],
      "stateMutability": "view",
      "type": "function"
    },
    {
      "inputs": [],
      "name": "kausPriceUSDC",
      "outputs": [
        {
          "internalType": "uint256",
          "name": "",
          "type": "uint256"
        }
      ],
      "stateMutability": "view",
      "type": "function"
    },
    {
      "inputs": [
        {
          "internalType": "address",
          "name": "to",
          "type": "address"
        },
        {
          "internalType": "uint256",
          "name": "amount",
          "type": "uint256"
        }
      ],
      "name": "mint",
      "outputs": [],
      "stateMutability": "nonpayable",
      "type": "function"
    },
    {
      "inputs": [],
      "name": "mintGenesis",
      "outputs": [],
      "stateMutability": "nonpayable",
      "type": "function"
    },
    {
      "inputs": [],
      "name": "monthlyDistribution",
      "outputs": [],
      "stateMutability": "nonpayable",
      "type": "function"
    },
    {
      "inputs": [],
      "name": "name",
      "outputs": [
        {
          "internalType": "string",
          "name": "",
          "type": "string"
        }
      ],
      "stateMutability": "view",
      "type": "function"
    },
    {
      "inputs": [
        {
          "internalType": "address",
          "name": "owner",
          "type": "address"
        }
      ],
      "name": "nonces",
      "outputs": [
        {
          "internalType": "uint256",
          "name": "",
          "type": "uint256"
        }
      ],
      "stateMutability": "view",
      "type": "function"
    },
    {
      "inputs": [],
      "name": "pause",
      "outputs": [],
      "stateMutability": "nonpayable",
      "type": "function"
    },
    {
      "inputs": [],
      "name": "paused",
      "outputs": [
        {
          "internalType": "bool",
          "name": "",
          "type": "bool"
        }
      ],
      "stateMutability": "view",
      "type": "function"
    },
    {
      "inputs": [
        {
          "internalType": "address",
          "name": "owner",
          "type": "address"
        },
        {
          "internalType": "address",
          "name": "spender",
          "type": "address"
        },
        {
          "internalType": "uint256",
          "name": "value",
          "type": "uint256"
        },
        {
          "internalType": "uint256",
          "name": "deadline",
          "type": "uint256"
        },
        {
          "internalType": "uint8",
          "name": "v",
          "type": "uint8"
        },
        {
          "internalType": "bytes32",
          "name": "r",
          "type": "bytes32"
        },
        {
          "internalType": "bytes32",
          "name": "s",
          "type": "bytes32"
        }
      ],
      "name": "permit",
      "outputs": [],
      "stateMutability": "nonpayable",
      "type": "function"
    },
    {
      "inputs": [],
      "name": "platformStats",
      "outputs": [
        {
          "internalType": "uint256",
          "name": "supply",
          "type": "uint256"
        },
        {
          "internalType": "uint256",
          "name": "maxSupply",
          "type": "uint256"
        },
        {
          "internalType": "uint256",
          "name": "feesCollected",
          "type": "uint256"
        },
        {
          "internalType": "uint256",
          "name": "feesBurned",
          "type": "uint256"
        },
        {
          "internalType": "uint256",
          "name": "feesDistributed",
          "type": "uint256"
        },
        {
          "internalType": "uint256",
          "name": "trades",
          "type": "uint256"
        },
        {
          "internalType": "uint256",
          "name": "genesis",
          "type": "uint256"
        },
        {
          "internalType": "uint256",
          "name": "priceUSDC",
          "type": "uint256"
        }
      ],
      "stateMutability": "view",
      "type": "function"
    },
    {
      "inputs": [],
      "name": "priceUSD",
      "outputs": [
        {
          "internalType": "string",
          "name": "",
          "type": "string"
        }
      ],
      "stateMutability": "view",
      "type": "function"
    },
    {
      "inputs": [],
      "name": "remainingSupply",
      "outputs": [
        {
          "internalType": "uint256",
          "name": "",
          "type": "uint256"
        }
      ],
      "stateMutability": "view",
      "type": "function"
    },
    {
      "inputs": [
        {
          "internalType": "bytes32",
          "name": "role",
          "type": "bytes32"
        },
        {
          "internalType": "address",
          "name": "callerConfirmation",
          "type": "address"
        }
      ],
      "name": "renounceRole",
      "outputs": [],
      "stateMutability": "nonpayable",
      "type": "function"
    },
    {
      "inputs": [
        {
          "internalType": "bytes32",
          "name": "role",
          "type": "bytes32"
        },
        {
          "internalType": "address",
          "name": "account",
          "type": "address"
        }
      ],
      "name": "revokeRole",
      "outputs": [],
      "stateMutability": "nonpayable",
      "type": "function"
    },
    {
      "inputs": [
        {
          "internalType": "uint256",
          "name": "_burn",
          "type": "uint256"
        },
        {
          "internalType": "uint256",
          "name": "_holders",
          "type": "uint256"
        }
      ],
      "name": "setDistributionShares",
      "outputs": [],
      "stateMutability": "nonpayable",
      "type": "function"
    },
    {
      "inputs": [
        {
          "internalType": "address",
          "name": "_new",
          "type": "address"
        }
      ],
      "name": "setFeeCollector",
      "outputs": [],
      "stateMutability": "nonpayable",
      "type": "function"
    },
    {
      "inputs": [
        {
          "internalType": "uint256",
          "name": "_rate",
          "type": "uint256"
        }
      ],
      "name": "setFeeRate",
      "outputs": [],
      "stateMutability": "nonpayable",
      "type": "function"
    },
    {
      "inputs": [
        {
          "internalType": "uint256",
          "name": "_priceUSDC6",
          "type": "uint256"
        }
      ],
      "name": "setPrice",
      "outputs": [],
      "stateMutability": "nonpayable",
      "type": "function"
    },
    {
      "inputs": [
        {
          "internalType": "address",
          "name": "_new",
          "type": "address"
        }
      ],
      "name": "setTreasury",
      "outputs": [],
      "stateMutability": "nonpayable",
      "type": "function"
    },
    {
      "inputs": [
        {
          "internalType": "bytes4",
          "name": "interfaceId",
          "type": "bytes4"
        }
      ],
      "name": "supportsInterface",
      "outputs": [
        {
          "internalType": "bool",
          "name": "",
          "type": "bool"
        }
      ],
      "stateMutability": "view",
      "type": "function"
    },
    {
      "inputs": [],
      "name": "symbol",
      "outputs": [
        {
          "internalType": "string",
          "name": "",
          "type": "string"
        }
      ],
      "stateMutability": "view",
      "type": "function"
    },
    {
      "inputs": [],
      "name": "totalFeesBurned",
      "outputs": [
        {
          "internalType": "uint256",
          "name": "",
          "type": "uint256"
        }
      ],
      "stateMutability": "view",
      "type": "function"
    },
    {
      "inputs": [],
      "name": "totalFeesCollected",
      "outputs": [
        {
          "internalType": "uint256",
          "name": "",
          "type": "uint256"
        }
      ],
      "stateMutability": "view",
      "type": "function"
    },
    {
      "inputs": [],
      "name": "totalFeesDistributed",
      "outputs": [
        {
          "internalType": "uint256",
          "name": "",
          "type": "uint256"
        }
      ],
      "stateMutability": "view",
      "type": "function"
    },
    {
      "inputs": [],
      "name": "totalSupply",
      "outputs": [
        {
          "internalType": "uint256",
          "name": "",
          "type": "uint256"
        }
      ],
      "stateMutability": "view",
      "type": "function"
    },
    {
      "inputs": [],
      "name": "totalTrades",
      "outputs": [
        {
          "internalType": "uint256",
          "name": "",
          "type": "uint256"
        }
      ],
      "stateMutability": "view",
      "type": "function"
    },
    {
      "inputs": [],
      "name": "totalVolume",
      "outputs": [
        {
          "internalType": "uint256",
          "name": "",
          "type": "uint256"
        }
      ],
      "stateMutability": "view",
      "type": "function"
    },
    {
      "inputs": [
        {
          "internalType": "address",
          "name": "to",
          "type": "address"
        },
        {
          "internalType": "uint256",
          "name": "value",
          "type": "uint256"
        }
      ],
      "name": "transfer",
      "outputs": [
        {
          "internalType": "bool",
          "name": "",
          "type": "bool"
        }
      ],
      "stateMutability": "nonpayable",
      "type": "function"
    },
    {
      "inputs": [
        {
          "internalType": "address",
          "name": "safe",
          "type": "address"
        }
      ],
      "name": "transferAdminToSafe",
      "outputs": [],
      "stateMutability": "nonpayable",
      "type": "function"
    },
    {
      "inputs": [
        {
          "internalType": "address",
          "name": "from",
          "type": "address"
        },
        {
          "internalType": "address",
          "name": "to",
          "type": "address"
        },
        {
          "internalType": "uint256",
          "name": "value",
          "type": "uint256"
        }
      ],
      "name": "transferFrom",
      "outputs": [
        {
          "internalType": "bool",
          "name": "",
          "type": "bool"
        }
      ],
      "stateMutability": "nonpayable",
      "type": "function"
    },
    {
      "inputs": [],
      "name": "treasury",
      "outputs": [
        {
          "internalType": "address",
          "name": "",
          "type": "address"
        }
      ],
      "stateMutability": "view",
      "type": "function"
    },
    {
      "inputs": [],
      "name": "unpause",
      "outputs": [],
      "stateMutability": "nonpayable",
      "type": "function"
    }
  ],
  "bytecode": "0x610160604052620f4240600a55600a600b556032600c55601e600d55348015610026575f5ffd5b50604051612bc2380380612bc2833981016040819052610045916105fc565b6040518060400160405280600a81526020016925a0aaa9902a37b5b2b760b11b81525080604051806040016040528060018152602001603160f81b8152506040518060400160405280600a81526020016925a0aaa9902a37b5b2b760b11b815250604051806040016040528060048152602001634b41555360e01b81525081600390816100d291906106c4565b5060046100df82826106c4565b506100ef91508390506007610320565b610120526100fe816008610320565b61014052815160208084019190912060e052815190820120610100524660a05261018a60e05161010051604080517f8b73c3c69bb8fe3d512ecc4cf759cc79239f7b179b0ffacaa9a75d522b39400f60208201529081019290925260608201524660808201523060a08201525f9060c00160405160208183030381529060405280519060200120905090565b60805250503060c052506001600160a01b0382166101e25760405162461bcd60e51b815260206004820152601060248201526f496e76616c696420747265617375727960801b60448201526064015b60405180910390fd5b6001600160a01b0381166102385760405162461bcd60e51b815260206004820152601460248201527f496e76616c696420666565436f6c6c6563746f7200000000000000000000000060448201526064016101d9565b600f80546001600160a01b038085166001600160a01b031992831617909255600e8054928416929091169190911790556102725f33610352565b5061027d5f83610352565b506102a87f9f2df0fed2c77648de5860a4cc508cd0818c85b8b8a1ab4ceeef8d981c8956a633610352565b506102d37f65d7a28e3265b37a6474929f336521b332c1681b933f6cb9f3376673440d862a33610352565b506102eb5f516020612ba25f395f51905f5233610352565b506103035f516020612ba25f395f51905f5282610352565b50610319826a084595161401484a0000006103fd565b50506107f5565b5f60208351101561033b5761033483610435565b905061034c565b8161034684826106c4565b5060ff90505b92915050565b5f8281526006602090815260408083206001600160a01b038516845290915281205460ff166103f6575f8381526006602090815260408083206001600160a01b03861684529091529020805460ff191660011790556103ae3390565b6001600160a01b0316826001600160a01b0316847f2f8788117e7eff1d82e926ec794901d17c78024a50270940304540a733656f0d60405160405180910390a450600161034c565b505f61034c565b6001600160a01b0382166104265760405163ec442f0560e01b81525f60048201526024016101d9565b6104315f8383610472565b5050565b5f5f829050601f8151111561045f578260405163305a27a960e01b81526004016101d9919061077e565b805161046a826107b3565b179392505050565b61047d838383610482565b505050565b61048a610495565b61047d8383836104bb565b60055460ff16156104b95760405163d93c066560e01b815260040160405180910390fd5b565b6001600160a01b0383166104e5578060025f8282546104da91906107d6565b909155506105559050565b6001600160a01b0383165f90815260208190526040902054818110156105375760405163391434e360e21b81526001600160a01b038516600482015260248101829052604481018390526064016101d9565b6001600160a01b0384165f9081526020819052604090209082900390555b6001600160a01b0382166105715760028054829003905561058f565b6001600160a01b0382165f9081526020819052604090208054820190555b816001600160a01b0316836001600160a01b03167fddf252ad1be2c89b69c2b068fc378daa952ba7f163c4a11628f55a4df523b3ef836040516105d491815260200190565b60405180910390a3505050565b80516001600160a01b03811681146105f7575f5ffd5b919050565b5f5f6040838503121561060d575f5ffd5b610616836105e1565b9150610624602084016105e1565b90509250929050565b634e487b7160e01b5f52604160045260245ffd5b600181811c9082168061065557607f821691505b60208210810361067357634e487b7160e01b5f52602260045260245ffd5b50919050565b601f82111561047d57805f5260205f20601f840160051c8101602085101561069e5750805b601f840160051c820191505b818110156106bd575f81556001016106aa565b5050505050565b81516001600160401b038111156106dd576106dd61062d565b6106f1816106eb8454610641565b84610679565b6020601f821160018114610723575f831561070c5750848201515b5f19600385901b1c1916600184901b1784556106bd565b5f84815260208120601f198516915b828110156107525787850151825560209485019460019092019101610732565b508482101561076f57868401515f19600387901b60f8161c191681555b50505050600190811b01905550565b602081525f82518060208401528060208501604085015e5f604082850101526040601f19601f83011684010191505092915050565b80516020808301519190811015610673575f1960209190910360031b1b16919050565b8082018082111561034c57634e487b7160e01b5f52601160045260245ffd5b60805160a05160c05160e05161010051610120516101405161235c6108465f395f61195301525f61192601525f61176d01525f61174501525f6116a001525f6116ca01525f6116f4015261235c5ff3fe608060405234801561000f575f5ffd5b506004361061039e575f3560e01c806379cc6790116101ea578063a42dce8011610114578063d547741f116100a9578063e275c99711610079578063e275c9971461080e578063e63ab1e914610817578063efdbbac31461083e578063f0f4426014610846575f5ffd5b8063d547741f1461079c578063da0239a6146107af578063dd62ed3e146107b7578063de9c208a146107ef575f5ffd5b8063c415b95c116100e4578063c415b95c1461073d578063ca7df92c14610750578063d505accf14610762578063d539139314610775575f5ffd5b8063a42dce80146106fe578063a6a74a0e14610711578063a9059cbb1461071a578063b85f3fb81461072d575f5ffd5b806391b7f5ed1161018a57806395d89b411161015a57806395d89b41146106d3578063978bbdb9146106db5780639f3043c3146106e4578063a217fddf146106f7575f5ffd5b806391b7f5ed1461067f57806391d1485414610692578063925d886b146106a557806393a408d7146106ae575f5ffd5b80638456cb59116101c55780638456cb591461064b57806384b0196e146106535780638582c9131461066e5780638a531ebf14610677575f5ffd5b806379cc6790146106125780637ecebe0014610625578063839ad8c514610638575f5ffd5b80633b9e1ab0116102cb5780635c975abb1161026b57806370a082311161023b57806370a08231146105d057806372ccd69e146105f8578063781ba1a11461060157806378c3a6921461060a575f5ffd5b80635c975abb146105885780635f81a57c1461059357806360c6d8ae1461059c57806361d027b3146105a5575f5ffd5b806342966c68116102a657806342966c681461054757806345596e2e1461055a578063491df2261461056d5780635b6a766014610575575f5ffd5b80633b9e1ab0146104e95780633f4ba83a1461052c57806340c10f1914610534575f5ffd5b806323b872dd11610341578063313ce56711610311578063313ce567146104ad57806332cb6b0c146104bc5780633644e515146104ce57806336568abe146104d6575f5ffd5b806323b872dd1461043c578063248a9ca31461044f5780632a0276f8146104715780632f2ff15d14610498575f5ffd5b8063078ea64e1161037c578063078ea64e146103f6578063095ea7b314610418578063145044451461042b57806318160ddd14610434575f5ffd5b806301ffc9a7146103a257806305bf0a54146103ca57806306fdde03146103e1575b5f5ffd5b6103b56103b0366004611ef6565b610859565b60405190151581526020015b60405180910390f35b6103d3600c5481565b6040519081526020016103c1565b6103e961088f565b6040516103c19190611f52565b6103b5610404366004611f7f565b60116020525f908152604090205460ff1681565b6103b5610426366004611f98565b61091f565b6103d3600d5481565b6002546103d3565b6103b561044a366004611fc0565b610936565b6103d361045d366004611ffa565b5f9081526006602052604090206001015490565b6103d37ff33fe78eb7c840e8bf68670029904b6f0da8e79346941c278a4e7676d473df1581565b6104ab6104a6366004612011565b610959565b005b604051601281526020016103c1565b6103d36a52b7d2dcc80cd2e400000081565b6103d3610983565b6104ab6104e4366004612011565b610991565b6104f16109c9565b604080519889526020890197909752958701949094526060860192909252608085015260a084015260c083015260e0820152610100016103c1565b6104ab610a10565b6104ab610542366004611f98565b610a45565b6104ab610555366004611ffa565b610ae1565b6104ab610568366004611ffa565b610aeb565b6104ab610b35565b6104ab61058336600461203b565b610d76565b60055460ff166103b5565b6103d360185481565b6103d360145481565b600f546105b8906001600160a01b031681565b6040516001600160a01b0390911681526020016103c1565b6103d36105de366004611f7f565b6001600160a01b03165f9081526020819052604090205490565b6103d360155481565b6103d3600a5481565b6104ab610ddb565b6104ab610620366004611f98565b610fbe565b6103d3610633366004611f7f565b610fd7565b6104ab610646366004611f7f565b610ff4565b6104ab611013565b61065b611045565b6040516103c1979695949392919061205b565b6103d360165481565b6103d3611087565b6104ab61068d366004611ffa565b611098565b6103b56106a0366004612011565b6110e4565b6103d36103e781565b604080518082019091526009815268312e3030205553444360b81b60208201526103e9565b6103e961110e565b6103d3600b5481565b6103d36106f23660046120f1565b61111d565b6103d35f81565b6104ab61070c366004611f7f565b6112b9565b6103d360105481565b6103b5610728366004611f98565b611326565b6103d3681b1ae4d6e2ef50000081565b600e546105b8906001600160a01b031681565b6103d36a084595161401484a00000081565b6104ab610770366004612174565b611333565b6103d37f9f2df0fed2c77648de5860a4cc508cd0818c85b8b8a1ab4ceeef8d981c8956a681565b6104ab6107aa366004612011565b611469565b6103d361148d565b6103d36107c53660046121e1565b6001600160a01b039182165f90815260016020908152604080832093909416825291909152205490565b6103d36107fd366004611f7f565b60126020525f908152604090205481565b6103d360175481565b6103d37f65d7a28e3265b37a6474929f336521b332c1681b933f6cb9f3376673440d862a81565b6013546103d3565b6104ab610854366004611f7f565b6114ac565b5f6001600160e01b03198216637965db0b60e01b148061088957506301ffc9a760e01b6001600160e01b03198316145b92915050565b60606003805461089e90612209565b80601f01602080910402602001604051908101604052809291908181526020018280546108ca90612209565b80156109155780601f106108ec57610100808354040283529160200191610915565b820191905f5260205f20905b8154815290600101906020018083116108f857829003601f168201915b5050505050905090565b5f3361092c818585611519565b5060019392505050565b5f33610943858285611526565b61094e85858561159c565b506001949350505050565b5f82815260066020526040902060010154610973816115f9565b61097d8383611603565b50505050565b5f61098c611694565b905090565b6001600160a01b03811633146109ba5760405163334bd91960e11b815260040160405180910390fd5b6109c482826117bd565b505050565b5f5f5f5f5f5f5f5f6109da60025490565b601454601554601654601754601054600a54959e6a52b7d2dcc80cd2e40000009e50949c50929a50909850965094509092509050565b7f65d7a28e3265b37a6474929f336521b332c1681b933f6cb9f3376673440d862a610a3a816115f9565b610a42611828565b50565b7f9f2df0fed2c77648de5860a4cc508cd0818c85b8b8a1ab4ceeef8d981c8956a6610a6f816115f9565b6a52b7d2dcc80cd2e400000082610a8560025490565b610a8f9190612255565b1115610ad75760405162461bcd60e51b815260206004820152601260248201527145786365656473206d617820737570706c7960701b60448201526064015b60405180910390fd5b6109c4838361187a565b610a4233826118ae565b5f610af5816115f9565b6064821115610b2f5760405162461bcd60e51b81526020600482015260066024820152654d617820312560d01b6044820152606401610ace565b50600b55565b5f610b3f816115f9565b600e546001600160a01b03165f9081526020819052604090205480610b9b5760405162461bcd60e51b81526020600482015260126024820152714e6f206665657320746f2070726f6365737360701b6044820152606401610ace565b601354610bdf5760405162461bcd60e51b81526020600482015260126024820152714e6f2047656e6573697320686f6c6465727360701b6044820152606401610ace565b5f6064600c5483610bf09190612268565b610bfa919061227f565b90505f6064600d5484610c0d9190612268565b610c17919061227f565b90508115610c4c57600e54610c35906001600160a01b0316836118ae565b8160155f828254610c469190612255565b90915550505b6013545f90610c5b908361227f565b90508015610d11575f5b601354811015610cf95760115f60138381548110610c8557610c8561229e565b5f9182526020808320909101546001600160a01b0316835282019290925260400190205460ff1615610cf157600e5460138054610cf1926001600160a01b0316919084908110610cd757610cd761229e565b5f918252602090912001546001600160a01b03168461159c565b600101610c65565b508160165f828254610d0b9190612255565b90915550505b7f5599ed0024d1d97fbd94e4d7fb2dce4f8a96b17a171844fe2b0fe06cc9a2938f838380610d3f83896122b2565b610d4991906122b2565b60135460408051948552602085019390935291830152606082015260800160405180910390a15050505050565b5f610d80816115f9565b6064610d8c8385612255565b1115610dcf5760405162461bcd60e51b8152602060048201526012602482015271053756d206d757374206265203c3d203130360741b6044820152606401610ace565b50600c91909155600d55565b6103e760105410610e2e5760405162461bcd60e51b815260206004820152601960248201527f416c6c2047656e6573697320736c6f747320636c61696d6564000000000000006044820152606401610ace565b335f9081526011602052604090205460ff1615610e8d5760405162461bcd60e51b815260206004820152601860248201527f416c726561647920612047656e65736973206d656d62657200000000000000006044820152606401610ace565b335f90815260208190526040902054681b1ae4d6e2ef5000001115610ee45760405162461bcd60e51b815260206004820152600d60248201526c4e65656420353030204b41555360981b6044820152606401610ace565b60108054905f610ef3836122c5565b9091555050335f818152601160209081526040808320805460ff191660019081179091556010546012909352908320919091556013805491820181559091527f66de8ffda797e3de9c05e8fc57b3bf0ec28a930d40b0d285d93c06501cf6a0900180546001600160a01b03191682179055600f54610f8491906001600160a01b0316681b1ae4d6e2ef50000061159c565b60105460405190815233907fb7d0e62c6ff422bba5b164f980c696cd5c907d96924a2ba929728be2460b57069060200160405180910390a2565b610fc9823383611526565b610fd382826118ae565b5050565b6001600160a01b0381165f90815260096020526040812054610889565b5f610ffe816115f9565b6110085f83611603565b506109c45f336117bd565b7f65d7a28e3265b37a6474929f336521b332c1681b933f6cb9f3376673440d862a61103d816115f9565b610a426118e2565b5f6060805f5f5f606061105661191f565b61105e61194c565b604080515f80825260208201909252600f60f81b9b939a50919850469750309650945092509050565b5f6010546103e761098c91906122b2565b5f6110a2816115f9565b600a5460408051918252602082018490527f945c1c4e99aa89f648fbfe3df471b916f719e16d960fcec0737d4d56bd696838910160405180910390a150600a55565b5f9182526006602090815260408084206001600160a01b0393909316845291905290205460ff1690565b60606004805461089e90612209565b5f7ff33fe78eb7c840e8bf68670029904b6f0da8e79346941c278a4e7676d473df15611148816115f9565b612710600b54866111599190612268565b611163919061227f565b91505f82116111a45760405162461bcd60e51b815260206004820152600d60248201526c119959481d1bdbc81cdb585b1b609a1b6044820152606401610ace565b816111c3876001600160a01b03165f9081526020819052604090205490565b10156112115760405162461bcd60e51b815260206004820152601960248201527f496e73756666696369656e74204b4155532062616c616e6365000000000000006044820152606401610ace565b600e546112299087906001600160a01b03168461159c565b8160145f82825461123a9190612255565b925050819055508460185f8282546112529190612255565b909155505060178054905f611266836122c5565b9190505550856001600160a01b03167fbde344b6f67c3bf7e0ecbbf22b04267d5d3ae0aa1909c0000b812f6b14ce45b98386866040516112a8939291906122dd565b60405180910390a250949350505050565b5f6112c3816115f9565b6001600160a01b0382166113035760405162461bcd60e51b8152602060048201526007602482015266125b9d985b1a5960ca1b6044820152606401610ace565b50600e80546001600160a01b0319166001600160a01b0392909216919091179055565b5f3361092c81858561159c565b834211156113575760405163313c898160e11b815260048101859052602401610ace565b5f7f6e71edae12b1b97f4d1f60370fef10105fa2faae0126114a169c64845d6126c98888886113a28c6001600160a01b03165f90815260096020526040902080546001810190915590565b6040805160208101969096526001600160a01b0394851690860152929091166060840152608083015260a082015260c0810186905260e0016040516020818303038152906040528051906020012090505f6113fc82611979565b90505f61140b828787876119a5565b9050896001600160a01b0316816001600160a01b031614611452576040516325c0072360e11b81526001600160a01b0380831660048301528b166024820152604401610ace565b61145d8a8a8a611519565b50505050505050505050565b5f82815260066020526040902060010154611483816115f9565b61097d83836117bd565b5f61149760025490565b61098c906a52b7d2dcc80cd2e40000006122b2565b5f6114b6816115f9565b6001600160a01b0382166114f65760405162461bcd60e51b8152602060048201526007602482015266125b9d985b1a5960ca1b6044820152606401610ace565b50600f80546001600160a01b0319166001600160a01b0392909216919091179055565b6109c483838360016119d1565b6001600160a01b038381165f908152600160209081526040808320938616835292905220545f1981101561097d578181101561158e57604051637dc7a0d960e11b81526001600160a01b03841660048201526024810182905260448101839052606401610ace565b61097d84848484035f6119d1565b6001600160a01b0383166115c557604051634b637e8f60e11b81525f6004820152602401610ace565b6001600160a01b0382166115ee5760405163ec442f0560e01b81525f6004820152602401610ace565b6109c4838383611aa3565b610a428133611aae565b5f61160e83836110e4565b61168d575f8381526006602090815260408083206001600160a01b03861684529091529020805460ff191660011790556116453390565b6001600160a01b0316826001600160a01b0316847f2f8788117e7eff1d82e926ec794901d17c78024a50270940304540a733656f0d60405160405180910390a4506001610889565b505f610889565b5f306001600160a01b037f0000000000000000000000000000000000000000000000000000000000000000161480156116ec57507f000000000000000000000000000000000000000000000000000000000000000046145b1561171657507f000000000000000000000000000000000000000000000000000000000000000090565b61098c604080517f8b73c3c69bb8fe3d512ecc4cf759cc79239f7b179b0ffacaa9a75d522b39400f60208201527f0000000000000000000000000000000000000000000000000000000000000000918101919091527f000000000000000000000000000000000000000000000000000000000000000060608201524660808201523060a08201525f9060c00160405160208183030381529060405280519060200120905090565b5f6117c883836110e4565b1561168d575f8381526006602090815260408083206001600160a01b0386168085529252808320805460ff1916905551339286917ff6391f5c32d9c69d2a47ea670b442974b53935d1edc7fd64eb21e047a839171b9190a4506001610889565b611830611ae7565b6005805460ff191690557f5db9ee0a495bf2e6ff9c91a7834c1ba4fdd244a5e8aa4e537bd38aeae4b073aa335b6040516001600160a01b03909116815260200160405180910390a1565b6001600160a01b0382166118a35760405163ec442f0560e01b81525f6004820152602401610ace565b610fd35f8383611aa3565b6001600160a01b0382166118d757604051634b637e8f60e11b81525f6004820152602401610ace565b610fd3825f83611aa3565b6118ea611b0c565b6005805460ff191660011790557f62e78cea01bee320cd4e420270b5ea74000d11b0c9f74754ebdbfc544b05a25861185d3390565b606061098c7f00000000000000000000000000000000000000000000000000000000000000006007611b30565b606061098c7f00000000000000000000000000000000000000000000000000000000000000006008611b30565b5f610889611985611694565b8360405161190160f01b8152600281019290925260228201526042902090565b5f5f5f5f6119b588888888611bd9565b9250925092506119c58282611ca1565b50909695505050505050565b6001600160a01b0384166119fa5760405163e602df0560e01b81525f6004820152602401610ace565b6001600160a01b038316611a2357604051634a1406b160e11b81525f6004820152602401610ace565b6001600160a01b038085165f908152600160209081526040808320938716835292905220829055801561097d57826001600160a01b0316846001600160a01b03167f8c5be1e5ebec7d5bd14f71427d1e84f3dd0314c0f7b2291e5b200ac8c7c3b92584604051611a9591815260200190565b60405180910390a350505050565b6109c4838383611d59565b611ab882826110e4565b610fd35760405163e2517d3f60e01b81526001600160a01b038216600482015260248101839052604401610ace565b60055460ff16611b0a57604051638dfc202b60e01b815260040160405180910390fd5b565b60055460ff1615611b0a5760405163d93c066560e01b815260040160405180910390fd5b606060ff8314611b4a57611b4383611d6c565b9050610889565b818054611b5690612209565b80601f0160208091040260200160405190810160405280929190818152602001828054611b8290612209565b8015611bcd5780601f10611ba457610100808354040283529160200191611bcd565b820191905f5260205f20905b815481529060010190602001808311611bb057829003601f168201915b50505050509050610889565b5f80807f7fffffffffffffffffffffffffffffff5d576e7357a4501ddfe92f46681b20a0841115611c1257505f91506003905082611c97565b604080515f808252602082018084528a905260ff891692820192909252606081018790526080810186905260019060a0016020604051602081039080840390855afa158015611c63573d5f5f3e3d5ffd5b5050604051601f1901519150506001600160a01b038116611c8e57505f925060019150829050611c97565b92505f91508190505b9450945094915050565b5f826003811115611cb457611cb4612312565b03611cbd575050565b6001826003811115611cd157611cd1612312565b03611cef5760405163f645eedf60e01b815260040160405180910390fd5b6002826003811115611d0357611d03612312565b03611d245760405163fce698f760e01b815260048101829052602401610ace565b6003826003811115611d3857611d38612312565b03610fd3576040516335e2f38360e21b815260048101829052602401610ace565b611d61611b0c565b6109c4838383611da9565b60605f611d7883611ecf565b6040805160208082528183019092529192505f91906020820181803683375050509182525060208101929092525090565b6001600160a01b038316611dd3578060025f828254611dc89190612255565b90915550611e439050565b6001600160a01b0383165f9081526020819052604090205481811015611e255760405163391434e360e21b81526001600160a01b03851660048201526024810182905260448101839052606401610ace565b6001600160a01b0384165f9081526020819052604090209082900390555b6001600160a01b038216611e5f57600280548290039055611e7d565b6001600160a01b0382165f9081526020819052604090208054820190555b816001600160a01b0316836001600160a01b03167fddf252ad1be2c89b69c2b068fc378daa952ba7f163c4a11628f55a4df523b3ef83604051611ec291815260200190565b60405180910390a3505050565b5f60ff8216601f81111561088957604051632cd44ac360e21b815260040160405180910390fd5b5f60208284031215611f06575f5ffd5b81356001600160e01b031981168114611f1d575f5ffd5b9392505050565b5f81518084528060208401602086015e5f602082860101526020601f19601f83011685010191505092915050565b602081525f611f1d6020830184611f24565b80356001600160a01b0381168114611f7a575f5ffd5b919050565b5f60208284031215611f8f575f5ffd5b611f1d82611f64565b5f5f60408385031215611fa9575f5ffd5b611fb283611f64565b946020939093013593505050565b5f5f5f60608486031215611fd2575f5ffd5b611fdb84611f64565b9250611fe960208501611f64565b929592945050506040919091013590565b5f6020828403121561200a575f5ffd5b5035919050565b5f5f60408385031215612022575f5ffd5b8235915061203260208401611f64565b90509250929050565b5f5f6040838503121561204c575f5ffd5b50508035926020909101359150565b60ff60f81b8816815260e060208201525f61207960e0830189611f24565b828103604084015261208b8189611f24565b606084018890526001600160a01b038716608085015260a0840186905283810360c0850152845180825260208087019350909101905f5b818110156120e05783518352602093840193909201916001016120c2565b50909b9a5050505050505050505050565b5f5f5f5f60608587031215612104575f5ffd5b61210d85611f64565b935060208501359250604085013567ffffffffffffffff81111561212f575f5ffd5b8501601f8101871361213f575f5ffd5b803567ffffffffffffffff811115612155575f5ffd5b876020828401011115612166575f5ffd5b949793965060200194505050565b5f5f5f5f5f5f5f60e0888a03121561218a575f5ffd5b61219388611f64565b96506121a160208901611f64565b95506040880135945060608801359350608088013560ff811681146121c4575f5ffd5b9699959850939692959460a0840135945060c09093013592915050565b5f5f604083850312156121f2575f5ffd5b6121fb83611f64565b915061203260208401611f64565b600181811c9082168061221d57607f821691505b60208210810361223b57634e487b7160e01b5f52602260045260245ffd5b50919050565b634e487b7160e01b5f52601160045260245ffd5b8082018082111561088957610889612241565b808202811582820484141761088957610889612241565b5f8261229957634e487b7160e01b5f52601260045260245ffd5b500490565b634e487b7160e01b5f52603260045260245ffd5b8181038181111561088957610889612241565b5f600182016122d6576122d6612241565b5060010190565b83815260406020820152816040820152818360608301375f818301606090810191909152601f909201601f1916010192915050565b634e487b7160e01b5f52602160045260245ffdfea2646970667358221220cefef8d60986f5aae3de9dc58ed4720c05fca32ed9e5f24dbe740e225587c97d64736f6c634300081c0033f33fe78eb7c840e8bf68670029904b6f0da8e79346941c278a4e7676d473df15",
  "linkReferences": {},
  "deployedLinkReferences": {}
}