{
  "_format": "hh-sol-artifact-1",
  "contractName": "KAUSToken",
  "sourceName": "contracts/KAUSToken.sol",
  "abi": [
    {
      "inputs": [
        {
          "internalType": "address",
          "name": "_usdc",
          "type": "address"
        },
        {
          "internalType": "address",
          "name": "_feeRecipient",
          "type": "address"
        }
      ],
      "stateMutability": "nonpayable",
      "type": "constructor"
    },
    {
      "inputs": [
        {
          "internalType": "address",
          "name": "spender",
          "type": "address"
        },
        {
          "internalType": "uint256",
          "name": "allowance",
          "type": "uint256"
        },
        {
          "internalType": "uint256",
          "name": "needed",
          "type": "uint256"
        }
      ],
      "name": "ERC20InsufficientAllowance",
      "type": "error"
    },
    {
      "inputs": [
        {
          "internalType": "address",
          "name": "sender",
          "type": "address"
        },
        {
          "internalType": "uint256",
          "name": "balance",
          "type": "uint256"
        },
        {
          "internalType": "uint256",
          "name": "needed",
          "type": "uint256"
        }
      ],
      "name": "ERC20InsufficientBalance",
      "type": "error"
    },
    {
      "inputs": [
        {
          "internalType": "address",
          "name": "approver",
          "type": "address"
        }
      ],
      "name": "ERC20InvalidApprover",
      "type": "error"
    },
    {
      "inputs": [
        {
          "internalType": "address",
          "name": "receiver",
          "type": "address"
        }
      ],
      "name": "ERC20InvalidReceiver",
      "type": "error"
    },
    {
      "inputs": [
        {
          "internalType": "address",
          "name": "sender",
          "type": "address"
        }
      ],
      "name": "ERC20InvalidSender",
      "type": "error"
    },
    {
      "inputs": [
        {
          "internalType": "address",
          "name": "spender",
          "type": "address"
        }
      ],
      "name": "ERC20InvalidSpender",
      "type": "error"
    },
    {
      "inputs": [
        {
          "internalType": "address",
          "name": "owner",
          "type": "address"
        }
      ],
      "name": "OwnableInvalidOwner",
      "type": "error"
    },
    {
      "inputs": [
        {
          "internalType": "address",
          "name": "account",
          "type": "address"
        }
      ],
      "name": "OwnableUnauthorizedAccount",
      "type": "error"
    },
    {
      "anonymous": false,
      "inputs": [
        {
          "indexed": true,
          "internalType": "address",
          "name": "owner",
          "type": "address"
        },
        {
          "indexed": true,
          "internalType": "address",
          "name": "spender",
          "type": "address"
        },
        {
          "indexed": false,
          "internalType": "uint256",
          "name": "value",
          "type": "uint256"
        }
      ],
      "name": "Approval",
      "type": "event"
    },
    {
      "anonymous": false,
      "inputs": [
        {
          "indexed": true,
          "internalType": "address",
          "name": "from",
          "type": "address"
        },
        {
          "indexed": false,
          "internalType": "uint256",
          "name": "amount",
          "type": "uint256"
        }
      ],
      "name": "FeeCollected",
      "type": "event"
    },
    {
      "anonymous": false,
      "inputs": [
        {
          "indexed": true,
          "internalType": "address",
          "name": "newRecipient",
          "type": "address"
        }
      ],
      "name": "FeeRecipientUpdated",
      "type": "event"
    },
    {
      "anonymous": false,
      "inputs": [
        {
          "indexed": true,
          "internalType": "address",
          "name": "buyer",
          "type": "address"
        },
        {
          "indexed": false,
          "internalType": "uint256",
          "name": "kausAmount",
          "type": "uint256"
        },
        {
          "indexed": false,
          "internalType": "uint256",
          "name": "usdcPaid",
          "type": "uint256"
        },
        {
          "indexed": false,
          "internalType": "uint256",
          "name": "feePaid",
          "type": "uint256"
        }
      ],
      "name": "KausPurchased",
      "type": "event"
    },
    {
      "anonymous": false,
      "inputs": [
        {
          "indexed": true,
          "internalType": "address",
          "name": "previousOwner",
          "type": "address"
        },
        {
          "indexed": true,
          "internalType": "address",
          "name": "newOwner",
          "type": "address"
        }
      ],
      "name": "OwnershipTransferred",
      "type": "event"
    },
    {
      "anonymous": false,
      "inputs": [
        {
          "indexed": true,
          "internalType": "address",
          "name": "from",
          "type": "address"
        },
        {
          "indexed": true,
          "internalType": "address",
          "name": "to",
          "type": "address"
        },
        {
          "indexed": false,
          "internalType": "uint256",
          "name": "value",
          "type": "uint256"
        }
      ],
      "name": "Transfer",
      "type": "event"
    },
    {
      "inputs": [],
      "name": "FEE_BPS",
      "outputs": [
        {
          "internalType": "uint256",
          "name": "",
          "type": "uint256"
        }
      ],
      "stateMutability": "view",
      "type": "function"
    },
    {
      "inputs": [],
      "name": "INITIAL_MINT",
      "outputs": [
        {
          "internalType": "uint256",
          "name": "",
          "type": "uint256"
        }
      ],
      "stateMutability": "view",
      "type": "function"
    },
    {
      "inputs": [],
      "name": "MAX_SUPPLY",
      "outputs": [
        {
          "internalType": "uint256",
          "name": "",
          "type": "uint256"
        }
      ],
      "stateMutability": "view",
      "type": "function"
    },
    {
      "inputs": [
        {
          "internalType": "address",
          "name": "owner",
          "type": "address"
        },
        {
          "internalType": "address",
          "name": "spender",
          "type": "address"
        }
      ],
      "name": "allowance",
      "outputs": [
        {
          "internalType": "uint256",
          "name": "",
          "type": "uint256"
        }
      ],
      "stateMutability": "view",
      "type": "function"
    },
    {
      "inputs": [
        {
          "internalType": "address",
          "name": "spender",
          "type": "address"
        },
        {
          "internalType": "uint256",
          "name": "value",
          "type": "uint256"
        }
      ],
      "name": "approve",
      "outputs": [
        {
          "internalType": "bool",
          "name": "",
          "type": "bool"
        }
      ],
      "stateMutability": "nonpayable",
      "type": "function"
    },
    {
      "inputs": [
        {
          "internalType": "address",
          "name": "account",
          "type": "address"
        }
      ],
      "name": "balanceOf",
      "outputs": [
        {
          "internalType": "uint256",
          "name": "",
          "type": "uint256"
        }
      ],
      "stateMutability": "view",
      "type": "function"
    },
    {
      "inputs": [
        {
          "internalType": "uint256",
          "name": "amount",
          "type": "uint256"
        }
      ],
      "name": "burn",
      "outputs": [],
      "stateMutability": "nonpayable",
      "type": "function"
    },
    {
      "inputs": [
        {
          "internalType": "uint256",
          "name": "usdcAmount",
          "type": "uint256"
        }
      ],
      "name": "buyWithUSDC",
      "outputs": [],
      "stateMutability": "nonpayable",
      "type": "function"
    },
    {
      "inputs": [
        {
          "internalType": "uint256",
          "name": "amount",
          "type": "uint256"
        }
      ],
      "name": "collectFee",
      "outputs": [],
      "stateMutability": "nonpayable",
      "type": "function"
    },
    {
      "inputs": [],
      "name": "decimals",
      "outputs": [
        {
          "internalType": "uint8",
          "name": "",
          "type": "uint8"
        }
      ],
      "stateMutability": "view",
      "type": "function"
    },
    {
      "inputs": [],
      "name": "feeRecipient",
      "outputs": [
        {
          "internalType": "address",
          "name": "",
          "type": "address"
        }
      ],
      "stateMutability": "view",
      "type": "function"
    },
    {
      "inputs": [
        {
          "internalType": "address",
          "name": "to",
          "type": "address"
        },
        {
          "internalType": "uint256",
          "name": "amount",
          "type": "uint256"
        }
      ],
      "name": "mint",
      "outputs": [],
      "stateMutability": "nonpayable",
      "type": "function"
    },
    {
      "inputs": [],
      "name": "name",
      "outputs": [
        {
          "internalType": "string",
          "name": "",
          "type": "string"
        }
      ],
      "stateMutability": "view",
      "type": "function"
    },
    {
      "inputs": [],
      "name": "owner",
      "outputs": [
        {
          "internalType": "address",
          "name": "",
          "type": "address"
        }
      ],
      "stateMutability": "view",
      "type": "function"
    },
    {
      "inputs": [],
      "name": "renounceOwnership",
      "outputs": [],
      "stateMutability": "nonpayable",
      "type": "function"
    },
    {
      "inputs": [
        {
          "internalType": "address",
          "name": "token",
          "type": "address"
        },
        {
          "internalType": "address",
          "name": "to",
          "type": "address"
        },
        {
          "internalType": "uint256",
          "name": "amount",
          "type": "uint256"
        }
      ],
      "name": "rescueToken",
      "outputs": [],
      "stateMutability": "nonpayable",
      "type": "function"
    },
    {
      "inputs": [
        {
          "internalType": "address",
          "name": "newRecipient",
          "type": "address"
        }
      ],
      "name": "setFeeRecipient",
      "outputs": [],
      "stateMutability": "nonpayable",
      "type": "function"
    },
    {
      "inputs": [],
      "name": "symbol",
      "outputs": [
        {
          "internalType": "string",
          "name": "",
          "type": "string"
        }
      ],
      "stateMutability": "view",
      "type": "function"
    },
    {
      "inputs": [],
      "name": "totalFeesCollected",
      "outputs": [
        {
          "internalType": "uint256",
          "name": "",
          "type": "uint256"
        }
      ],
      "stateMutability": "view",
      "type": "function"
    },
    {
      "inputs": [],
      "name": "totalSupply",
      "outputs": [
        {
          "internalType": "uint256",
          "name": "",
          "type": "uint256"
        }
      ],
      "stateMutability": "view",
      "type": "function"
    },
    {
      "inputs": [
        {
          "internalType": "address",
          "name": "to",
          "type": "address"
        },
        {
          "internalType": "uint256",
          "name": "value",
          "type": "uint256"
        }
      ],
      "name": "transfer",
      "outputs": [
        {
          "internalType": "bool",
          "name": "",
          "type": "bool"
        }
      ],
      "stateMutability": "nonpayable",
      "type": "function"
    },
    {
      "inputs": [
        {
          "internalType": "address",
          "name": "from",
          "type": "address"
        },
        {
          "internalType": "address",
          "name": "to",
          "type": "address"
        },
        {
          "internalType": "uint256",
          "name": "value",
          "type": "uint256"
        }
      ],
      "name": "transferFrom",
      "outputs": [
        {
          "internalType": "bool",
          "name": "",
          "type": "bool"
        }
      ],
      "stateMutability": "nonpayable",
      "type": "function"
    },
    {
      "inputs": [
        {
          "internalType": "address",
          "name": "newOwner",
          "type": "address"
        }
      ],
      "name": "transferOwnership",
      "outputs": [],
      "stateMutability": "nonpayable",
      "type": "function"
    },
    {
      "inputs": [],
      "name": "usdc",
      "outputs": [
        {
          "internalType": "contract IERC20",
          "name": "",
          "type": "address"
        }
      ],
      "stateMutability": "view",
      "type": "function"
    },
    {
      "inputs": [
        {
          "internalType": "address",
          "name": "to",
          "type": "address"
        },
        {
          "internalType": "uint256",
          "name": "amount",
          "type": "uint256"
        }
      ],
      "name": "withdrawUsdc",
      "outputs": [],
      "stateMutability": "nonpayable",
      "type": "function"
    }
  ],
  "bytecode": "0x60a06040523480156200001157600080fd5b5060405162002c0d38038062002c0d8339818101604052810190620000379190620006bc565b336040518060400160405280601581526020017f4b2d4172656e61205574696c69747920546f6b656e00000000000000000000008152506040518060400160405280600481526020017f4b415553000000000000000000000000000000000000000000000000000000008152508160039081620000b591906200097d565b508060049081620000c791906200097d565b505050600073ffffffffffffffffffffffffffffffffffffffff168173ffffffffffffffffffffffffffffffffffffffff16036200013f5760006040517f1e4fbdf700000000000000000000000000000000000000000000000000000000815260040162000136919062000a75565b60405180910390fd5b6200015081620002cf60201b60201c565b50600073ffffffffffffffffffffffffffffffffffffffff168273ffffffffffffffffffffffffffffffffffffffff1603620001c3576040517f08c379a0000000000000000000000000000000000000000000000000000000008152600401620001ba9062000af3565b60405180910390fd5b600073ffffffffffffffffffffffffffffffffffffffff168173ffffffffffffffffffffffffffffffffffffffff160362000235576040517f08c379a00000000000000000000000000000000000000000000000000000000081526004016200022c9062000b65565b60405180910390fd5b8173ffffffffffffffffffffffffffffffffffffffff1660808173ffffffffffffffffffffffffffffffffffffffff168152505080600660006101000a81548173ffffffffffffffffffffffffffffffffffffffff021916908373ffffffffffffffffffffffffffffffffffffffff160217905550620002c7336a084595161401484a0000006200039560201b60201c565b505062000c5c565b6000600560009054906101000a900473ffffffffffffffffffffffffffffffffffffffff16905081600560006101000a81548173ffffffffffffffffffffffffffffffffffffffff021916908373ffffffffffffffffffffffffffffffffffffffff1602179055508173ffffffffffffffffffffffffffffffffffffffff168173ffffffffffffffffffffffffffffffffffffffff167f8be0079c531659141344cd1fd0a4f28419497f9722a3daafe3b4186f6b6457e060405160405180910390a35050565b600073ffffffffffffffffffffffffffffffffffffffff168273ffffffffffffffffffffffffffffffffffffffff16036200040a5760006040517fec442f0500000000000000000000000000000000000000000000000000000000815260040162000401919062000a75565b60405180910390fd5b6200041e600083836200042260201b60201c565b5050565b600073ffffffffffffffffffffffffffffffffffffffff168373ffffffffffffffffffffffffffffffffffffffff1603620004785780600260008282546200046b919062000bb6565b925050819055506200054e565b60008060008573ffffffffffffffffffffffffffffffffffffffff1673ffffffffffffffffffffffffffffffffffffffff1681526020019081526020016000205490508181101562000507578381836040517fe450d38c000000000000000000000000000000000000000000000000000000008152600401620004fe9392919062000c02565b60405180910390fd5b8181036000808673ffffffffffffffffffffffffffffffffffffffff1673ffffffffffffffffffffffffffffffffffffffff16815260200190815260200160002081905550505b600073ffffffffffffffffffffffffffffffffffffffff168273ffffffffffffffffffffffffffffffffffffffff1603620005995780600260008282540392505081905550620005e6565b806000808473ffffffffffffffffffffffffffffffffffffffff1673ffffffffffffffffffffffffffffffffffffffff168152602001908152602001600020600082825401925050819055505b8173ffffffffffffffffffffffffffffffffffffffff168373ffffffffffffffffffffffffffffffffffffffff167fddf252ad1be2c89b69c2b068fc378daa952ba7f163c4a11628f55a4df523b3ef8360405162000645919062000c3f565b60405180910390a3505050565b600080fd5b600073ffffffffffffffffffffffffffffffffffffffff82169050919050565b6000620006848262000657565b9050919050565b620006968162000677565b8114620006a257600080fd5b50565b600081519050620006b6816200068b565b92915050565b60008060408385031215620006d657620006d562000652565b5b6000620006e685828601620006a5565b9250506020620006f985828601620006a5565b9150509250929050565b600081519050919050565b7f4e487b7100000000000000000000000000000000000000000000000000000000600052604160045260246000fd5b7f4e487b7100000000000000000000000000000000000000000000000000000000600052602260045260246000fd5b600060028204905060018216806200078557607f821691505b6020821081036200079b576200079a6200073d565b5b50919050565b60008190508160005260206000209050919050565b60006020601f8301049050919050565b600082821b905092915050565b600060088302620008057fffffffffffffffffffffffffffffffffffffffffffffffffffffffffffffffff82620007c6565b620008118683620007c6565b95508019841693508086168417925050509392505050565b6000819050919050565b6000819050919050565b60006200085e62000858620008528462000829565b62000833565b62000829565b9050919050565b6000819050919050565b6200087a836200083d565b62000892620008898262000865565b848454620007d3565b825550505050565b600090565b620008a96200089a565b620008b68184846200086f565b505050565b5b81811015620008de57620008d26000826200089f565b600181019050620008bc565b5050565b601f8211156200092d57620008f781620007a1565b6200090284620007b6565b8101602085101562000912578190505b6200092a6200092185620007b6565b830182620008bb565b50505b505050565b600082821c905092915050565b6000620009526000198460080262000932565b1980831691505092915050565b60006200096d83836200093f565b9150826002028217905092915050565b620009888262000703565b67ffffffffffffffff811115620009a457620009a36200070e565b5b620009b082546200076c565b620009bd828285620008e2565b600060209050601f831160018114620009f55760008415620009e0578287015190505b620009ec85826200095f565b86555062000a5c565b601f19841662000a0586620007a1565b60005b8281101562000a2f5784890151825560018201915060208501945060208101905062000a08565b8683101562000a4f578489015162000a4b601f8916826200093f565b8355505b6001600288020188555050505b505050505050565b62000a6f8162000677565b82525050565b600060208201905062000a8c600083018462000a64565b92915050565b600082825260208201905092915050565b7f7a65726f20757364630000000000000000000000000000000000000000000000600082015250565b600062000adb60098362000a92565b915062000ae88262000aa3565b602082019050919050565b6000602082019050818103600083015262000b0e8162000acc565b9050919050565b7f7a65726f20666565526563697069656e74000000000000000000000000000000600082015250565b600062000b4d60118362000a92565b915062000b5a8262000b15565b602082019050919050565b6000602082019050818103600083015262000b808162000b3e565b9050919050565b7f4e487b7100000000000000000000000000000000000000000000000000000000600052601160045260246000fd5b600062000bc38262000829565b915062000bd08362000829565b925082820190508082111562000beb5762000bea62000b87565b5b92915050565b62000bfc8162000829565b82525050565b600060608201905062000c19600083018662000a64565b62000c28602083018562000bf1565b62000c37604083018462000bf1565b949350505050565b600060208201905062000c56600083018462000bf1565b92915050565b608051611f8762000c86600039600081816105a4015281816109c80152610cad0152611f876000f3fe608060405234801561001057600080fd5b50600436106101735760003560e01c8063715018a6116100de578063bf333f2c11610097578063e5711e8b11610071578063e5711e8b1461042c578063e58a5e9014610448578063e74b981b14610464578063f2fde38b1461048057610173565b8063bf333f2c146103c0578063ca7df92c146103de578063dd62ed3e146103fc57610173565b8063715018a6146103125780638da5cb5b1461031c57806395d89b411461033a578063a9059cbb14610358578063a969ff0a14610388578063aeccf735146103a457610173565b80633e413bee116101305780633e413bee1461025057806340c10f191461026e57806342966c681461028a57806346904840146102a657806360c6d8ae146102c457806370a08231146102e257610173565b806306fdde0314610178578063095ea7b31461019657806318160ddd146101c657806323b872dd146101e4578063313ce5671461021457806332cb6b0c14610232575b600080fd5b61018061049c565b60405161018d9190611752565b60405180910390f35b6101b060048036038101906101ab919061180d565b61052e565b6040516101bd9190611868565b60405180910390f35b6101ce610551565b6040516101db9190611892565b60405180910390f35b6101fe60048036038101906101f991906118ad565b61055b565b60405161020b9190611868565b60405180910390f35b61021c61058a565b604051610229919061191c565b60405180910390f35b61023a610593565b6040516102479190611892565b60405180910390f35b6102586105a2565b6040516102659190611996565b60405180910390f35b6102886004803603810190610283919061180d565b6105c6565b005b6102a4600480360381019061029f91906119b1565b61063c565b005b6102ae610649565b6040516102bb91906119ed565b60405180910390f35b6102cc61066f565b6040516102d99190611892565b60405180910390f35b6102fc60048036038101906102f79190611a08565b610675565b6040516103099190611892565b60405180910390f35b61031a6106bd565b005b6103246106d1565b60405161033191906119ed565b60405180910390f35b6103426106fb565b60405161034f9190611752565b60405180910390f35b610372600480360381019061036d919061180d565b61078d565b60405161037f9190611868565b60405180910390f35b6103a2600480360381019061039d91906119b1565b6107b0565b005b6103be60048036038101906103b991906119b1565b6108e0565b005b6103c8610b0e565b6040516103d59190611892565b60405180910390f35b6103e6610b13565b6040516103f39190611892565b60405180910390f35b61041660048036038101906104119190611a35565b610b22565b6040516104239190611892565b60405180910390f35b610446600480360381019061044191906118ad565b610ba9565b005b610462600480360381019061045d919061180d565b610ca3565b005b61047e60048036038101906104799190611a08565b610d4e565b005b61049a60048036038101906104959190611a08565b610e4c565b005b6060600380546104ab90611aa4565b80601f01602080910402602001604051908101604052809291908181526020018280546104d790611aa4565b80156105245780601f106104f957610100808354040283529160200191610524565b820191906000526020600020905b81548152906001019060200180831161050757829003601f168201915b5050505050905090565b600080610539610ed2565b9050610546818585610eda565b600191505092915050565b6000600254905090565b600080610566610ed2565b9050610573858285610eec565b61057e858585610f81565b60019150509392505050565b60006012905090565b6a52b7d2dcc80cd2e400000081565b7f000000000000000000000000000000000000000000000000000000000000000081565b6105ce611075565b6a52b7d2dcc80cd2e4000000816105e3610551565b6105ed9190611b04565b111561062e576040517f08c379a000000000000000000000000000000000000000000000000000000000815260040161062590611b84565b60405180910390fd5b61063882826110fc565b5050565b610646338261117e565b50565b600660009054906101000a900473ffffffffffffffffffffffffffffffffffffffff1681565b60075481565b60008060008373ffffffffffffffffffffffffffffffffffffffff1673ffffffffffffffffffffffffffffffffffffffff168152602001908152602001600020549050919050565b6106c5611075565b6106cf6000611200565b565b6000600560009054906101000a900473ffffffffffffffffffffffffffffffffffffffff16905090565b60606004805461070a90611aa4565b80601f016020809104026020016040519081016040528092919081815260200182805461073690611aa4565b80156107835780601f1061075857610100808354040283529160200191610783565b820191906000526020600020905b81548152906001019060200180831161076657829003601f168201915b5050505050905090565b600080610798610ed2565b90506107a5818585610f81565b600191505092915050565b6107b8611075565b806107c230610675565b1015610803576040517f08c379a00000000000000000000000000000000000000000000000000000000081526004016107fa90611bf0565b60405180910390fd5b600060646032836108149190611c10565b61081e9190611c81565b905060006064601e846108319190611c10565b61083b9190611c81565b9050610847308361117e565b61087430600660009054906101000a900473ffffffffffffffffffffffffffffffffffffffff1683610f81565b82600760008282546108869190611b04565b925050819055503373ffffffffffffffffffffffffffffffffffffffff167f06c5efeff5c320943d265dc4e5f1af95ad523555ce0c1957e367dda5514572df846040516108d39190611892565b60405180910390a2505050565b60008111610923576040517f08c379a000000000000000000000000000000000000000000000000000000000815260040161091a90611cfe565b60405180910390fd5b600064e8d4a51000826109369190611c10565b90506000612710600a8361094a9190611c10565b6109549190611c81565b9050600081836109649190611d1e565b90506a52b7d2dcc80cd2e40000008361097b610551565b6109859190611b04565b11156109c6576040517f08c379a00000000000000000000000000000000000000000000000000000000081526004016109bd90611b84565b60405180910390fd5b7f000000000000000000000000000000000000000000000000000000000000000073ffffffffffffffffffffffffffffffffffffffff166323b872dd3330876040518463ffffffff1660e01b8152600401610a2393929190611d52565b6020604051808303816000875af1158015610a42573d6000803e3d6000fd5b505050506040513d601f19601f82011682018060405250810190610a669190611db5565b50610a7133826110fc565b610a9d600660009054906101000a900473ffffffffffffffffffffffffffffffffffffffff16836110fc565b8160076000828254610aaf9190611b04565b925050819055503373ffffffffffffffffffffffffffffffffffffffff167f145c86d8bbf12873ff8cbcb1f7de4eabdc625b29cbf639c46974af05bfb60e04828685604051610b0093929190611de2565b60405180910390a250505050565b600a81565b6a084595161401484a00000081565b6000600160008473ffffffffffffffffffffffffffffffffffffffff1673ffffffffffffffffffffffffffffffffffffffff16815260200190815260200160002060008373ffffffffffffffffffffffffffffffffffffffff1673ffffffffffffffffffffffffffffffffffffffff16815260200190815260200160002054905092915050565b610bb1611075565b3073ffffffffffffffffffffffffffffffffffffffff168373ffffffffffffffffffffffffffffffffffffffff1603610c1f576040517f08c379a0000000000000000000000000000000000000000000000000000000008152600401610c1690611e65565b60405180910390fd5b8273ffffffffffffffffffffffffffffffffffffffff1663a9059cbb83836040518363ffffffff1660e01b8152600401610c5a929190611e85565b6020604051808303816000875af1158015610c79573d6000803e3d6000fd5b505050506040513d601f19601f82011682018060405250810190610c9d9190611db5565b50505050565b610cab611075565b7f000000000000000000000000000000000000000000000000000000000000000073ffffffffffffffffffffffffffffffffffffffff1663a9059cbb83836040518363ffffffff1660e01b8152600401610d06929190611e85565b6020604051808303816000875af1158015610d25573d6000803e3d6000fd5b505050506040513d601f19601f82011682018060405250810190610d499190611db5565b505050565b610d56611075565b600073ffffffffffffffffffffffffffffffffffffffff168173ffffffffffffffffffffffffffffffffffffffff1603610dc5576040517f08c379a0000000000000000000000000000000000000000000000000000000008152600401610dbc90611efa565b60405180910390fd5b80600660006101000a81548173ffffffffffffffffffffffffffffffffffffffff021916908373ffffffffffffffffffffffffffffffffffffffff1602179055508073ffffffffffffffffffffffffffffffffffffffff167f7a7b5a0a132f9e0581eb8527f66eae9ee89c2a3e79d4ac7e41a1f1f4d48a7fc260405160405180910390a250565b610e54611075565b600073ffffffffffffffffffffffffffffffffffffffff168173ffffffffffffffffffffffffffffffffffffffff1603610ec65760006040517f1e4fbdf7000000000000000000000000000000000000000000000000000000008152600401610ebd91906119ed565b60405180910390fd5b610ecf81611200565b50565b600033905090565b610ee783838360016112c6565b505050565b6000610ef88484610b22565b90507fffffffffffffffffffffffffffffffffffffffffffffffffffffffffffffffff811015610f7b5781811015610f6b578281836040517ffb8f41b2000000000000000000000000000000000000000000000000000000008152600401610f6293929190611f1a565b60405180910390fd5b610f7a848484840360006112c6565b5b50505050565b600073ffffffffffffffffffffffffffffffffffffffff168373ffffffffffffffffffffffffffffffffffffffff1603610ff35760006040517f96c6fd1e000000000000000000000000000000000000000000000000000000008152600401610fea91906119ed565b60405180910390fd5b600073ffffffffffffffffffffffffffffffffffffffff168273ffffffffffffffffffffffffffffffffffffffff16036110655760006040517fec442f0500000000000000000000000000000000000000000000000000000000815260040161105c91906119ed565b60405180910390fd5b61107083838361149d565b505050565b61107d610ed2565b73ffffffffffffffffffffffffffffffffffffffff1661109b6106d1565b73ffffffffffffffffffffffffffffffffffffffff16146110fa576110be610ed2565b6040517f118cdaa70000000000000000000000000000000000000000000000000000000081526004016110f191906119ed565b60405180910390fd5b565b600073ffffffffffffffffffffffffffffffffffffffff168273ffffffffffffffffffffffffffffffffffffffff160361116e5760006040517fec442f0500000000000000000000000000000000000000000000000000000000815260040161116591906119ed565b60405180910390fd5b61117a6000838361149d565b5050565b600073ffffffffffffffffffffffffffffffffffffffff168273ffffffffffffffffffffffffffffffffffffffff16036111f05760006040517f96c6fd1e0000000000000000000000000000000000000000000000000000000081526004016111e791906119ed565b60405180910390fd5b6111fc8260008361149d565b5050565b6000600560009054906101000a900473ffffffffffffffffffffffffffffffffffffffff16905081600560006101000a81548173ffffffffffffffffffffffffffffffffffffffff021916908373ffffffffffffffffffffffffffffffffffffffff1602179055508173ffffffffffffffffffffffffffffffffffffffff168173ffffffffffffffffffffffffffffffffffffffff167f8be0079c531659141344cd1fd0a4f28419497f9722a3daafe3b4186f6b6457e060405160405180910390a35050565b600073ffffffffffffffffffffffffffffffffffffffff168473ffffffffffffffffffffffffffffffffffffffff16036113385760006040517fe602df0500000000000000000000000000000000000000000000000000000000815260040161132f91906119ed565b60405180910390fd5b600073ffffffffffffffffffffffffffffffffffffffff168373ffffffffffffffffffffffffffffffffffffffff16036113aa5760006040517f94280d620000000000000000000000000000000000000000000000000000000081526004016113a191906119ed565b60405180910390fd5b81600160008673ffffffffffffffffffffffffffffffffffffffff1673ffffffffffffffffffffffffffffffffffffffff16815260200190815260200160002060008573ffffffffffffffffffffffffffffffffffffffff1673ffffffffffffffffffffffffffffffffffffffff168152602001908152602001600020819055508015611497578273ffffffffffffffffffffffffffffffffffffffff168473ffffffffffffffffffffffffffffffffffffffff167f8c5be1e5ebec7d5bd14f71427d1e84f3dd0314c0f7b2291e5b200ac8c7c3b9258460405161148e9190611892565b60405180910390a35b50505050565b600073ffffffffffffffffffffffffffffffffffffffff168373ffffffffffffffffffffffffffffffffffffffff16036114ef5780600260008282546114e39190611b04565b925050819055506115c2565b60008060008573ffffffffffffffffffffffffffffffffffffffff1673ffffffffffffffffffffffffffffffffffffffff1681526020019081526020016000205490508181101561157b578381836040517fe450d38c00000000000000000000000000000000000000000000000000000000815260040161157293929190611f1a565b60405180910390fd5b8181036000808673ffffffffffffffffffffffffffffffffffffffff1673ffffffffffffffffffffffffffffffffffffffff16815260200190815260200160002081905550505b600073ffffffffffffffffffffffffffffffffffffffff168273ffffffffffffffffffffffffffffffffffffffff160361160b5780600260008282540392505081905550611658565b806000808473ffffffffffffffffffffffffffffffffffffffff1673ffffffffffffffffffffffffffffffffffffffff168152602001908152602001600020600082825401925050819055505b8173ffffffffffffffffffffffffffffffffffffffff168373ffffffffffffffffffffffffffffffffffffffff167fddf252ad1be2c89b69c2b068fc378daa952ba7f163c4a11628f55a4df523b3ef836040516116b59190611892565b60405180910390a3505050565b600081519050919050565b600082825260208201905092915050565b60005b838110156116fc5780820151818401526020810190506116e1565b60008484015250505050565b6000601f19601f8301169050919050565b6000611724826116c2565b61172e81856116cd565b935061173e8185602086016116de565b61174781611708565b840191505092915050565b6000602082019050818103600083015261176c8184611719565b905092915050565b600080fd5b600073ffffffffffffffffffffffffffffffffffffffff82169050919050565b60006117a482611779565b9050919050565b6117b481611799565b81146117bf57600080fd5b50565b6000813590506117d1816117ab565b92915050565b6000819050919050565b6117ea816117d7565b81146117f557600080fd5b50565b600081359050611807816117e1565b92915050565b6000806040838503121561182457611823611774565b5b6000611832858286016117c2565b9250506020611843858286016117f8565b9150509250929050565b60008115159050919050565b6118628161184d565b82525050565b600060208201905061187d6000830184611859565b92915050565b61188c816117d7565b82525050565b60006020820190506118a76000830184611883565b92915050565b6000806000606084860312156118c6576118c5611774565b5b60006118d4868287016117c2565b93505060206118e5868287016117c2565b92505060406118f6868287016117f8565b9150509250925092565b600060ff82169050919050565b61191681611900565b82525050565b6000602082019050611931600083018461190d565b92915050565b6000819050919050565b600061195c61195761195284611779565b611937565b611779565b9050919050565b600061196e82611941565b9050919050565b600061198082611963565b9050919050565b61199081611975565b82525050565b60006020820190506119ab6000830184611987565b92915050565b6000602082840312156119c7576119c6611774565b5b60006119d5848285016117f8565b91505092915050565b6119e781611799565b82525050565b6000602082019050611a0260008301846119de565b92915050565b600060208284031215611a1e57611a1d611774565b5b6000611a2c848285016117c2565b91505092915050565b60008060408385031215611a4c57611a4b611774565b5b6000611a5a858286016117c2565b9250506020611a6b858286016117c2565b9150509250929050565b7f4e487b7100000000000000000000000000000000000000000000000000000000600052602260045260246000fd5b60006002820490506001821680611abc57607f821691505b602082108103611acf57611ace611a75565b5b50919050565b7f4e487b7100000000000000000000000000000000000000000000000000000000600052601160045260246000fd5b6000611b0f826117d7565b9150611b1a836117d7565b9250828201905080821115611b3257611b31611ad5565b5b92915050565b7f6d617820737570706c7920657863656564656400000000000000000000000000600082015250565b6000611b6e6013836116cd565b9150611b7982611b38565b602082019050919050565b60006020820190508181036000830152611b9d81611b61565b9050919050565b7f696e73756666696369656e742062616c616e6365000000000000000000000000600082015250565b6000611bda6014836116cd565b9150611be582611ba4565b602082019050919050565b60006020820190508181036000830152611c0981611bcd565b9050919050565b6000611c1b826117d7565b9150611c26836117d7565b9250828202611c34816117d7565b91508282048414831517611c4b57611c4a611ad5565b5b5092915050565b7f4e487b7100000000000000000000000000000000000000000000000000000000600052601260045260246000fd5b6000611c8c826117d7565b9150611c97836117d7565b925082611ca757611ca6611c52565b5b828204905092915050565b7f7a65726f20616d6f756e74000000000000000000000000000000000000000000600082015250565b6000611ce8600b836116cd565b9150611cf382611cb2565b602082019050919050565b60006020820190508181036000830152611d1781611cdb565b9050919050565b6000611d29826117d7565b9150611d34836117d7565b9250828203905081811115611d4c57611d4b611ad5565b5b92915050565b6000606082019050611d6760008301866119de565b611d7460208301856119de565b611d816040830184611883565b949350505050565b611d928161184d565b8114611d9d57600080fd5b50565b600081519050611daf81611d89565b92915050565b600060208284031215611dcb57611dca611774565b5b6000611dd984828501611da0565b91505092915050565b6000606082019050611df76000830186611883565b611e046020830185611883565b611e116040830184611883565b949350505050565b7f63616e6e6f7420726573637565204b4155530000000000000000000000000000600082015250565b6000611e4f6012836116cd565b9150611e5a82611e19565b602082019050919050565b60006020820190508181036000830152611e7e81611e42565b9050919050565b6000604082019050611e9a60008301856119de565b611ea76020830184611883565b9392505050565b7f7a65726f20616464726573730000000000000000000000000000000000000000600082015250565b6000611ee4600c836116cd565b9150611eef82611eae565b602082019050919050565b60006020820190508181036000830152611f1381611ed7565b9050919050565b6000606082019050611f2f60008301866119de565b611f3c6020830185611883565b611f496040830184611883565b94935050505056fea264697066735822122086dd9703b628547c8fe33267103ad7276280c23646a6e50fa6cc1d1ba763f04d64736f6c63430008140033",
  "linkReferences": {},
  "deployedLinkReferences": {}
}