{
  "_format": "hh-sol-artifact-1",
  "contractName": "KAUSTokenV2",
  "sourceName": "contracts/KAUSTokenV2.sol",
  "abi": [
    {
      "inputs": [
        {
          "internalType": "address",
          "name": "_usdc",
          "type": "address"
        },
        {
          "internalType": "address",
          "name": "_feeRecipient",
          "type": "address"
        }
      ],
      "stateMutability": "nonpayable",
      "type": "constructor"
    },
    {
      "inputs": [
        {
          "internalType": "address",
          "name": "spender",
          "type": "address"
        },
        {
          "internalType": "uint256",
          "name": "allowance",
          "type": "uint256"
        },
        {
          "internalType": "uint256",
          "name": "needed",
          "type": "uint256"
        }
      ],
      "name": "ERC20InsufficientAllowance",
      "type": "error"
    },
    {
      "inputs": [
        {
          "internalType": "address",
          "name": "sender",
          "type": "address"
        },
        {
          "internalType": "uint256",
          "name": "balance",
          "type": "uint256"
        },
        {
          "internalType": "uint256",
          "name": "needed",
          "type": "uint256"
        }
      ],
      "name": "ERC20InsufficientBalance",
      "type": "error"
    },
    {
      "inputs": [
        {
          "internalType": "address",
          "name": "approver",
          "type": "address"
        }
      ],
      "name": "ERC20InvalidApprover",
      "type": "error"
    },
    {
      "inputs": [
        {
          "internalType": "address",
          "name": "receiver",
          "type": "address"
        }
      ],
      "name": "ERC20InvalidReceiver",
      "type": "error"
    },
    {
      "inputs": [
        {
          "internalType": "address",
          "name": "sender",
          "type": "address"
        }
      ],
      "name": "ERC20InvalidSender",
      "type": "error"
    },
    {
      "inputs": [
        {
          "internalType": "address",
          "name": "spender",
          "type": "address"
        }
      ],
      "name": "ERC20InvalidSpender",
      "type": "error"
    },
    {
      "inputs": [],
      "name": "EnforcedPause",
      "type": "error"
    },
    {
      "inputs": [],
      "name": "ExpectedPause",
      "type": "error"
    },
    {
      "inputs": [
        {
          "internalType": "address",
          "name": "owner",
          "type": "address"
        }
      ],
      "name": "OwnableInvalidOwner",
      "type": "error"
    },
    {
      "inputs": [
        {
          "internalType": "address",
          "name": "account",
          "type": "address"
        }
      ],
      "name": "OwnableUnauthorizedAccount",
      "type": "error"
    },
    {
      "anonymous": false,
      "inputs": [
        {
          "indexed": true,
          "internalType": "address",
          "name": "owner",
          "type": "address"
        },
        {
          "indexed": true,
          "internalType": "address",
          "name": "spender",
          "type": "address"
        },
        {
          "indexed": false,
          "internalType": "uint256",
          "name": "value",
          "type": "uint256"
        }
      ],
      "name": "Approval",
      "type": "event"
    },
    {
      "anonymous": false,
      "inputs": [
        {
          "indexed": true,
          "internalType": "address",
          "name": "newRecipient",
          "type": "address"
        }
      ],
      "name": "FeeRecipientUpdated",
      "type": "event"
    },
    {
      "anonymous": false,
      "inputs": [
        {
          "indexed": true,
          "internalType": "address",
          "name": "previousOwner",
          "type": "address"
        },
        {
          "indexed": true,
          "internalType": "address",
          "name": "newOwner",
          "type": "address"
        }
      ],
      "name": "OwnershipTransferred",
      "type": "event"
    },
    {
      "anonymous": false,
      "inputs": [
        {
          "indexed": false,
          "internalType": "address",
          "name": "account",
          "type": "address"
        }
      ],
      "name": "Paused",
      "type": "event"
    },
    {
      "anonymous": false,
      "inputs": [
        {
          "indexed": true,
          "internalType": "address",
          "name": "buyer",
          "type": "address"
        },
        {
          "indexed": false,
          "internalType": "uint256",
          "name": "usdcAmount",
          "type": "uint256"
        },
        {
          "indexed": false,
          "internalType": "uint256",
          "name": "kausAmount",
          "type": "uint256"
        },
        {
          "indexed": false,
          "internalType": "uint256",
          "name": "fee",
          "type": "uint256"
        }
      ],
      "name": "Purchase",
      "type": "event"
    },
    {
      "anonymous": false,
      "inputs": [
        {
          "indexed": true,
          "internalType": "address",
          "name": "from",
          "type": "address"
        },
        {
          "indexed": true,
          "internalType": "address",
          "name": "to",
          "type": "address"
        },
        {
          "indexed": false,
          "internalType": "uint256",
          "name": "value",
          "type": "uint256"
        }
      ],
      "name": "Transfer",
      "type": "event"
    },
    {
      "anonymous": false,
      "inputs": [
        {
          "indexed": false,
          "internalType": "address",
          "name": "account",
          "type": "address"
        }
      ],
      "name": "Unpaused",
      "type": "event"
    },
    {
      "inputs": [],
      "name": "FEE_BPS",
      "outputs": [
        {
          "internalType": "uint256",
          "name": "",
          "type": "uint256"
        }
      ],
      "stateMutability": "view",
      "type": "function"
    },
    {
      "inputs": [],
      "name": "MAX_SUPPLY",
      "outputs": [
        {
          "internalType": "uint256",
          "name": "",
          "type": "uint256"
        }
      ],
      "stateMutability": "view",
      "type": "function"
    },
    {
      "inputs": [
        {
          "internalType": "address",
          "name": "owner",
          "type": "address"
        },
        {
          "internalType": "address",
          "name": "spender",
          "type": "address"
        }
      ],
      "name": "allowance",
      "outputs": [
        {
          "internalType": "uint256",
          "name": "",
          "type": "uint256"
        }
      ],
      "stateMutability": "view",
      "type": "function"
    },
    {
      "inputs": [
        {
          "internalType": "address",
          "name": "spender",
          "type": "address"
        },
        {
          "internalType": "uint256",
          "name": "value",
          "type": "uint256"
        }
      ],
      "name": "approve",
      "outputs": [
        {
          "internalType": "bool",
          "name": "",
          "type": "bool"
        }
      ],
      "stateMutability": "nonpayable",
      "type": "function"
    },
    {
      "inputs": [
        {
          "internalType": "address",
          "name": "account",
          "type": "address"
        }
      ],
      "name": "balanceOf",
      "outputs": [
        {
          "internalType": "uint256",
          "name": "",
          "type": "uint256"
        }
      ],
      "stateMutability": "view",
      "type": "function"
    },
    {
      "inputs": [
        {
          "internalType": "uint256",
          "name": "usdcAmount",
          "type": "uint256"
        }
      ],
      "name": "buyWithUSDC",
      "outputs": [],
      "stateMutability": "nonpayable",
      "type": "function"
    },
    {
      "inputs": [],
      "name": "decimals",
      "outputs": [
        {
          "internalType": "uint8",
          "name": "",
          "type": "uint8"
        }
      ],
      "stateMutability": "view",
      "type": "function"
    },
    {
      "inputs": [],
      "name": "feeRecipient",
      "outputs": [
        {
          "internalType": "address",
          "name": "",
          "type": "address"
        }
      ],
      "stateMutability": "view",
      "type": "function"
    },
    {
      "inputs": [],
      "name": "name",
      "outputs": [
        {
          "internalType": "string",
          "name": "",
          "type": "string"
        }
      ],
      "stateMutability": "view",
      "type": "function"
    },
    {
      "inputs": [],
      "name": "owner",
      "outputs": [
        {
          "internalType": "address",
          "name": "",
          "type": "address"
        }
      ],
      "stateMutability": "view",
      "type": "function"
    },
    {
      "inputs": [],
      "name": "pause",
      "outputs": [],
      "stateMutability": "nonpayable",
      "type": "function"
    },
    {
      "inputs": [],
      "name": "paused",
      "outputs": [
        {
          "internalType": "bool",
          "name": "",
          "type": "bool"
        }
      ],
      "stateMutability": "view",
      "type": "function"
    },
    {
      "inputs": [],
      "name": "renounceOwnership",
      "outputs": [],
      "stateMutability": "nonpayable",
      "type": "function"
    },
    {
      "inputs": [
        {
          "internalType": "address",
          "name": "_fr",
          "type": "address"
        }
      ],
      "name": "setFeeRecipient",
      "outputs": [],
      "stateMutability": "nonpayable",
      "type": "function"
    },
    {
      "inputs": [],
      "name": "symbol",
      "outputs": [
        {
          "internalType": "string",
          "name": "",
          "type": "string"
        }
      ],
      "stateMutability": "view",
      "type": "function"
    },
    {
      "inputs": [],
      "name": "totalFeesCollected",
      "outputs": [
        {
          "internalType": "uint256",
          "name": "",
          "type": "uint256"
        }
      ],
      "stateMutability": "view",
      "type": "function"
    },
    {
      "inputs": [],
      "name": "totalSupply",
      "outputs": [
        {
          "internalType": "uint256",
          "name": "",
          "type": "uint256"
        }
      ],
      "stateMutability": "view",
      "type": "function"
    },
    {
      "inputs": [
        {
          "internalType": "address",
          "name": "to",
          "type": "address"
        },
        {
          "internalType": "uint256",
          "name": "value",
          "type": "uint256"
        }
      ],
      "name": "transfer",
      "outputs": [
        {
          "internalType": "bool",
          "name": "",
          "type": "bool"
        }
      ],
      "stateMutability": "nonpayable",
      "type": "function"
    },
    {
      "inputs": [
        {
          "internalType": "address",
          "name": "from",
          "type": "address"
        },
        {
          "internalType": "address",
          "name": "to",
          "type": "address"
        },
        {
          "internalType": "uint256",
          "name": "value",
          "type": "uint256"
        }
      ],
      "name": "transferFrom",
      "outputs": [
        {
          "internalType": "bool",
          "name": "",
          "type": "bool"
        }
      ],
      "stateMutability": "nonpayable",
      "type": "function"
    },
    {
      "inputs": [
        {
          "internalType": "address",
          "name": "newOwner",
          "type": "address"
        }
      ],
      "name": "transferOwnership",
      "outputs": [],
      "stateMutability": "nonpayable",
      "type": "function"
    },
    {
      "inputs": [],
      "name": "unpause",
      "outputs": [],
      "stateMutability": "nonpayable",
      "type": "function"
    },
    {
      "inputs": [],
      "name": "usdc",
      "outputs": [
        {
          "internalType": "contract IERC20",
          "name": "",
          "type": "address"
        }
      ],
      "stateMutability": "view",
      "type": "function"
    }
  ],
  "bytecode": "0x60a06040523480156200001157600080fd5b506040516200272438038062002724833981810160405281019062000037919062000661565b336040518060400160405280600a81526020017f4b41555320546f6b656e000000000000000000000000000000000000000000008152506040518060400160405280600481526020017f4b415553000000000000000000000000000000000000000000000000000000008152508160039081620000b5919062000922565b508060049081620000c7919062000922565b505050600073ffffffffffffffffffffffffffffffffffffffff168173ffffffffffffffffffffffffffffffffffffffff16036200013f5760006040517f1e4fbdf700000000000000000000000000000000000000000000000000000000815260040162000136919062000a1a565b60405180910390fd5b6200015081620001eb60201b60201c565b508173ffffffffffffffffffffffffffffffffffffffff1660808173ffffffffffffffffffffffffffffffffffffffff168152505080600660006101000a81548173ffffffffffffffffffffffffffffffffffffffff021916908373ffffffffffffffffffffffffffffffffffffffff160217905550620001e3336a084595161401484a000000620002b160201b60201c565b505062000b0c565b6000600560009054906101000a900473ffffffffffffffffffffffffffffffffffffffff16905081600560006101000a81548173ffffffffffffffffffffffffffffffffffffffff021916908373ffffffffffffffffffffffffffffffffffffffff1602179055508173ffffffffffffffffffffffffffffffffffffffff168173ffffffffffffffffffffffffffffffffffffffff167f8be0079c531659141344cd1fd0a4f28419497f9722a3daafe3b4186f6b6457e060405160405180910390a35050565b600073ffffffffffffffffffffffffffffffffffffffff168273ffffffffffffffffffffffffffffffffffffffff1603620003265760006040517fec442f050000000000000000000000000000000000000000000000000000000081526004016200031d919062000a1a565b60405180910390fd5b6200033a600083836200033e60201b60201c565b5050565b6200034e6200036660201b60201c565b62000361838383620003b060201b60201c565b505050565b62000376620005e060201b60201c565b15620003ae576040517fd93c066500000000000000000000000000000000000000000000000000000000815260040160405180910390fd5b565b600073ffffffffffffffffffffffffffffffffffffffff168373ffffffffffffffffffffffffffffffffffffffff160362000406578060026000828254620003f9919062000a66565b92505081905550620004dc565b60008060008573ffffffffffffffffffffffffffffffffffffffff1673ffffffffffffffffffffffffffffffffffffffff1681526020019081526020016000205490508181101562000495578381836040517fe450d38c0000000000000000000000000000000000000000000000000000000081526004016200048c9392919062000ab2565b60405180910390fd5b8181036000808673ffffffffffffffffffffffffffffffffffffffff1673ffffffffffffffffffffffffffffffffffffffff16815260200190815260200160002081905550505b600073ffffffffffffffffffffffffffffffffffffffff168273ffffffffffffffffffffffffffffffffffffffff160362000527578060026000828254039250508190555062000574565b806000808473ffffffffffffffffffffffffffffffffffffffff1673ffffffffffffffffffffffffffffffffffffffff168152602001908152602001600020600082825401925050819055505b8173ffffffffffffffffffffffffffffffffffffffff168373ffffffffffffffffffffffffffffffffffffffff167fddf252ad1be2c89b69c2b068fc378daa952ba7f163c4a11628f55a4df523b3ef83604051620005d3919062000aef565b60405180910390a3505050565b6000600560149054906101000a900460ff16905090565b600080fd5b600073ffffffffffffffffffffffffffffffffffffffff82169050919050565b60006200062982620005fc565b9050919050565b6200063b816200061c565b81146200064757600080fd5b50565b6000815190506200065b8162000630565b92915050565b600080604083850312156200067b576200067a620005f7565b5b60006200068b858286016200064a565b92505060206200069e858286016200064a565b9150509250929050565b600081519050919050565b7f4e487b7100000000000000000000000000000000000000000000000000000000600052604160045260246000fd5b7f4e487b7100000000000000000000000000000000000000000000000000000000600052602260045260246000fd5b600060028204905060018216806200072a57607f821691505b60208210810362000740576200073f620006e2565b5b50919050565b60008190508160005260206000209050919050565b60006020601f8301049050919050565b600082821b905092915050565b600060088302620007aa7fffffffffffffffffffffffffffffffffffffffffffffffffffffffffffffffff826200076b565b620007b686836200076b565b95508019841693508086168417925050509392505050565b6000819050919050565b6000819050919050565b600062000803620007fd620007f784620007ce565b620007d8565b620007ce565b9050919050565b6000819050919050565b6200081f83620007e2565b620008376200082e826200080a565b84845462000778565b825550505050565b600090565b6200084e6200083f565b6200085b81848462000814565b505050565b5b8181101562000883576200087760008262000844565b60018101905062000861565b5050565b601f821115620008d2576200089c8162000746565b620008a7846200075b565b81016020851015620008b7578190505b620008cf620008c6856200075b565b83018262000860565b50505b505050565b600082821c905092915050565b6000620008f760001984600802620008d7565b1980831691505092915050565b6000620009128383620008e4565b9150826002028217905092915050565b6200092d82620006a8565b67ffffffffffffffff811115620009495762000948620006b3565b5b62000955825462000711565b6200096282828562000887565b600060209050601f8311600181146200099a576000841562000985578287015190505b62000991858262000904565b86555062000a01565b601f198416620009aa8662000746565b60005b82811015620009d457848901518255600182019150602085019450602081019050620009ad565b86831015620009f45784890151620009f0601f891682620008e4565b8355505b6001600288020188555050505b505050505050565b62000a14816200061c565b82525050565b600060208201905062000a31600083018462000a09565b92915050565b7f4e487b7100000000000000000000000000000000000000000000000000000000600052601160045260246000fd5b600062000a7382620007ce565b915062000a8083620007ce565b925082820190508082111562000a9b5762000a9a62000a37565b5b92915050565b62000aac81620007ce565b82525050565b600060608201905062000ac9600083018662000a09565b62000ad8602083018562000aa1565b62000ae7604083018462000aa1565b949350505050565b600060208201905062000b06600083018462000aa1565b92915050565b608051611bee62000b36600039600081816104fb015281816107aa01526108af0152611bee6000f3fe608060405234801561001057600080fd5b50600436106101425760003560e01c806370a08231116100b8578063a9059cbb1161007c578063a9059cbb14610321578063aeccf73514610351578063bf333f2c1461036d578063dd62ed3e1461038b578063e74b981b146103bb578063f2fde38b146103d757610142565b806370a08231146102a1578063715018a6146102d15780638456cb59146102db5780638da5cb5b146102e557806395d89b411461030357610142565b806332cb6b0c1161010a57806332cb6b0c146102015780633e413bee1461021f5780633f4ba83a1461023d57806346904840146102475780635c975abb1461026557806360c6d8ae1461028357610142565b806306fdde0314610147578063095ea7b31461016557806318160ddd1461019557806323b872dd146101b3578063313ce567146101e3575b600080fd5b61014f6103f3565b60405161015c91906114fd565b60405180910390f35b61017f600480360381019061017a91906115b8565b610485565b60405161018c9190611613565b60405180910390f35b61019d6104a8565b6040516101aa919061163d565b60405180910390f35b6101cd60048036038101906101c89190611658565b6104b2565b6040516101da9190611613565b60405180910390f35b6101eb6104e1565b6040516101f891906116c7565b60405180910390f35b6102096104ea565b604051610216919061163d565b60405180910390f35b6102276104f9565b6040516102349190611741565b60405180910390f35b61024561051d565b005b61024f61052f565b60405161025c919061176b565b60405180910390f35b61026d610555565b60405161027a9190611613565b60405180910390f35b61028b61056c565b604051610298919061163d565b60405180910390f35b6102bb60048036038101906102b69190611786565b610572565b6040516102c8919061163d565b60405180910390f35b6102d96105ba565b005b6102e36105ce565b005b6102ed6105e0565b6040516102fa919061176b565b60405180910390f35b61030b61060a565b60405161031891906114fd565b60405180910390f35b61033b600480360381019061033691906115b8565b61069c565b6040516103489190611613565b60405180910390f35b61036b600480360381019061036691906117b3565b6106bf565b005b6103756109ff565b604051610382919061163d565b60405180910390f35b6103a560048036038101906103a091906117e0565b610a04565b6040516103b2919061163d565b60405180910390f35b6103d560048036038101906103d09190611786565b610a8b565b005b6103f160048036038101906103ec9190611786565b610b1a565b005b6060600380546104029061184f565b80601f016020809104026020016040519081016040528092919081815260200182805461042e9061184f565b801561047b5780601f106104505761010080835404028352916020019161047b565b820191906000526020600020905b81548152906001019060200180831161045e57829003601f168201915b5050505050905090565b600080610490610ba0565b905061049d818585610ba8565b600191505092915050565b6000600254905090565b6000806104bd610ba0565b90506104ca858285610bba565b6104d5858585610c4f565b60019150509392505050565b60006012905090565b6a52b7d2dcc80cd2e400000081565b7f000000000000000000000000000000000000000000000000000000000000000081565b610525610d43565b61052d610dca565b565b600660009054906101000a900473ffffffffffffffffffffffffffffffffffffffff1681565b6000600560149054906101000a900460ff16905090565b60075481565b60008060008373ffffffffffffffffffffffffffffffffffffffff1673ffffffffffffffffffffffffffffffffffffffff168152602001908152602001600020549050919050565b6105c2610d43565b6105cc6000610e2d565b565b6105d6610d43565b6105de610ef3565b565b6000600560009054906101000a900473ffffffffffffffffffffffffffffffffffffffff16905090565b6060600480546106199061184f565b80601f01602080910402602001604051908101604052809291908181526020018280546106459061184f565b80156106925780601f1061066757610100808354040283529160200191610692565b820191906000526020600020905b81548152906001019060200180831161067557829003601f168201915b5050505050905090565b6000806106a7610ba0565b90506106b4818585610c4f565b600191505092915050565b6106c7610f56565b6000811161070a576040517f08c379a0000000000000000000000000000000000000000000000000000000008152600401610701906118cc565b60405180910390fd5b6000612710600a8361071c919061191b565b610726919061198c565b90506000818361073691906119bd565b90506a52b7d2dcc80cd2e400000064e8d4a5100082610755919061191b565b61075d6104a8565b61076791906119f1565b11156107a8576040517f08c379a000000000000000000000000000000000000000000000000000000000815260040161079f90611a71565b60405180910390fd5b7f000000000000000000000000000000000000000000000000000000000000000073ffffffffffffffffffffffffffffffffffffffff166323b872dd3330866040518463ffffffff1660e01b815260040161080593929190611a91565b6020604051808303816000875af1158015610824573d6000803e3d6000fd5b505050506040513d601f19601f820116820180604052508101906108489190611af4565b506000821180156108a85750600073ffffffffffffffffffffffffffffffffffffffff16600660009054906101000a900473ffffffffffffffffffffffffffffffffffffffff1673ffffffffffffffffffffffffffffffffffffffff1614155b1561096f577f000000000000000000000000000000000000000000000000000000000000000073ffffffffffffffffffffffffffffffffffffffff1663a9059cbb600660009054906101000a900473ffffffffffffffffffffffffffffffffffffffff16846040518363ffffffff1660e01b815260040161092a929190611b21565b6020604051808303816000875af1158015610949573d6000803e3d6000fd5b505050506040513d601f19601f8201168201806040525081019061096d9190611af4565b505b600064e8d4a5100082610982919061191b565b9050826007600082825461099691906119f1565b925050819055506109a73382610f97565b3373ffffffffffffffffffffffffffffffffffffffff167f5bc97d73357ac0d035d4b9268a69240988a5776b8a4fcced3dbc223960123f408583866040516109f193929190611b4a565b60405180910390a250505050565b600a81565b6000600160008473ffffffffffffffffffffffffffffffffffffffff1673ffffffffffffffffffffffffffffffffffffffff16815260200190815260200160002060008373ffffffffffffffffffffffffffffffffffffffff1673ffffffffffffffffffffffffffffffffffffffff16815260200190815260200160002054905092915050565b610a93610d43565b80600660006101000a81548173ffffffffffffffffffffffffffffffffffffffff021916908373ffffffffffffffffffffffffffffffffffffffff1602179055508073ffffffffffffffffffffffffffffffffffffffff167f7a7b5a0a132f9e0581eb8527f66eae9ee89c2a3e79d4ac7e41a1f1f4d48a7fc260405160405180910390a250565b610b22610d43565b600073ffffffffffffffffffffffffffffffffffffffff168173ffffffffffffffffffffffffffffffffffffffff1603610b945760006040517f1e4fbdf7000000000000000000000000000000000000000000000000000000008152600401610b8b919061176b565b60405180910390fd5b610b9d81610e2d565b50565b600033905090565b610bb58383836001611019565b505050565b6000610bc68484610a04565b90507fffffffffffffffffffffffffffffffffffffffffffffffffffffffffffffffff811015610c495781811015610c39578281836040517ffb8f41b2000000000000000000000000000000000000000000000000000000008152600401610c3093929190611b81565b60405180910390fd5b610c4884848484036000611019565b5b50505050565b600073ffffffffffffffffffffffffffffffffffffffff168373ffffffffffffffffffffffffffffffffffffffff1603610cc15760006040517f96c6fd1e000000000000000000000000000000000000000000000000000000008152600401610cb8919061176b565b60405180910390fd5b600073ffffffffffffffffffffffffffffffffffffffff168273ffffffffffffffffffffffffffffffffffffffff1603610d335760006040517fec442f05000000000000000000000000000000000000000000000000000000008152600401610d2a919061176b565b60405180910390fd5b610d3e8383836111f0565b505050565b610d4b610ba0565b73ffffffffffffffffffffffffffffffffffffffff16610d696105e0565b73ffffffffffffffffffffffffffffffffffffffff1614610dc857610d8c610ba0565b6040517f118cdaa7000000000000000000000000000000000000000000000000000000008152600401610dbf919061176b565b60405180910390fd5b565b610dd2611208565b6000600560146101000a81548160ff0219169083151502179055507f5db9ee0a495bf2e6ff9c91a7834c1ba4fdd244a5e8aa4e537bd38aeae4b073aa610e16610ba0565b604051610e23919061176b565b60405180910390a1565b6000600560009054906101000a900473ffffffffffffffffffffffffffffffffffffffff16905081600560006101000a81548173ffffffffffffffffffffffffffffffffffffffff021916908373ffffffffffffffffffffffffffffffffffffffff1602179055508173ffffffffffffffffffffffffffffffffffffffff168173ffffffffffffffffffffffffffffffffffffffff167f8be0079c531659141344cd1fd0a4f28419497f9722a3daafe3b4186f6b6457e060405160405180910390a35050565b610efb610f56565b6001600560146101000a81548160ff0219169083151502179055507f62e78cea01bee320cd4e420270b5ea74000d11b0c9f74754ebdbfc544b05a258610f3f610ba0565b604051610f4c919061176b565b60405180910390a1565b610f5e610555565b15610f95576040517fd93c066500000000000000000000000000000000000000000000000000000000815260040160405180910390fd5b565b600073ffffffffffffffffffffffffffffffffffffffff168273ffffffffffffffffffffffffffffffffffffffff16036110095760006040517fec442f05000000000000000000000000000000000000000000000000000000008152600401611000919061176b565b60405180910390fd5b611015600083836111f0565b5050565b600073ffffffffffffffffffffffffffffffffffffffff168473ffffffffffffffffffffffffffffffffffffffff160361108b5760006040517fe602df05000000000000000000000000000000000000000000000000000000008152600401611082919061176b565b60405180910390fd5b600073ffffffffffffffffffffffffffffffffffffffff168373ffffffffffffffffffffffffffffffffffffffff16036110fd5760006040517f94280d620000000000000000000000000000000000000000000000000000000081526004016110f4919061176b565b60405180910390fd5b81600160008673ffffffffffffffffffffffffffffffffffffffff1673ffffffffffffffffffffffffffffffffffffffff16815260200190815260200160002060008573ffffffffffffffffffffffffffffffffffffffff1673ffffffffffffffffffffffffffffffffffffffff1681526020019081526020016000208190555080156111ea578273ffffffffffffffffffffffffffffffffffffffff168473ffffffffffffffffffffffffffffffffffffffff167f8c5be1e5ebec7d5bd14f71427d1e84f3dd0314c0f7b2291e5b200ac8c7c3b925846040516111e1919061163d565b60405180910390a35b50505050565b6111f8610f56565b611203838383611248565b505050565b611210610555565b611246576040517f8dfc202b00000000000000000000000000000000000000000000000000000000815260040160405180910390fd5b565b600073ffffffffffffffffffffffffffffffffffffffff168373ffffffffffffffffffffffffffffffffffffffff160361129a57806002600082825461128e91906119f1565b9250508190555061136d565b60008060008573ffffffffffffffffffffffffffffffffffffffff1673ffffffffffffffffffffffffffffffffffffffff16815260200190815260200160002054905081811015611326578381836040517fe450d38c00000000000000000000000000000000000000000000000000000000815260040161131d93929190611b81565b60405180910390fd5b8181036000808673ffffffffffffffffffffffffffffffffffffffff1673ffffffffffffffffffffffffffffffffffffffff16815260200190815260200160002081905550505b600073ffffffffffffffffffffffffffffffffffffffff168273ffffffffffffffffffffffffffffffffffffffff16036113b65780600260008282540392505081905550611403565b806000808473ffffffffffffffffffffffffffffffffffffffff1673ffffffffffffffffffffffffffffffffffffffff168152602001908152602001600020600082825401925050819055505b8173ffffffffffffffffffffffffffffffffffffffff168373ffffffffffffffffffffffffffffffffffffffff167fddf252ad1be2c89b69c2b068fc378daa952ba7f163c4a11628f55a4df523b3ef83604051611460919061163d565b60405180910390a3505050565b600081519050919050565b600082825260208201905092915050565b60005b838110156114a757808201518184015260208101905061148c565b60008484015250505050565b6000601f19601f8301169050919050565b60006114cf8261146d565b6114d98185611478565b93506114e9818560208601611489565b6114f2816114b3565b840191505092915050565b6000602082019050818103600083015261151781846114c4565b905092915050565b600080fd5b600073ffffffffffffffffffffffffffffffffffffffff82169050919050565b600061154f82611524565b9050919050565b61155f81611544565b811461156a57600080fd5b50565b60008135905061157c81611556565b92915050565b6000819050919050565b61159581611582565b81146115a057600080fd5b50565b6000813590506115b28161158c565b92915050565b600080604083850312156115cf576115ce61151f565b5b60006115dd8582860161156d565b92505060206115ee858286016115a3565b9150509250929050565b60008115159050919050565b61160d816115f8565b82525050565b60006020820190506116286000830184611604565b92915050565b61163781611582565b82525050565b6000602082019050611652600083018461162e565b92915050565b6000806000606084860312156116715761167061151f565b5b600061167f8682870161156d565b93505060206116908682870161156d565b92505060406116a1868287016115a3565b9150509250925092565b600060ff82169050919050565b6116c1816116ab565b82525050565b60006020820190506116dc60008301846116b8565b92915050565b6000819050919050565b60006117076117026116fd84611524565b6116e2565b611524565b9050919050565b6000611719826116ec565b9050919050565b600061172b8261170e565b9050919050565b61173b81611720565b82525050565b60006020820190506117566000830184611732565b92915050565b61176581611544565b82525050565b6000602082019050611780600083018461175c565b92915050565b60006020828403121561179c5761179b61151f565b5b60006117aa8482850161156d565b91505092915050565b6000602082840312156117c9576117c861151f565b5b60006117d7848285016115a3565b91505092915050565b600080604083850312156117f7576117f661151f565b5b60006118058582860161156d565b92505060206118168582860161156d565b9150509250929050565b7f4e487b7100000000000000000000000000000000000000000000000000000000600052602260045260246000fd5b6000600282049050600182168061186757607f821691505b60208210810361187a57611879611820565b5b50919050565b7f416d6f756e74206d757374206265203e20300000000000000000000000000000600082015250565b60006118b6601283611478565b91506118c182611880565b602082019050919050565b600060208201905081810360008301526118e5816118a9565b9050919050565b7f4e487b7100000000000000000000000000000000000000000000000000000000600052601160045260246000fd5b600061192682611582565b915061193183611582565b925082820261193f81611582565b91508282048414831517611956576119556118ec565b5b5092915050565b7f4e487b7100000000000000000000000000000000000000000000000000000000600052601260045260246000fd5b600061199782611582565b91506119a283611582565b9250826119b2576119b161195d565b5b828204905092915050565b60006119c882611582565b91506119d383611582565b92508282039050818111156119eb576119ea6118ec565b5b92915050565b60006119fc82611582565b9150611a0783611582565b9250828201905080821115611a1f57611a1e6118ec565b5b92915050565b7f45786365656473206d617820737570706c790000000000000000000000000000600082015250565b6000611a5b601283611478565b9150611a6682611a25565b602082019050919050565b60006020820190508181036000830152611a8a81611a4e565b9050919050565b6000606082019050611aa6600083018661175c565b611ab3602083018561175c565b611ac0604083018461162e565b949350505050565b611ad1816115f8565b8114611adc57600080fd5b50565b600081519050611aee81611ac8565b92915050565b600060208284031215611b0a57611b0961151f565b5b6000611b1884828501611adf565b91505092915050565b6000604082019050611b36600083018561175c565b611b43602083018461162e565b9392505050565b6000606082019050611b5f600083018661162e565b611b6c602083018561162e565b611b79604083018461162e565b949350505050565b6000606082019050611b96600083018661175c565b611ba3602083018561162e565b611bb0604083018461162e565b94935050505056fea2646970667358221220dfb4c71ffe9079843416db2c97c2285a7a299427240d4d780e7ed22c7718811664736f6c63430008140033",
  "linkReferences": {},
  "deployedLinkReferences": {}
}