{"contracts/KAUSToken.sol":{"KAUSToken":{"abi":[{"inputs":[{"internalType":"address","name":"_treasury","type":"address"},{"internalType":"address","name":"_feeCollector","type":"address"}],"stateMutability":"nonpayable","type":"constructor"},{"inputs":[],"name":"AccessControlBadConfirmation","type":"error"},{"inputs":[{"internalType":"address","name":"account","type":"address"},{"internalType":"bytes32","name":"neededRole","type":"bytes32"}],"name":"AccessControlUnauthorizedAccount","type":"error"},{"inputs":[],"name":"ECDSAInvalidSignature","type":"error"},{"inputs":[{"internalType":"uint256","name":"length","type":"uint256"}],"name":"ECDSAInvalidSignatureLength","type":"error"},{"inputs":[{"internalType":"bytes32","name":"s","type":"bytes32"}],"name":"ECDSAInvalidSignatureS","type":"error"},{"inputs":[{"internalType":"address","name":"spender","type":"address"},{"internalType":"uint256","name":"allowance","type":"uint256"},{"internalType":"uint256","name":"needed","type":"uint256"}],"name":"ERC20InsufficientAllowance","type":"error"},{"inputs":[{"internalType":"address","name":"sender","type":"address"},{"internalType":"uint256","name":"balance","type":"uint256"},{"internalType":"uint256","name":"needed","type":"uint256"}],"name":"ERC20InsufficientBalance","type":"error"},{"inputs":[{"internalType":"address","name":"approver","type":"address"}],"name":"ERC20InvalidApprover","type":"error"},{"inputs":[{"internalType":"address","name":"receiver","type":"address"}],"name":"ERC20InvalidReceiver","type":"error"},{"inputs":[{"internalType":"address","name":"sender","type":"address"}],"name":"ERC20InvalidSender","type":"error"},{"inputs":[{"internalType":"address","name":"spender","type":"address"}],"name":"ERC20InvalidSpender","type":"error"},{"inputs":[{"internalType":"uint256","name":"deadline","type":"uint256"}],"name":"ERC2612ExpiredSignature","type":"error"},{"inputs":[{"internalType":"address","name":"signer","type":"address"},{"internalType":"address","name":"owner","type":"address"}],"name":"ERC2612InvalidSigner","type":"error"},{"inputs":[],"name":"EnforcedPause","type":"error"},{"inputs":[],"name":"ExpectedPause","type":"error"},{"inputs":[{"internalType":"address","name":"account","type":"address"},{"internalType":"uint256","name":"currentNonce","type":"uint256"}],"name":"InvalidAccountNonce","type":"error"},{"inputs":[],"name":"InvalidShortString","type":"error"},{"inputs":[{"internalType":"string","name":"str","type":"string"}],"name":"StringTooLong","type":"error"},{"anonymous":false,"inputs":[{"indexed":true,"internalType":"address","name":"owner","type":"address"},{"indexed":true,"internalType":"address","name":"spender","type":"address"},{"indexed":false,"internalType":"uint256","name":"value","type":"uint256"}],"name":"Approval","type":"event"},{"anonymous":false,"inputs":[],"name":"EIP712DomainChanged","type":"event"},{"anonymous":false,"inputs":[{"indexed":true,"internalType":"address","name":"agent","type":"address"},{"indexed":false,"internalType":"uint256","name":"fee","type":"uint256"},{"indexed":false,"internalType":"string","name":"txId","type":"string"}],"name":"FeeCollected","type":"event"},{"anonymous":false,"inputs":[{"indexed":true,"internalType":"address","name":"agent","type":"address"},{"indexed":false,"internalType":"uint256","name":"slot","type":"uint256"}],"name":"GenesisMinted","type":"event"},{"anonymous":false,"inputs":[{"indexed":false,"internalType":"uint256","name":"burned","type":"uint256"},{"indexed":false,"internalType":"uint256","name":"distributed","type":"uint256"},{"indexed":false,"internalType":"uint256","name":"retained","type":"uint256"},{"indexed":false,"internalType":"uint256","name":"holderCount","type":"uint256"}],"name":"MonthlyDistribution","type":"event"},{"anonymous":false,"inputs":[{"indexed":false,"internalType":"address","name":"account","type":"address"}],"name":"Paused","type":"event"},{"anonymous":false,"inputs":[{"indexed":false,"internalType":"uint256","name":"oldPrice","type":"uint256"},{"indexed":false,"internalType":"uint256","name":"newPrice","type":"uint256"}],"name":"PriceUpdated","type":"event"},{"anonymous":false,"inputs":[{"indexed":true,"internalType":"bytes32","name":"role","type":"bytes32"},{"indexed":true,"internalType":"bytes32","name":"previousAdminRole","type":"bytes32"},{"indexed":true,"internalType":"bytes32","name":"newAdminRole","type":"bytes32"}],"name":"RoleAdminChanged","type":"event"},{"anonymous":false,"inputs":[{"indexed":true,"internalType":"bytes32","name":"role","type":"bytes32"},{"indexed":true,"internalType":"address","name":"account","type":"address"},{"indexed":true,"internalType":"address","name":"sender","type":"address"}],"name":"RoleGranted","type":"event"},{"anonymous":false,"inputs":[{"indexed":true,"internalType":"bytes32","name":"role","type":"bytes32"},{"indexed":true,"internalType":"address","name":"account","type":"address"},{"indexed":true,"internalType":"address","name":"sender","type":"address"}],"name":"RoleRevoked","type":"event"},{"anonymous":false,"inputs":[{"indexed":true,"internalType":"address","name":"from","type":"address"},{"indexed":true,"internalType":"address","name":"to","type":"address"},{"indexed":false,"internalType":"uint256","name":"value","type":"uint256"}],"name":"Transfer","type":"event"},{"anonymous":false,"inputs":[{"indexed":false,"internalType":"address","name":"account","type":"address"}],"name":"Unpaused","type":"event"},{"inputs":[],"name":"DEFAULT_ADMIN_ROLE","outputs":[{"internalType":"bytes32","name":"","type":"bytes32"}],"stateMutability":"view","type":"function"},{"inputs":[],"name":"DOMAIN_SEPARATOR","outputs":[{"internalType":"bytes32","name":"","type":"bytes32"}],"stateMutability":"view","type":"function"},{"inputs":[],"name":"FEE_ROLE","outputs":[{"internalType":"bytes32","name":"","type":"bytes32"}],"stateMutability":"view","type":"function"},{"inputs":[],"name":"GENESIS_MAX","outputs":[{"internalType":"uint256","name":"","type":"uint256"}],"stateMutability":"view","type":"function"},{"inputs":[],"name":"GENESIS_PRICE","outputs":[{"internalType":"uint256","name":"","type":"uint256"}],"stateMutability":"view","type":"function"},{"inputs":[],"name":"INITIAL_MINT","outputs":[{"internalType":"uint256","name":"","type":"uint256"}],"stateMutability":"view","type":"function"},{"inputs":[],"name":"MAX_SUPPLY","outputs":[{"internalType":"uint256","name":"","type":"uint256"}],"stateMutability":"view","type":"function"},{"inputs":[],"name":"MINTER_ROLE","outputs":[{"internalType":"bytes32","name":"","type":"bytes32"}],"stateMutability":"view","type":"function"},{"inputs":[],"name":"PAUSER_ROLE","outputs":[{"internalType":"bytes32","name":"","type":"bytes32"}],"stateMutability":"view","type":"function"},{"inputs":[{"internalType":"address","name":"owner","type":"address"},{"internalType":"address","name":"spender","type":"address"}],"name":"allowance","outputs":[{"internalType":"uint256","name":"","type":"uint256"}],"stateMutability":"view","type":"function"},{"inputs":[{"internalType":"address","name":"spender","type":"address"},{"internalType":"uint256","name":"value","type":"uint256"}],"name":"approve","outputs":[{"internalType":"bool","name":"","type":"bool"}],"stateMutability":"nonpayable","type":"function"},{"inputs":[{"internalType":"address","name":"account","type":"address"}],"name":"balanceOf","outputs":[{"internalType":"uint256","name":"","type":"uint256"}],"stateMutability":"view","type":"function"},{"inputs":[{"internalType":"uint256","name":"value","type":"uint256"}],"name":"burn","outputs":[],"stateMutability":"nonpayable","type":"function"},{"inputs":[{"internalType":"address","name":"account","type":"address"},{"internalType":"uint256","name":"value","type":"uint256"}],"name":"burnFrom","outputs":[],"stateMutability":"nonpayable","type":"function"},{"inputs":[],"name":"burnShare","outputs":[{"internalType":"uint256","name":"","type":"uint256"}],"stateMutability":"view","type":"function"},{"inputs":[{"internalType":"address","name":"agent","type":"address"},{"internalType":"uint256","name":"tradeAmountKAUS","type":"uint256"},{"internalType":"string","name":"txId","type":"string"}],"name":"collectFee","outputs":[{"internalType":"uint256","name":"fee","type":"uint256"}],"stateMutability":"nonpayable","type":"function"},{"inputs":[],"name":"decimals","outputs":[{"internalType":"uint8","name":"","type":"uint8"}],"stateMutability":"view","type":"function"},{"inputs":[],"name":"eip712Domain","outputs":[{"internalType":"bytes1","name":"fields","type":"bytes1"},{"internalType":"string","name":"name","type":"string"},{"internalType":"string","name":"version","type":"string"},{"internalType":"uint256","name":"chainId","type":"uint256"},{"internalType":"address","name":"verifyingContract","type":"address"},{"internalType":"bytes32","name":"salt","type":"bytes32"},{"internalType":"uint256[]","name":"extensions","type":"uint256[]"}],"stateMutability":"view","type":"function"},{"inputs":[],"name":"feeCollector","outputs":[{"internalType":"address","name":"","type":"address"}],"stateMutability":"view","type":"function"},{"inputs":[],"name":"feeRate","outputs":[{"internalType":"uint256","name":"","type":"uint256"}],"stateMutability":"view","type":"function"},{"inputs":[],"name":"genesisHolderCount","outputs":[{"internalType":"uint256","name":"","type":"uint256"}],"stateMutability":"view","type":"function"},{"inputs":[],"name":"genesisRemaining","outputs":[{"internalType":"uint256","name":"","type":"uint256"}],"stateMutability":"view","type":"function"},{"inputs":[{"internalType":"address","name":"","type":"address"}],"name":"genesisSlot","outputs":[{"internalType":"uint256","name":"","type":"uint256"}],"stateMutability":"view","type":"function"},{"inputs":[],"name":"genesisSold","outputs":[{"internalType":"uint256","name":"","type":"uint256"}],"stateMutability":"view","type":"function"},{"inputs":[{"internalType":"bytes32","name":"role","type":"bytes32"}],"name":"getRoleAdmin","outputs":[{"internalType":"bytes32","name":"","type":"bytes32"}],"stateMutability":"view","type":"function"},{"inputs":[{"internalType":"bytes32","name":"role","type":"bytes32"},{"internalType":"address","name":"account","type":"address"}],"name":"grantRole","outputs":[],"stateMutability":"nonpayable","type":"function"},{"inputs":[{"internalType":"bytes32","name":"role","type":"bytes32"},{"internalType":"address","name":"account","type":"address"}],"name":"hasRole","outputs":[{"internalType":"bool","name":"","type":"bool"}],"stateMutability":"view","type":"function"},{"inputs":[],"name":"holderShare","outputs":[{"internalType":"uint256","name":"","type":"uint256"}],"stateMutability":"view","type":"function"},{"inputs":[{"internalType":"address","name":"","type":"address"}],"name":"isGenesisMember","outputs":[{"internalType":"bool","name":"","type":"bool"}],"stateMutability":"view","type":"function"},{"inputs":[],"name":"kausPriceUSDC","outputs":[{"internalType":"uint256","name":"","type":"uint256"}],"stateMutability":"view","type":"function"},{"inputs":[{"internalType":"address","name":"to","type":"address"},{"internalType":"uint256","name":"amount","type":"uint256"}],"name":"mint","outputs":[],"stateMutability":"nonpayable","type":"function"},{"inputs":[],"name":"mintGenesis","outputs":[],"stateMutability":"nonpayable","type":"function"},{"inputs":[],"name":"monthlyDistribution","outputs":[],"stateMutability":"nonpayable","type":"function"},{"inputs":[],"name":"name","outputs":[{"internalType":"string","name":"","type":"string"}],"stateMutability":"view","type":"function"},{"inputs":[{"internalType":"address","name":"owner","type":"address"}],"name":"nonces","outputs":[{"internalType":"uint256","name":"","type":"uint256"}],"stateMutability":"view","type":"function"},{"inputs":[],"name":"pause","outputs":[],"stateMutability":"nonpayable","type":"function"},{"inputs":[],"name":"paused","outputs":[{"internalType":"bool","name":"","type":"bool"}],"stateMutability":"view","type":"function"},{"inputs":[{"internalType":"address","name":"owner","type":"address"},{"internalType":"address","name":"spender","type":"address"},{"internalType":"uint256","name":"value","type":"uint256"},{"internalType":"uint256","name":"deadline","type":"uint256"},{"internalType":"uint8","name":"v","type":"uint8"},{"internalType":"bytes32","name":"r","type":"bytes32"},{"internalType":"bytes32","name":"s","type":"bytes32"}],"name":"permit","outputs":[],"stateMutability":"nonpayable","type":"function"},{"inputs":[],"name":"platformStats","outputs":[{"internalType":"uint256","name":"supply","type":"uint256"},{"internalType":"uint256","name":"maxSupply","type":"uint256"},{"internalType":"uint256","name":"feesCollected","type":"uint256"},{"internalType":"uint256","name":"feesBurned","type":"uint256"},{"internalType":"uint256","name":"feesDistributed","type":"uint256"},{"internalType":"uint256","name":"trades","type":"uint256"},{"internalType":"uint256","name":"genesis","type":"uint256"},{"internalType":"uint256","name":"priceUSDC","type":"uint256"}],"stateMutability":"view","type":"function"},{"inputs":[],"name":"priceUSD","outputs":[{"internalType":"string","name":"","type":"string"}],"stateMutability":"view","type":"function"},{"inputs":[],"name":"remainingSupply","outputs":[{"internalType":"uint256","name":"","type":"uint256"}],"stateMutability":"view","type":"function"},{"inputs":[{"internalType":"bytes32","name":"role","type":"bytes32"},{"internalType":"address","name":"callerConfirmation","type":"address"}],"name":"renounceRole","outputs":[],"stateMutability":"nonpayable","type":"function"},{"inputs":[{"internalType":"bytes32","name":"role","type":"bytes32"},{"internalType":"address","name":"account","type":"address"}],"name":"revokeRole","outputs":[],"stateMutability":"nonpayable","type":"function"},{"inputs":[{"internalType":"uint256","name":"_burn","type":"uint256"},{"internalType":"uint256","name":"_holders","type":"uint256"}],"name":"setDistributionShares","outputs":[],"stateMutability":"nonpayable","type":"function"},{"inputs":[{"internalType":"address","name":"_new","type":"address"}],"name":"setFeeCollector","outputs":[],"stateMutability":"nonpayable","type":"function"},{"inputs":[{"internalType":"uint256","name":"_rate","type":"uint256"}],"name":"setFeeRate","outputs":[],"stateMutability":"nonpayable","type":"function"},{"inputs":[{"internalType":"uint256","name":"_priceUSDC6","type":"uint256"}],"name":"setPrice","outputs":[],"stateMutability":"nonpayable","type":"function"},{"inputs":[{"internalType":"address","name":"_new","type":"address"}],"name":"setTreasury","outputs":[],"stateMutability":"nonpayable","type":"function"},{"inputs":[{"internalType":"bytes4","name":"interfaceId","type":"bytes4"}],"name":"supportsInterface","outputs":[{"internalType":"bool","name":"","type":"bool"}],"stateMutability":"view","type":"function"},{"inputs":[],"name":"symbol","outputs":[{"internalType":"string","name":"","type":"string"}],"stateMutability":"view","type":"function"},{"inputs":[],"name":"totalFeesBurned","outputs":[{"internalType":"uint256","name":"","type":"uint256"}],"stateMutability":"view","type":"function"},{"inputs":[],"name":"totalFeesCollected","outputs":[{"internalType":"uint256","name":"","type":"uint256"}],"stateMutability":"view","type":"function"},{"inputs":[],"name":"totalFeesDistributed","outputs":[{"internalType":"uint256","name":"","type":"uint256"}],"stateMutability":"view","type":"function"},{"inputs":[],"name":"totalSupply","outputs":[{"internalType":"uint256","name":"","type":"uint256"}],"stateMutability":"view","type":"function"},{"inputs":[],"name":"totalTrades","outputs":[{"internalType":"uint256","name":"","type":"uint256"}],"stateMutability":"view","type":"function"},{"inputs":[],"name":"totalVolume","outputs":[{"internalType":"uint256","name":"","type":"uint256"}],"stateMutability":"view","type":"function"},{"inputs":[{"internalType":"address","name":"to","type":"address"},{"internalType":"uint256","name":"value","type":"uint256"}],"name":"transfer","outputs":[{"internalType":"bool","name":"","type":"bool"}],"stateMutability":"nonpayable","type":"function"},{"inputs":[{"internalType":"address","name":"safe","type":"address"}],"name":"transferAdminToSafe","outputs":[],"stateMutability":"nonpayable","type":"function"},{"inputs":[{"internalType":"address","name":"from","type":"address"},{"internalType":"address","name":"to","type":"address"},{"internalType":"uint256","name":"value","type":"uint256"}],"name":"transferFrom","outputs":[{"internalType":"bool","name":"","type":"bool"}],"stateMutability":"nonpayable","type":"function"},{"inputs":[],"name":"treasury","outputs":[{"internalType":"address","name":"","type":"address"}],"stateMutability":"view","type":"function"},{"inputs":[],"name":"unpause","outputs":[],"stateMutability":"nonpayable","type":"function"}],"evm":{"bytecode":{"linkReferences":{},"object":"610160604052620f4240600a55600a600b556032600c55601e600d55348015610026575f5ffd5b50604051612bc2380380612bc2833981016040819052610045916105fc565b6040518060400160405280600a81526020016925a0aaa9902a37b5b2b760b11b81525080604051806040016040528060018152602001603160f81b8152506040518060400160405280600a81526020016925a0aaa9902a37b5b2b760b11b815250604051806040016040528060048152602001634b41555360e01b81525081600390816100d291906106c4565b5060046100df82826106c4565b506100ef91508390506007610320565b610120526100fe816008610320565b61014052815160208084019190912060e052815190820120610100524660a05261018a60e05161010051604080517f8b73c3c69bb8fe3d512ecc4cf759cc79239f7b179b0ffacaa9a75d522b39400f60208201529081019290925260608201524660808201523060a08201525f9060c00160405160208183030381529060405280519060200120905090565b60805250503060c052506001600160a01b0382166101e25760405162461bcd60e51b815260206004820152601060248201526f496e76616c696420747265617375727960801b60448201526064015b60405180910390fd5b6001600160a01b0381166102385760405162461bcd60e51b815260206004820152601460248201527f496e76616c696420666565436f6c6c6563746f7200000000000000000000000060448201526064016101d9565b600f80546001600160a01b038085166001600160a01b031992831617909255600e8054928416929091169190911790556102725f33610352565b5061027d5f83610352565b506102a87f9f2df0fed2c77648de5860a4cc508cd0818c85b8b8a1ab4ceeef8d981c8956a633610352565b506102d37f65d7a28e3265b37a6474929f336521b332c1681b933f6cb9f3376673440d862a33610352565b506102eb5f516020612ba25f395f51905f5233610352565b506103035f516020612ba25f395f51905f5282610352565b50610319826a084595161401484a0000006103fd565b50506107f5565b5f60208351101561033b5761033483610435565b905061034c565b8161034684826106c4565b5060ff90505b92915050565b5f8281526006602090815260408083206001600160a01b038516845290915281205460ff166103f6575f8381526006602090815260408083206001600160a01b03861684529091529020805460ff191660011790556103ae3390565b6001600160a01b0316826001600160a01b0316847f2f8788117e7eff1d82e926ec794901d17c78024a50270940304540a733656f0d60405160405180910390a450600161034c565b505f61034c565b6001600160a01b0382166104265760405163ec442f0560e01b81525f60048201526024016101d9565b6104315f8383610472565b5050565b5f5f829050601f8151111561045f578260405163305a27a960e01b81526004016101d9919061077e565b805161046a826107b3565b179392505050565b61047d838383610482565b505050565b61048a610495565b61047d8383836104bb565b60055460ff16156104b95760405163d93c066560e01b815260040160405180910390fd5b565b6001600160a01b0383166104e5578060025f8282546104da91906107d6565b909155506105559050565b6001600160a01b0383165f90815260208190526040902054818110156105375760405163391434e360e21b81526001600160a01b038516600482015260248101829052604481018390526064016101d9565b6001600160a01b0384165f9081526020819052604090209082900390555b6001600160a01b0382166105715760028054829003905561058f565b6001600160a01b0382165f9081526020819052604090208054820190555b816001600160a01b0316836001600160a01b03167fddf252ad1be2c89b69c2b068fc378daa952ba7f163c4a11628f55a4df523b3ef836040516105d491815260200190565b60405180910390a3505050565b80516001600160a01b03811681146105f7575f5ffd5b919050565b5f5f6040838503121561060d575f5ffd5b610616836105e1565b9150610624602084016105e1565b90509250929050565b634e487b7160e01b5f52604160045260245ffd5b600181811c9082168061065557607f821691505b60208210810361067357634e487b7160e01b5f52602260045260245ffd5b50919050565b601f82111561047d57805f5260205f20601f840160051c8101602085101561069e5750805b601f840160051c820191505b818110156106bd575f81556001016106aa565b5050505050565b81516001600160401b038111156106dd576106dd61062d565b6106f1816106eb8454610641565b84610679565b6020601f821160018114610723575f831561070c5750848201515b5f19600385901b1c1916600184901b1784556106bd565b5f84815260208120601f198516915b828110156107525787850151825560209485019460019092019101610732565b508482101561076f57868401515f19600387901b60f8161c191681555b50505050600190811b01905550565b602081525f82518060208401528060208501604085015e5f604082850101526040601f19601f83011684010191505092915050565b80516020808301519190811015610673575f1960209190910360031b1b16919050565b8082018082111561034c57634e487b7160e01b5f52601160045260245ffd5b60805160a05160c05160e05161010051610120516101405161235c6108465f395f61195301525f61192601525f61176d01525f61174501525f6116a001525f6116ca01525f6116f4015261235c5ff3fe608060405234801561000f575f5ffd5b506004361061039e575f3560e01c806379cc6790116101ea578063a42dce8011610114578063d547741f116100a9578063e275c99711610079578063e275c9971461080e578063e63ab1e914610817578063efdbbac31461083e578063f0f4426014610846575f5ffd5b8063d547741f1461079c578063da0239a6146107af578063dd62ed3e146107b7578063de9c208a146107ef575f5ffd5b8063c415b95c116100e4578063c415b95c1461073d578063ca7df92c14610750578063d505accf14610762578063d539139314610775575f5ffd5b8063a42dce80146106fe578063a6a74a0e14610711578063a9059cbb1461071a578063b85f3fb81461072d575f5ffd5b806391b7f5ed1161018a57806395d89b411161015a57806395d89b41146106d3578063978bbdb9146106db5780639f3043c3146106e4578063a217fddf146106f7575f5ffd5b806391b7f5ed1461067f57806391d1485414610692578063925d886b146106a557806393a408d7146106ae575f5ffd5b80638456cb59116101c55780638456cb591461064b57806384b0196e146106535780638582c9131461066e5780638a531ebf14610677575f5ffd5b806379cc6790146106125780637ecebe0014610625578063839ad8c514610638575f5ffd5b80633b9e1ab0116102cb5780635c975abb1161026b57806370a082311161023b57806370a08231146105d057806372ccd69e146105f8578063781ba1a11461060157806378c3a6921461060a575f5ffd5b80635c975abb146105885780635f81a57c1461059357806360c6d8ae1461059c57806361d027b3146105a5575f5ffd5b806342966c68116102a657806342966c681461054757806345596e2e1461055a578063491df2261461056d5780635b6a766014610575575f5ffd5b80633b9e1ab0146104e95780633f4ba83a1461052c57806340c10f1914610534575f5ffd5b806323b872dd11610341578063313ce56711610311578063313ce567146104ad57806332cb6b0c146104bc5780633644e515146104ce57806336568abe146104d6575f5ffd5b806323b872dd1461043c578063248a9ca31461044f5780632a0276f8146104715780632f2ff15d14610498575f5ffd5b8063078ea64e1161037c578063078ea64e146103f6578063095ea7b314610418578063145044451461042b57806318160ddd14610434575f5ffd5b806301ffc9a7146103a257806305bf0a54146103ca57806306fdde03146103e1575b5f5ffd5b6103b56103b0366004611ef6565b610859565b60405190151581526020015b60405180910390f35b6103d3600c5481565b6040519081526020016103c1565b6103e961088f565b6040516103c19190611f52565b6103b5610404366004611f7f565b60116020525f908152604090205460ff1681565b6103b5610426366004611f98565b61091f565b6103d3600d5481565b6002546103d3565b6103b561044a366004611fc0565b610936565b6103d361045d366004611ffa565b5f9081526006602052604090206001015490565b6103d37ff33fe78eb7c840e8bf68670029904b6f0da8e79346941c278a4e7676d473df1581565b6104ab6104a6366004612011565b610959565b005b604051601281526020016103c1565b6103d36a52b7d2dcc80cd2e400000081565b6103d3610983565b6104ab6104e4366004612011565b610991565b6104f16109c9565b604080519889526020890197909752958701949094526060860192909252608085015260a084015260c083015260e0820152610100016103c1565b6104ab610a10565b6104ab610542366004611f98565b610a45565b6104ab610555366004611ffa565b610ae1565b6104ab610568366004611ffa565b610aeb565b6104ab610b35565b6104ab61058336600461203b565b610d76565b60055460ff166103b5565b6103d360185481565b6103d360145481565b600f546105b8906001600160a01b031681565b6040516001600160a01b0390911681526020016103c1565b6103d36105de366004611f7f565b6001600160a01b03165f9081526020819052604090205490565b6103d360155481565b6103d3600a5481565b6104ab610ddb565b6104ab610620366004611f98565b610fbe565b6103d3610633366004611f7f565b610fd7565b6104ab610646366004611f7f565b610ff4565b6104ab611013565b61065b611045565b6040516103c1979695949392919061205b565b6103d360165481565b6103d3611087565b6104ab61068d366004611ffa565b611098565b6103b56106a0366004612011565b6110e4565b6103d36103e781565b604080518082019091526009815268312e3030205553444360b81b60208201526103e9565b6103e961110e565b6103d3600b5481565b6103d36106f23660046120f1565b61111d565b6103d35f81565b6104ab61070c366004611f7f565b6112b9565b6103d360105481565b6103b5610728366004611f98565b611326565b6103d3681b1ae4d6e2ef50000081565b600e546105b8906001600160a01b031681565b6103d36a084595161401484a00000081565b6104ab610770366004612174565b611333565b6103d37f9f2df0fed2c77648de5860a4cc508cd0818c85b8b8a1ab4ceeef8d981c8956a681565b6104ab6107aa366004612011565b611469565b6103d361148d565b6103d36107c53660046121e1565b6001600160a01b039182165f90815260016020908152604080832093909416825291909152205490565b6103d36107fd366004611f7f565b60126020525f908152604090205481565b6103d360175481565b6103d37f65d7a28e3265b37a6474929f336521b332c1681b933f6cb9f3376673440d862a81565b6013546103d3565b6104ab610854366004611f7f565b6114ac565b5f6001600160e01b03198216637965db0b60e01b148061088957506301ffc9a760e01b6001600160e01b03198316145b92915050565b60606003805461089e90612209565b80601f01602080910402602001604051908101604052809291908181526020018280546108ca90612209565b80156109155780601f106108ec57610100808354040283529160200191610915565b820191905f5260205f20905b8154815290600101906020018083116108f857829003601f168201915b5050505050905090565b5f3361092c818585611519565b5060019392505050565b5f33610943858285611526565b61094e85858561159c565b506001949350505050565b5f82815260066020526040902060010154610973816115f9565b61097d8383611603565b50505050565b5f61098c611694565b905090565b6001600160a01b03811633146109ba5760405163334bd91960e11b815260040160405180910390fd5b6109c482826117bd565b505050565b5f5f5f5f5f5f5f5f6109da60025490565b601454601554601654601754601054600a54959e6a52b7d2dcc80cd2e40000009e50949c50929a50909850965094509092509050565b7f65d7a28e3265b37a6474929f336521b332c1681b933f6cb9f3376673440d862a610a3a816115f9565b610a42611828565b50565b7f9f2df0fed2c77648de5860a4cc508cd0818c85b8b8a1ab4ceeef8d981c8956a6610a6f816115f9565b6a52b7d2dcc80cd2e400000082610a8560025490565b610a8f9190612255565b1115610ad75760405162461bcd60e51b815260206004820152601260248201527145786365656473206d617820737570706c7960701b60448201526064015b60405180910390fd5b6109c4838361187a565b610a4233826118ae565b5f610af5816115f9565b6064821115610b2f5760405162461bcd60e51b81526020600482015260066024820152654d617820312560d01b6044820152606401610ace565b50600b55565b5f610b3f816115f9565b600e546001600160a01b03165f9081526020819052604090205480610b9b5760405162461bcd60e51b81526020600482015260126024820152714e6f206665657320746f2070726f6365737360701b6044820152606401610ace565b601354610bdf5760405162461bcd60e51b81526020600482015260126024820152714e6f2047656e6573697320686f6c6465727360701b6044820152606401610ace565b5f6064600c5483610bf09190612268565b610bfa919061227f565b90505f6064600d5484610c0d9190612268565b610c17919061227f565b90508115610c4c57600e54610c35906001600160a01b0316836118ae565b8160155f828254610c469190612255565b90915550505b6013545f90610c5b908361227f565b90508015610d11575f5b601354811015610cf95760115f60138381548110610c8557610c8561229e565b5f9182526020808320909101546001600160a01b0316835282019290925260400190205460ff1615610cf157600e5460138054610cf1926001600160a01b0316919084908110610cd757610cd761229e565b5f918252602090912001546001600160a01b03168461159c565b600101610c65565b508160165f828254610d0b9190612255565b90915550505b7f5599ed0024d1d97fbd94e4d7fb2dce4f8a96b17a171844fe2b0fe06cc9a2938f838380610d3f83896122b2565b610d4991906122b2565b60135460408051948552602085019390935291830152606082015260800160405180910390a15050505050565b5f610d80816115f9565b6064610d8c8385612255565b1115610dcf5760405162461bcd60e51b8152602060048201526012602482015271053756d206d757374206265203c3d203130360741b6044820152606401610ace565b50600c91909155600d55565b6103e760105410610e2e5760405162461bcd60e51b815260206004820152601960248201527f416c6c2047656e6573697320736c6f747320636c61696d6564000000000000006044820152606401610ace565b335f9081526011602052604090205460ff1615610e8d5760405162461bcd60e51b815260206004820152601860248201527f416c726561647920612047656e65736973206d656d62657200000000000000006044820152606401610ace565b335f90815260208190526040902054681b1ae4d6e2ef5000001115610ee45760405162461bcd60e51b815260206004820152600d60248201526c4e65656420353030204b41555360981b6044820152606401610ace565b60108054905f610ef3836122c5565b9091555050335f818152601160209081526040808320805460ff191660019081179091556010546012909352908320919091556013805491820181559091527f66de8ffda797e3de9c05e8fc57b3bf0ec28a930d40b0d285d93c06501cf6a0900180546001600160a01b03191682179055600f54610f8491906001600160a01b0316681b1ae4d6e2ef50000061159c565b60105460405190815233907fb7d0e62c6ff422bba5b164f980c696cd5c907d96924a2ba929728be2460b57069060200160405180910390a2565b610fc9823383611526565b610fd382826118ae565b5050565b6001600160a01b0381165f90815260096020526040812054610889565b5f610ffe816115f9565b6110085f83611603565b506109c45f336117bd565b7f65d7a28e3265b37a6474929f336521b332c1681b933f6cb9f3376673440d862a61103d816115f9565b610a426118e2565b5f6060805f5f5f606061105661191f565b61105e61194c565b604080515f80825260208201909252600f60f81b9b939a50919850469750309650945092509050565b5f6010546103e761098c91906122b2565b5f6110a2816115f9565b600a5460408051918252602082018490527f945c1c4e99aa89f648fbfe3df471b916f719e16d960fcec0737d4d56bd696838910160405180910390a150600a55565b5f9182526006602090815260408084206001600160a01b0393909316845291905290205460ff1690565b60606004805461089e90612209565b5f7ff33fe78eb7c840e8bf68670029904b6f0da8e79346941c278a4e7676d473df15611148816115f9565b612710600b54866111599190612268565b611163919061227f565b91505f82116111a45760405162461bcd60e51b815260206004820152600d60248201526c119959481d1bdbc81cdb585b1b609a1b6044820152606401610ace565b816111c3876001600160a01b03165f9081526020819052604090205490565b10156112115760405162461bcd60e51b815260206004820152601960248201527f496e73756666696369656e74204b4155532062616c616e6365000000000000006044820152606401610ace565b600e546112299087906001600160a01b03168461159c565b8160145f82825461123a9190612255565b925050819055508460185f8282546112529190612255565b909155505060178054905f611266836122c5565b9190505550856001600160a01b03167fbde344b6f67c3bf7e0ecbbf22b04267d5d3ae0aa1909c0000b812f6b14ce45b98386866040516112a8939291906122dd565b60405180910390a250949350505050565b5f6112c3816115f9565b6001600160a01b0382166113035760405162461bcd60e51b8152602060048201526007602482015266125b9d985b1a5960ca1b6044820152606401610ace565b50600e80546001600160a01b0319166001600160a01b0392909216919091179055565b5f3361092c81858561159c565b834211156113575760405163313c898160e11b815260048101859052602401610ace565b5f7f6e71edae12b1b97f4d1f60370fef10105fa2faae0126114a169c64845d6126c98888886113a28c6001600160a01b03165f90815260096020526040902080546001810190915590565b6040805160208101969096526001600160a01b0394851690860152929091166060840152608083015260a082015260c0810186905260e0016040516020818303038152906040528051906020012090505f6113fc82611979565b90505f61140b828787876119a5565b9050896001600160a01b0316816001600160a01b031614611452576040516325c0072360e11b81526001600160a01b0380831660048301528b166024820152604401610ace565b61145d8a8a8a611519565b50505050505050505050565b5f82815260066020526040902060010154611483816115f9565b61097d83836117bd565b5f61149760025490565b61098c906a52b7d2dcc80cd2e40000006122b2565b5f6114b6816115f9565b6001600160a01b0382166114f65760405162461bcd60e51b8152602060048201526007602482015266125b9d985b1a5960ca1b6044820152606401610ace565b50600f80546001600160a01b0319166001600160a01b0392909216919091179055565b6109c483838360016119d1565b6001600160a01b038381165f908152600160209081526040808320938616835292905220545f1981101561097d578181101561158e57604051637dc7a0d960e11b81526001600160a01b03841660048201526024810182905260448101839052606401610ace565b61097d84848484035f6119d1565b6001600160a01b0383166115c557604051634b637e8f60e11b81525f6004820152602401610ace565b6001600160a01b0382166115ee5760405163ec442f0560e01b81525f6004820152602401610ace565b6109c4838383611aa3565b610a428133611aae565b5f61160e83836110e4565b61168d575f8381526006602090815260408083206001600160a01b03861684529091529020805460ff191660011790556116453390565b6001600160a01b0316826001600160a01b0316847f2f8788117e7eff1d82e926ec794901d17c78024a50270940304540a733656f0d60405160405180910390a4506001610889565b505f610889565b5f306001600160a01b037f0000000000000000000000000000000000000000000000000000000000000000161480156116ec57507f000000000000000000000000000000000000000000000000000000000000000046145b1561171657507f000000000000000000000000000000000000000000000000000000000000000090565b61098c604080517f8b73c3c69bb8fe3d512ecc4cf759cc79239f7b179b0ffacaa9a75d522b39400f60208201527f0000000000000000000000000000000000000000000000000000000000000000918101919091527f000000000000000000000000000000000000000000000000000000000000000060608201524660808201523060a08201525f9060c00160405160208183030381529060405280519060200120905090565b5f6117c883836110e4565b1561168d575f8381526006602090815260408083206001600160a01b0386168085529252808320805460ff1916905551339286917ff6391f5c32d9c69d2a47ea670b442974b53935d1edc7fd64eb21e047a839171b9190a4506001610889565b611830611ae7565b6005805460ff191690557f5db9ee0a495bf2e6ff9c91a7834c1ba4fdd244a5e8aa4e537bd38aeae4b073aa335b6040516001600160a01b03909116815260200160405180910390a1565b6001600160a01b0382166118a35760405163ec442f0560e01b81525f6004820152602401610ace565b610fd35f8383611aa3565b6001600160a01b0382166118d757604051634b637e8f60e11b81525f6004820152602401610ace565b610fd3825f83611aa3565b6118ea611b0c565b6005805460ff191660011790557f62e78cea01bee320cd4e420270b5ea74000d11b0c9f74754ebdbfc544b05a25861185d3390565b606061098c7f00000000000000000000000000000000000000000000000000000000000000006007611b30565b606061098c7f00000000000000000000000000000000000000000000000000000000000000006008611b30565b5f610889611985611694565b8360405161190160f01b8152600281019290925260228201526042902090565b5f5f5f5f6119b588888888611bd9565b9250925092506119c58282611ca1565b50909695505050505050565b6001600160a01b0384166119fa5760405163e602df0560e01b81525f6004820152602401610ace565b6001600160a01b038316611a2357604051634a1406b160e11b81525f6004820152602401610ace565b6001600160a01b038085165f908152600160209081526040808320938716835292905220829055801561097d57826001600160a01b0316846001600160a01b03167f8c5be1e5ebec7d5bd14f71427d1e84f3dd0314c0f7b2291e5b200ac8c7c3b92584604051611a9591815260200190565b60405180910390a350505050565b6109c4838383611d59565b611ab882826110e4565b610fd35760405163e2517d3f60e01b81526001600160a01b038216600482015260248101839052604401610ace565b60055460ff16611b0a57604051638dfc202b60e01b815260040160405180910390fd5b565b60055460ff1615611b0a5760405163d93c066560e01b815260040160405180910390fd5b606060ff8314611b4a57611b4383611d6c565b9050610889565b818054611b5690612209565b80601f0160208091040260200160405190810160405280929190818152602001828054611b8290612209565b8015611bcd5780601f10611ba457610100808354040283529160200191611bcd565b820191905f5260205f20905b815481529060010190602001808311611bb057829003601f168201915b50505050509050610889565b5f80807f7fffffffffffffffffffffffffffffff5d576e7357a4501ddfe92f46681b20a0841115611c1257505f91506003905082611c97565b604080515f808252602082018084528a905260ff891692820192909252606081018790526080810186905260019060a0016020604051602081039080840390855afa158015611c63573d5f5f3e3d5ffd5b5050604051601f1901519150506001600160a01b038116611c8e57505f925060019150829050611c97565b92505f91508190505b9450945094915050565b5f826003811115611cb457611cb4612312565b03611cbd575050565b6001826003811115611cd157611cd1612312565b03611cef5760405163f645eedf60e01b815260040160405180910390fd5b6002826003811115611d0357611d03612312565b03611d245760405163fce698f760e01b815260048101829052602401610ace565b6003826003811115611d3857611d38612312565b03610fd3576040516335e2f38360e21b815260048101829052602401610ace565b611d61611b0c565b6109c4838383611da9565b60605f611d7883611ecf565b6040805160208082528183019092529192505f91906020820181803683375050509182525060208101929092525090565b6001600160a01b038316611dd3578060025f828254611dc89190612255565b90915550611e439050565b6001600160a01b0383165f9081526020819052604090205481811015611e255760405163391434e360e21b81526001600160a01b03851660048201526024810182905260448101839052606401610ace565b6001600160a01b0384165f9081526020819052604090209082900390555b6001600160a01b038216611e5f57600280548290039055611e7d565b6001600160a01b0382165f9081526020819052604090208054820190555b816001600160a01b0316836001600160a01b03167fddf252ad1be2c89b69c2b068fc378daa952ba7f163c4a11628f55a4df523b3ef83604051611ec291815260200190565b60405180910390a3505050565b5f60ff8216601f81111561088957604051632cd44ac360e21b815260040160405180910390fd5b5f60208284031215611f06575f5ffd5b81356001600160e01b031981168114611f1d575f5ffd5b9392505050565b5f81518084528060208401602086015e5f602082860101526020601f19601f83011685010191505092915050565b602081525f611f1d6020830184611f24565b80356001600160a01b0381168114611f7a575f5ffd5b919050565b5f60208284031215611f8f575f5ffd5b611f1d82611f64565b5f5f60408385031215611fa9575f5ffd5b611fb283611f64565b946020939093013593505050565b5f5f5f60608486031215611fd2575f5ffd5b611fdb84611f64565b9250611fe960208501611f64565b929592945050506040919091013590565b5f6020828403121561200a575f5ffd5b5035919050565b5f5f60408385031215612022575f5ffd5b8235915061203260208401611f64565b90509250929050565b5f5f6040838503121561204c575f5ffd5b50508035926020909101359150565b60ff60f81b8816815260e060208201525f61207960e0830189611f24565b828103604084015261208b8189611f24565b606084018890526001600160a01b038716608085015260a0840186905283810360c0850152845180825260208087019350909101905f5b818110156120e05783518352602093840193909201916001016120c2565b50909b9a5050505050505050505050565b5f5f5f5f60608587031215612104575f5ffd5b61210d85611f64565b935060208501359250604085013567ffffffffffffffff81111561212f575f5ffd5b8501601f8101871361213f575f5ffd5b803567ffffffffffffffff811115612155575f5ffd5b876020828401011115612166575f5ffd5b949793965060200194505050565b5f5f5f5f5f5f5f60e0888a03121561218a575f5ffd5b61219388611f64565b96506121a160208901611f64565b95506040880135945060608801359350608088013560ff811681146121c4575f5ffd5b9699959850939692959460a0840135945060c09093013592915050565b5f5f604083850312156121f2575f5ffd5b6121fb83611f64565b915061203260208401611f64565b600181811c9082168061221d57607f821691505b60208210810361223b57634e487b7160e01b5f52602260045260245ffd5b50919050565b634e487b7160e01b5f52601160045260245ffd5b8082018082111561088957610889612241565b808202811582820484141761088957610889612241565b5f8261229957634e487b7160e01b5f52601260045260245ffd5b500490565b634e487b7160e01b5f52603260045260245ffd5b8181038181111561088957610889612241565b5f600182016122d6576122d6612241565b5060010190565b83815260406020820152816040820152818360608301375f818301606090810191909152601f909201601f1916010192915050565b634e487b7160e01b5f52602160045260245ffdfea2646970667358221220cefef8d60986f5aae3de9dc58ed4720c05fca32ed9e5f24dbe740e225587c97d64736f6c634300081c0033f33fe78eb7c840e8bf68670029904b6f0da8e79346941c278a4e7676d473df15","opcodes":"PUSH2 0x160 PUSH1 0x40 MSTORE PUSH3 0xF4240 PUSH1 0xA SSTORE PUSH1 0xA PUSH1 0xB SSTORE PUSH1 0x32 PUSH1 0xC SSTORE PUSH1 0x1E PUSH1 0xD SSTORE CALLVALUE DUP1 ISZERO PUSH2 0x26 JUMPI PUSH0 PUSH0 REVERT JUMPDEST POP PUSH1 0x40 MLOAD PUSH2 0x2BC2 CODESIZE SUB DUP1 PUSH2 0x2BC2 DUP4 CODECOPY DUP2 ADD PUSH1 0x40 DUP2 SWAP1 MSTORE PUSH2 0x45 SWAP2 PUSH2 0x5FC JUMP JUMPDEST PUSH1 0x40 MLOAD DUP1 PUSH1 0x40 ADD PUSH1 0x40 MSTORE DUP1 PUSH1 0xA DUP2 MSTORE PUSH1 0x20 ADD PUSH10 0x25A0AAA9902A37B5B2B7 PUSH1 0xB1 SHL DUP2 MSTORE POP DUP1 PUSH1 0x40 MLOAD DUP1 PUSH1 0x40 ADD PUSH1 0x40 MSTORE DUP1 PUSH1 0x1 DUP2 MSTORE PUSH1 0x20 ADD PUSH1 0x31 PUSH1 0xF8 SHL DUP2 MSTORE POP PUSH1 0x40 MLOAD DUP1 PUSH1 0x40 ADD PUSH1 0x40 MSTORE DUP1 PUSH1 0xA DUP2 MSTORE PUSH1 0x20 ADD PUSH10 0x25A0AAA9902A37B5B2B7 PUSH1 0xB1 SHL DUP2 MSTORE POP PUSH1 0x40 MLOAD DUP1 PUSH1 0x40 ADD PUSH1 0x40 MSTORE DUP1 PUSH1 0x4 DUP2 MSTORE PUSH1 0x20 ADD PUSH4 0x4B415553 PUSH1 0xE0 SHL DUP2 MSTORE POP DUP2 PUSH1 0x3 SWAP1 DUP2 PUSH2 0xD2 SWAP2 SWAP1 PUSH2 0x6C4 JUMP JUMPDEST POP PUSH1 0x4 PUSH2 0xDF DUP3 DUP3 PUSH2 0x6C4 JUMP JUMPDEST POP PUSH2 0xEF SWAP2 POP DUP4 SWAP1 POP PUSH1 0x7 PUSH2 0x320 JUMP JUMPDEST PUSH2 0x120 MSTORE PUSH2 0xFE DUP2 PUSH1 0x8 PUSH2 0x320 JUMP JUMPDEST PUSH2 0x140 MSTORE DUP2 MLOAD PUSH1 0x20 DUP1 DUP5 ADD SWAP2 SWAP1 SWAP2 KECCAK256 PUSH1 0xE0 MSTORE DUP2 MLOAD SWAP1 DUP3 ADD KECCAK256 PUSH2 0x100 MSTORE CHAINID PUSH1 0xA0 MSTORE PUSH2 0x18A PUSH1 0xE0 MLOAD PUSH2 0x100 MLOAD PUSH1 0x40 DUP1 MLOAD PUSH32 0x8B73C3C69BB8FE3D512ECC4CF759CC79239F7B179B0FFACAA9A75D522B39400F PUSH1 0x20 DUP3 ADD MSTORE SWAP1 DUP2 ADD SWAP3 SWAP1 SWAP3 MSTORE PUSH1 0x60 DUP3 ADD MSTORE CHAINID PUSH1 0x80 DUP3 ADD MSTORE ADDRESS PUSH1 0xA0 DUP3 ADD MSTORE PUSH0 SWAP1 PUSH1 0xC0 ADD PUSH1 0x40 MLOAD PUSH1 0x20 DUP2 DUP4 SUB SUB DUP2 MSTORE SWAP1 PUSH1 0x40 MSTORE DUP1 MLOAD SWAP1 PUSH1 0x20 ADD KECCAK256 SWAP1 POP SWAP1 JUMP JUMPDEST PUSH1 0x80 MSTORE POP POP ADDRESS PUSH1 0xC0 MSTORE POP PUSH1 0x1 PUSH1 0x1 PUSH1 0xA0 SHL SUB DUP3 AND PUSH2 0x1E2 JUMPI PUSH1 0x40 MLOAD PUSH3 0x461BCD PUSH1 0xE5 SHL DUP2 MSTORE PUSH1 0x20 PUSH1 0x4 DUP3 ADD MSTORE PUSH1 0x10 PUSH1 0x24 DUP3 ADD MSTORE PUSH16 0x496E76616C6964207472656173757279 PUSH1 0x80 SHL PUSH1 0x44 DUP3 ADD MSTORE PUSH1 0x64 ADD JUMPDEST PUSH1 0x40 MLOAD DUP1 SWAP2 SUB SWAP1 REVERT JUMPDEST PUSH1 0x1 PUSH1 0x1 PUSH1 0xA0 SHL SUB DUP2 AND PUSH2 0x238 JUMPI PUSH1 0x40 MLOAD PUSH3 0x461BCD PUSH1 0xE5 SHL DUP2 MSTORE PUSH1 0x20 PUSH1 0x4 DUP3 ADD MSTORE PUSH1 0x14 PUSH1 0x24 DUP3 ADD MSTORE PUSH32 0x496E76616C696420666565436F6C6C6563746F72000000000000000000000000 PUSH1 0x44 DUP3 ADD MSTORE PUSH1 0x64 ADD PUSH2 0x1D9 JUMP JUMPDEST PUSH1 0xF DUP1 SLOAD PUSH1 0x1 PUSH1 0x1 PUSH1 0xA0 SHL SUB DUP1 DUP6 AND PUSH1 0x1 PUSH1 0x1 PUSH1 0xA0 SHL SUB NOT SWAP3 DUP4 AND OR SWAP1 SWAP3 SSTORE PUSH1 0xE DUP1 SLOAD SWAP3 DUP5 AND SWAP3 SWAP1 SWAP2 AND SWAP2 SWAP1 SWAP2 OR SWAP1 SSTORE PUSH2 0x272 PUSH0 CALLER PUSH2 0x352 JUMP JUMPDEST POP PUSH2 0x27D PUSH0 DUP4 PUSH2 0x352 JUMP JUMPDEST POP PUSH2 0x2A8 PUSH32 0x9F2DF0FED2C77648DE5860A4CC508CD0818C85B8B8A1AB4CEEEF8D981C8956A6 CALLER PUSH2 0x352 JUMP JUMPDEST POP PUSH2 0x2D3 PUSH32 0x65D7A28E3265B37A6474929F336521B332C1681B933F6CB9F3376673440D862A CALLER PUSH2 0x352 JUMP JUMPDEST POP PUSH2 0x2EB PUSH0 MLOAD PUSH1 0x20 PUSH2 0x2BA2 PUSH0 CODECOPY PUSH0 MLOAD SWAP1 PUSH0 MSTORE CALLER PUSH2 0x352 JUMP JUMPDEST POP PUSH2 0x303 PUSH0 MLOAD PUSH1 0x20 PUSH2 0x2BA2 PUSH0 CODECOPY PUSH0 MLOAD SWAP1 PUSH0 MSTORE DUP3 PUSH2 0x352 JUMP JUMPDEST POP PUSH2 0x319 DUP3 PUSH11 0x84595161401484A000000 PUSH2 0x3FD JUMP JUMPDEST POP POP PUSH2 0x7F5 JUMP JUMPDEST PUSH0 PUSH1 0x20 DUP4 MLOAD LT ISZERO PUSH2 0x33B JUMPI PUSH2 0x334 DUP4 PUSH2 0x435 JUMP JUMPDEST SWAP1 POP PUSH2 0x34C JUMP JUMPDEST DUP2 PUSH2 0x346 DUP5 DUP3 PUSH2 0x6C4 JUMP JUMPDEST POP PUSH1 0xFF SWAP1 POP JUMPDEST SWAP3 SWAP2 POP POP JUMP JUMPDEST PUSH0 DUP3 DUP2 MSTORE PUSH1 0x6 PUSH1 0x20 SWAP1 DUP2 MSTORE PUSH1 0x40 DUP1 DUP4 KECCAK256 PUSH1 0x1 PUSH1 0x1 PUSH1 0xA0 SHL SUB DUP6 AND DUP5 MSTORE SWAP1 SWAP2 MSTORE DUP2 KECCAK256 SLOAD PUSH1 0xFF AND PUSH2 0x3F6 JUMPI PUSH0 DUP4 DUP2 MSTORE PUSH1 0x6 PUSH1 0x20 SWAP1 DUP2 MSTORE PUSH1 0x40 DUP1 DUP4 KECCAK256 PUSH1 0x1 PUSH1 0x1 PUSH1 0xA0 SHL SUB DUP7 AND DUP5 MSTORE SWAP1 SWAP2 MSTORE SWAP1 KECCAK256 DUP1 SLOAD PUSH1 0xFF NOT AND PUSH1 0x1 OR SWAP1 SSTORE PUSH2 0x3AE CALLER SWAP1 JUMP JUMPDEST PUSH1 0x1 PUSH1 0x1 PUSH1 0xA0 SHL SUB AND DUP3 PUSH1 0x1 PUSH1 0x1 PUSH1 0xA0 SHL SUB AND DUP5 PUSH32 0x2F8788117E7EFF1D82E926EC794901D17C78024A50270940304540A733656F0D PUSH1 0x40 MLOAD PUSH1 0x40 MLOAD DUP1 SWAP2 SUB SWAP1 LOG4 POP PUSH1 0x1 PUSH2 0x34C JUMP JUMPDEST POP PUSH0 PUSH2 0x34C JUMP JUMPDEST PUSH1 0x1 PUSH1 0x1 PUSH1 0xA0 SHL SUB DUP3 AND PUSH2 0x426 JUMPI PUSH1 0x40 MLOAD PUSH4 0xEC442F05 PUSH1 0xE0 SHL DUP2 MSTORE PUSH0 PUSH1 0x4 DUP3 ADD MSTORE PUSH1 0x24 ADD PUSH2 0x1D9 JUMP JUMPDEST PUSH2 0x431 PUSH0 DUP4 DUP4 PUSH2 0x472 JUMP JUMPDEST POP POP JUMP JUMPDEST PUSH0 PUSH0 DUP3 SWAP1 POP PUSH1 0x1F DUP2 MLOAD GT ISZERO PUSH2 0x45F JUMPI DUP3 PUSH1 0x40 MLOAD PUSH4 0x305A27A9 PUSH1 0xE0 SHL DUP2 MSTORE PUSH1 0x4 ADD PUSH2 0x1D9 SWAP2 SWAP1 PUSH2 0x77E JUMP JUMPDEST DUP1 MLOAD PUSH2 0x46A DUP3 PUSH2 0x7B3 JUMP JUMPDEST OR SWAP4 SWAP3 POP POP POP JUMP JUMPDEST PUSH2 0x47D DUP4 DUP4 DUP4 PUSH2 0x482 JUMP JUMPDEST POP POP POP JUMP JUMPDEST PUSH2 0x48A PUSH2 0x495 JUMP JUMPDEST PUSH2 0x47D DUP4 DUP4 DUP4 PUSH2 0x4BB JUMP JUMPDEST PUSH1 0x5 SLOAD PUSH1 0xFF AND ISZERO PUSH2 0x4B9 JUMPI PUSH1 0x40 MLOAD PUSH4 0xD93C0665 PUSH1 0xE0 SHL DUP2 MSTORE PUSH1 0x4 ADD PUSH1 0x40 MLOAD DUP1 SWAP2 SUB SWAP1 REVERT JUMPDEST JUMP JUMPDEST PUSH1 0x1 PUSH1 0x1 PUSH1 0xA0 SHL SUB DUP4 AND PUSH2 0x4E5 JUMPI DUP1 PUSH1 0x2 PUSH0 DUP3 DUP3 SLOAD PUSH2 0x4DA SWAP2 SWAP1 PUSH2 0x7D6 JUMP JUMPDEST SWAP1 SWAP2 SSTORE POP PUSH2 0x555 SWAP1 POP JUMP JUMPDEST PUSH1 0x1 PUSH1 0x1 PUSH1 0xA0 SHL SUB DUP4 AND PUSH0 SWAP1 DUP2 MSTORE PUSH1 0x20 DUP2 SWAP1 MSTORE PUSH1 0x40 SWAP1 KECCAK256 SLOAD DUP2 DUP2 LT ISZERO PUSH2 0x537 JUMPI PUSH1 0x40 MLOAD PUSH4 0x391434E3 PUSH1 0xE2 SHL DUP2 MSTORE PUSH1 0x1 PUSH1 0x1 PUSH1 0xA0 SHL SUB DUP6 AND PUSH1 0x4 DUP3 ADD MSTORE PUSH1 0x24 DUP2 ADD DUP3 SWAP1 MSTORE PUSH1 0x44 DUP2 ADD DUP4 SWAP1 MSTORE PUSH1 0x64 ADD PUSH2 0x1D9 JUMP JUMPDEST PUSH1 0x1 PUSH1 0x1 PUSH1 0xA0 SHL SUB DUP5 AND PUSH0 SWAP1 DUP2 MSTORE PUSH1 0x20 DUP2 SWAP1 MSTORE PUSH1 0x40 SWAP1 KECCAK256 SWAP1 DUP3 SWAP1 SUB SWAP1 SSTORE JUMPDEST PUSH1 0x1 PUSH1 0x1 PUSH1 0xA0 SHL SUB DUP3 AND PUSH2 0x571 JUMPI PUSH1 0x2 DUP1 SLOAD DUP3 SWAP1 SUB SWAP1 SSTORE PUSH2 0x58F JUMP JUMPDEST PUSH1 0x1 PUSH1 0x1 PUSH1 0xA0 SHL SUB DUP3 AND PUSH0 SWAP1 DUP2 MSTORE PUSH1 0x20 DUP2 SWAP1 MSTORE PUSH1 0x40 SWAP1 KECCAK256 DUP1 SLOAD DUP3 ADD SWAP1 SSTORE JUMPDEST DUP2 PUSH1 0x1 PUSH1 0x1 PUSH1 0xA0 SHL SUB AND DUP4 PUSH1 0x1 PUSH1 0x1 PUSH1 0xA0 SHL SUB AND PUSH32 0xDDF252AD1BE2C89B69C2B068FC378DAA952BA7F163C4A11628F55A4DF523B3EF DUP4 PUSH1 0x40 MLOAD PUSH2 0x5D4 SWAP2 DUP2 MSTORE PUSH1 0x20 ADD SWAP1 JUMP JUMPDEST PUSH1 0x40 MLOAD DUP1 SWAP2 SUB SWAP1 LOG3 POP POP POP JUMP JUMPDEST DUP1 MLOAD PUSH1 0x1 PUSH1 0x1 PUSH1 0xA0 SHL SUB DUP2 AND DUP2 EQ PUSH2 0x5F7 JUMPI PUSH0 PUSH0 REVERT JUMPDEST SWAP2 SWAP1 POP JUMP JUMPDEST PUSH0 PUSH0 PUSH1 0x40 DUP4 DUP6 SUB SLT ISZERO PUSH2 0x60D JUMPI PUSH0 PUSH0 REVERT JUMPDEST PUSH2 0x616 DUP4 PUSH2 0x5E1 JUMP JUMPDEST SWAP2 POP PUSH2 0x624 PUSH1 0x20 DUP5 ADD PUSH2 0x5E1 JUMP JUMPDEST SWAP1 POP SWAP3 POP SWAP3 SWAP1 POP JUMP JUMPDEST PUSH4 0x4E487B71 PUSH1 0xE0 SHL PUSH0 MSTORE PUSH1 0x41 PUSH1 0x4 MSTORE PUSH1 0x24 PUSH0 REVERT JUMPDEST PUSH1 0x1 DUP2 DUP2 SHR SWAP1 DUP3 AND DUP1 PUSH2 0x655 JUMPI PUSH1 0x7F DUP3 AND SWAP2 POP JUMPDEST PUSH1 0x20 DUP3 LT DUP2 SUB PUSH2 0x673 JUMPI PUSH4 0x4E487B71 PUSH1 0xE0 SHL PUSH0 MSTORE PUSH1 0x22 PUSH1 0x4 MSTORE PUSH1 0x24 PUSH0 REVERT JUMPDEST POP SWAP2 SWAP1 POP JUMP JUMPDEST PUSH1 0x1F DUP3 GT ISZERO PUSH2 0x47D JUMPI DUP1 PUSH0 MSTORE PUSH1 0x20 PUSH0 KECCAK256 PUSH1 0x1F DUP5 ADD PUSH1 0x5 SHR DUP2 ADD PUSH1 0x20 DUP6 LT ISZERO PUSH2 0x69E JUMPI POP DUP1 JUMPDEST PUSH1 0x1F DUP5 ADD PUSH1 0x5 SHR DUP3 ADD SWAP2 POP JUMPDEST DUP2 DUP2 LT ISZERO PUSH2 0x6BD JUMPI PUSH0 DUP2 SSTORE PUSH1 0x1 ADD PUSH2 0x6AA JUMP JUMPDEST POP POP POP POP POP JUMP JUMPDEST DUP2 MLOAD PUSH1 0x1 PUSH1 0x1 PUSH1 0x40 SHL SUB DUP2 GT ISZERO PUSH2 0x6DD JUMPI PUSH2 0x6DD PUSH2 0x62D JUMP JUMPDEST PUSH2 0x6F1 DUP2 PUSH2 0x6EB DUP5 SLOAD PUSH2 0x641 JUMP JUMPDEST DUP5 PUSH2 0x679 JUMP JUMPDEST PUSH1 0x20 PUSH1 0x1F DUP3 GT PUSH1 0x1 DUP2 EQ PUSH2 0x723 JUMPI PUSH0 DUP4 ISZERO PUSH2 0x70C JUMPI POP DUP5 DUP3 ADD MLOAD JUMPDEST PUSH0 NOT PUSH1 0x3 DUP6 SWAP1 SHL SHR NOT AND PUSH1 0x1 DUP5 SWAP1 SHL OR DUP5 SSTORE PUSH2 0x6BD JUMP JUMPDEST PUSH0 DUP5 DUP2 MSTORE PUSH1 0x20 DUP2 KECCAK256 PUSH1 0x1F NOT DUP6 AND SWAP2 JUMPDEST DUP3 DUP2 LT ISZERO PUSH2 0x752 JUMPI DUP8 DUP6 ADD MLOAD DUP3 SSTORE PUSH1 0x20 SWAP5 DUP6 ADD SWAP5 PUSH1 0x1 SWAP1 SWAP3 ADD SWAP2 ADD PUSH2 0x732 JUMP JUMPDEST POP DUP5 DUP3 LT ISZERO PUSH2 0x76F JUMPI DUP7 DUP5 ADD MLOAD PUSH0 NOT PUSH1 0x3 DUP8 SWAP1 SHL PUSH1 0xF8 AND SHR NOT AND DUP2 SSTORE JUMPDEST POP POP POP POP PUSH1 0x1 SWAP1 DUP2 SHL ADD SWAP1 SSTORE POP JUMP JUMPDEST PUSH1 0x20 DUP2 MSTORE PUSH0 DUP3 MLOAD DUP1 PUSH1 0x20 DUP5 ADD MSTORE DUP1 PUSH1 0x20 DUP6 ADD PUSH1 0x40 DUP6 ADD MCOPY PUSH0 PUSH1 0x40 DUP3 DUP6 ADD ADD MSTORE PUSH1 0x40 PUSH1 0x1F NOT PUSH1 0x1F DUP4 ADD AND DUP5 ADD ADD SWAP2 POP POP SWAP3 SWAP2 POP POP JUMP JUMPDEST DUP1 MLOAD PUSH1 0x20 DUP1 DUP4 ADD MLOAD SWAP2 SWAP1 DUP2 LT ISZERO PUSH2 0x673 JUMPI PUSH0 NOT PUSH1 0x20 SWAP2 SWAP1 SWAP2 SUB PUSH1 0x3 SHL SHL AND SWAP2 SWAP1 POP JUMP JUMPDEST DUP1 DUP3 ADD DUP1 DUP3 GT ISZERO PUSH2 0x34C JUMPI PUSH4 0x4E487B71 PUSH1 0xE0 SHL PUSH0 MSTORE PUSH1 0x11 PUSH1 0x4 MSTORE PUSH1 0x24 PUSH0 REVERT JUMPDEST PUSH1 0x80 MLOAD PUSH1 0xA0 MLOAD PUSH1 0xC0 MLOAD PUSH1 0xE0 MLOAD PUSH2 0x100 MLOAD PUSH2 0x120 MLOAD PUSH2 0x140 MLOAD PUSH2 0x235C PUSH2 0x846 PUSH0 CODECOPY PUSH0 PUSH2 0x1953 ADD MSTORE PUSH0 PUSH2 0x1926 ADD MSTORE PUSH0 PUSH2 0x176D ADD MSTORE PUSH0 PUSH2 0x1745 ADD MSTORE PUSH0 PUSH2 0x16A0 ADD MSTORE PUSH0 PUSH2 0x16CA ADD MSTORE PUSH0 PUSH2 0x16F4 ADD MSTORE PUSH2 0x235C PUSH0 RETURN INVALID PUSH1 0x80 PUSH1 0x40 MSTORE CALLVALUE DUP1 ISZERO PUSH2 0xF JUMPI PUSH0 PUSH0 REVERT JUMPDEST POP PUSH1 0x4 CALLDATASIZE LT PUSH2 0x39E JUMPI PUSH0 CALLDATALOAD PUSH1 0xE0 SHR DUP1 PUSH4 0x79CC6790 GT PUSH2 0x1EA JUMPI DUP1 PUSH4 0xA42DCE80 GT PUSH2 0x114 JUMPI DUP1 PUSH4 0xD547741F GT PUSH2 0xA9 JUMPI DUP1 PUSH4 0xE275C997 GT PUSH2 0x79 JUMPI DUP1 PUSH4 0xE275C997 EQ PUSH2 0x80E JUMPI DUP1 PUSH4 0xE63AB1E9 EQ PUSH2 0x817 JUMPI DUP1 PUSH4 0xEFDBBAC3 EQ PUSH2 0x83E JUMPI DUP1 PUSH4 0xF0F44260 EQ PUSH2 0x846 JUMPI PUSH0 PUSH0 REVERT JUMPDEST DUP1 PUSH4 0xD547741F EQ PUSH2 0x79C JUMPI DUP1 PUSH4 0xDA0239A6 EQ PUSH2 0x7AF JUMPI DUP1 PUSH4 0xDD62ED3E EQ PUSH2 0x7B7 JUMPI DUP1 PUSH4 0xDE9C208A EQ PUSH2 0x7EF JUMPI PUSH0 PUSH0 REVERT JUMPDEST DUP1 PUSH4 0xC415B95C GT PUSH2 0xE4 JUMPI DUP1 PUSH4 0xC415B95C EQ PUSH2 0x73D JUMPI DUP1 PUSH4 0xCA7DF92C EQ PUSH2 0x750 JUMPI DUP1 PUSH4 0xD505ACCF EQ PUSH2 0x762 JUMPI DUP1 PUSH4 0xD5391393 EQ PUSH2 0x775 JUMPI PUSH0 PUSH0 REVERT JUMPDEST DUP1 PUSH4 0xA42DCE80 EQ PUSH2 0x6FE JUMPI DUP1 PUSH4 0xA6A74A0E EQ PUSH2 0x711 JUMPI DUP1 PUSH4 0xA9059CBB EQ PUSH2 0x71A JUMPI DUP1 PUSH4 0xB85F3FB8 EQ PUSH2 0x72D JUMPI PUSH0 PUSH0 REVERT JUMPDEST DUP1 PUSH4 0x91B7F5ED GT PUSH2 0x18A JUMPI DUP1 PUSH4 0x95D89B41 GT PUSH2 0x15A JUMPI DUP1 PUSH4 0x95D89B41 EQ PUSH2 0x6D3 JUMPI DUP1 PUSH4 0x978BBDB9 EQ PUSH2 0x6DB JUMPI DUP1 PUSH4 0x9F3043C3 EQ PUSH2 0x6E4 JUMPI DUP1 PUSH4 0xA217FDDF EQ PUSH2 0x6F7 JUMPI PUSH0 PUSH0 REVERT JUMPDEST DUP1 PUSH4 0x91B7F5ED EQ PUSH2 0x67F JUMPI DUP1 PUSH4 0x91D14854 EQ PUSH2 0x692 JUMPI DUP1 PUSH4 0x925D886B EQ PUSH2 0x6A5 JUMPI DUP1 PUSH4 0x93A408D7 EQ PUSH2 0x6AE JUMPI PUSH0 PUSH0 REVERT JUMPDEST DUP1 PUSH4 0x8456CB59 GT PUSH2 0x1C5 JUMPI DUP1 PUSH4 0x8456CB59 EQ PUSH2 0x64B JUMPI DUP1 PUSH4 0x84B0196E EQ PUSH2 0x653 JUMPI DUP1 PUSH4 0x8582C913 EQ PUSH2 0x66E JUMPI DUP1 PUSH4 0x8A531EBF EQ PUSH2 0x677 JUMPI PUSH0 PUSH0 REVERT JUMPDEST DUP1 PUSH4 0x79CC6790 EQ PUSH2 0x612 JUMPI DUP1 PUSH4 0x7ECEBE00 EQ PUSH2 0x625 JUMPI DUP1 PUSH4 0x839AD8C5 EQ PUSH2 0x638 JUMPI PUSH0 PUSH0 REVERT JUMPDEST DUP1 PUSH4 0x3B9E1AB0 GT PUSH2 0x2CB JUMPI DUP1 PUSH4 0x5C975ABB GT PUSH2 0x26B JUMPI DUP1 PUSH4 0x70A08231 GT PUSH2 0x23B JUMPI DUP1 PUSH4 0x70A08231 EQ PUSH2 0x5D0 JUMPI DUP1 PUSH4 0x72CCD69E EQ PUSH2 0x5F8 JUMPI DUP1 PUSH4 0x781BA1A1 EQ PUSH2 0x601 JUMPI DUP1 PUSH4 0x78C3A692 EQ PUSH2 0x60A JUMPI PUSH0 PUSH0 REVERT JUMPDEST DUP1 PUSH4 0x5C975ABB EQ PUSH2 0x588 JUMPI DUP1 PUSH4 0x5F81A57C EQ PUSH2 0x593 JUMPI DUP1 PUSH4 0x60C6D8AE EQ PUSH2 0x59C JUMPI DUP1 PUSH4 0x61D027B3 EQ PUSH2 0x5A5 JUMPI PUSH0 PUSH0 REVERT JUMPDEST DUP1 PUSH4 0x42966C68 GT PUSH2 0x2A6 JUMPI DUP1 PUSH4 0x42966C68 EQ PUSH2 0x547 JUMPI DUP1 PUSH4 0x45596E2E EQ PUSH2 0x55A JUMPI DUP1 PUSH4 0x491DF226 EQ PUSH2 0x56D JUMPI DUP1 PUSH4 0x5B6A7660 EQ PUSH2 0x575 JUMPI PUSH0 PUSH0 REVERT JUMPDEST DUP1 PUSH4 0x3B9E1AB0 EQ PUSH2 0x4E9 JUMPI DUP1 PUSH4 0x3F4BA83A EQ PUSH2 0x52C JUMPI DUP1 PUSH4 0x40C10F19 EQ PUSH2 0x534 JUMPI PUSH0 PUSH0 REVERT JUMPDEST DUP1 PUSH4 0x23B872DD GT PUSH2 0x341 JUMPI DUP1 PUSH4 0x313CE567 GT PUSH2 0x311 JUMPI DUP1 PUSH4 0x313CE567 EQ PUSH2 0x4AD JUMPI DUP1 PUSH4 0x32CB6B0C EQ PUSH2 0x4BC JUMPI DUP1 PUSH4 0x3644E515 EQ PUSH2 0x4CE JUMPI DUP1 PUSH4 0x36568ABE EQ PUSH2 0x4D6 JUMPI PUSH0 PUSH0 REVERT JUMPDEST DUP1 PUSH4 0x23B872DD EQ PUSH2 0x43C JUMPI DUP1 PUSH4 0x248A9CA3 EQ PUSH2 0x44F JUMPI DUP1 PUSH4 0x2A0276F8 EQ PUSH2 0x471 JUMPI DUP1 PUSH4 0x2F2FF15D EQ PUSH2 0x498 JUMPI PUSH0 PUSH0 REVERT JUMPDEST DUP1 PUSH4 0x78EA64E GT PUSH2 0x37C JUMPI DUP1 PUSH4 0x78EA64E EQ PUSH2 0x3F6 JUMPI DUP1 PUSH4 0x95EA7B3 EQ PUSH2 0x418 JUMPI DUP1 PUSH4 0x14504445 EQ PUSH2 0x42B JUMPI DUP1 PUSH4 0x18160DDD EQ PUSH2 0x434 JUMPI PUSH0 PUSH0 REVERT JUMPDEST DUP1 PUSH4 0x1FFC9A7 EQ PUSH2 0x3A2 JUMPI DUP1 PUSH4 0x5BF0A54 EQ PUSH2 0x3CA JUMPI DUP1 PUSH4 0x6FDDE03 EQ PUSH2 0x3E1 JUMPI JUMPDEST PUSH0 PUSH0 REVERT JUMPDEST PUSH2 0x3B5 PUSH2 0x3B0 CALLDATASIZE PUSH1 0x4 PUSH2 0x1EF6 JUMP JUMPDEST PUSH2 0x859 JUMP JUMPDEST PUSH1 0x40 MLOAD SWAP1 ISZERO ISZERO DUP2 MSTORE PUSH1 0x20 ADD JUMPDEST PUSH1 0x40 MLOAD DUP1 SWAP2 SUB SWAP1 RETURN JUMPDEST PUSH2 0x3D3 PUSH1 0xC SLOAD DUP2 JUMP JUMPDEST PUSH1 0x40 MLOAD SWAP1 DUP2 MSTORE PUSH1 0x20 ADD PUSH2 0x3C1 JUMP JUMPDEST PUSH2 0x3E9 PUSH2 0x88F JUMP JUMPDEST PUSH1 0x40 MLOAD PUSH2 0x3C1 SWAP2 SWAP1 PUSH2 0x1F52 JUMP JUMPDEST PUSH2 0x3B5 PUSH2 0x404 CALLDATASIZE PUSH1 0x4 PUSH2 0x1F7F JUMP JUMPDEST PUSH1 0x11 PUSH1 0x20 MSTORE PUSH0 SWAP1 DUP2 MSTORE PUSH1 0x40 SWAP1 KECCAK256 SLOAD PUSH1 0xFF AND DUP2 JUMP JUMPDEST PUSH2 0x3B5 PUSH2 0x426 CALLDATASIZE PUSH1 0x4 PUSH2 0x1F98 JUMP JUMPDEST PUSH2 0x91F JUMP JUMPDEST PUSH2 0x3D3 PUSH1 0xD SLOAD DUP2 JUMP JUMPDEST PUSH1 0x2 SLOAD PUSH2 0x3D3 JUMP JUMPDEST PUSH2 0x3B5 PUSH2 0x44A CALLDATASIZE PUSH1 0x4 PUSH2 0x1FC0 JUMP JUMPDEST PUSH2 0x936 JUMP JUMPDEST PUSH2 0x3D3 PUSH2 0x45D CALLDATASIZE PUSH1 0x4 PUSH2 0x1FFA JUMP JUMPDEST PUSH0 SWAP1 DUP2 MSTORE PUSH1 0x6 PUSH1 0x20 MSTORE PUSH1 0x40 SWAP1 KECCAK256 PUSH1 0x1 ADD SLOAD SWAP1 JUMP JUMPDEST PUSH2 0x3D3 PUSH32 0xF33FE78EB7C840E8BF68670029904B6F0DA8E79346941C278A4E7676D473DF15 DUP2 JUMP JUMPDEST PUSH2 0x4AB PUSH2 0x4A6 CALLDATASIZE PUSH1 0x4 PUSH2 0x2011 JUMP JUMPDEST PUSH2 0x959 JUMP JUMPDEST STOP JUMPDEST PUSH1 0x40 MLOAD PUSH1 0x12 DUP2 MSTORE PUSH1 0x20 ADD PUSH2 0x3C1 JUMP JUMPDEST PUSH2 0x3D3 PUSH11 0x52B7D2DCC80CD2E4000000 DUP2 JUMP JUMPDEST PUSH2 0x3D3 PUSH2 0x983 JUMP JUMPDEST PUSH2 0x4AB PUSH2 0x4E4 CALLDATASIZE PUSH1 0x4 PUSH2 0x2011 JUMP JUMPDEST PUSH2 0x991 JUMP JUMPDEST PUSH2 0x4F1 PUSH2 0x9C9 JUMP JUMPDEST PUSH1 0x40 DUP1 MLOAD SWAP9 DUP10 MSTORE PUSH1 0x20 DUP10 ADD SWAP8 SWAP1 SWAP8 MSTORE SWAP6 DUP8 ADD SWAP5 SWAP1 SWAP5 MSTORE PUSH1 0x60 DUP7 ADD SWAP3 SWAP1 SWAP3 MSTORE PUSH1 0x80 DUP6 ADD MSTORE PUSH1 0xA0 DUP5 ADD MSTORE PUSH1 0xC0 DUP4 ADD MSTORE PUSH1 0xE0 DUP3 ADD MSTORE PUSH2 0x100 ADD PUSH2 0x3C1 JUMP JUMPDEST PUSH2 0x4AB PUSH2 0xA10 JUMP JUMPDEST PUSH2 0x4AB PUSH2 0x542 CALLDATASIZE PUSH1 0x4 PUSH2 0x1F98 JUMP JUMPDEST PUSH2 0xA45 JUMP JUMPDEST PUSH2 0x4AB PUSH2 0x555 CALLDATASIZE PUSH1 0x4 PUSH2 0x1FFA JUMP JUMPDEST PUSH2 0xAE1 JUMP JUMPDEST PUSH2 0x4AB PUSH2 0x568 CALLDATASIZE PUSH1 0x4 PUSH2 0x1FFA JUMP JUMPDEST PUSH2 0xAEB JUMP JUMPDEST PUSH2 0x4AB PUSH2 0xB35 JUMP JUMPDEST PUSH2 0x4AB PUSH2 0x583 CALLDATASIZE PUSH1 0x4 PUSH2 0x203B JUMP JUMPDEST PUSH2 0xD76 JUMP JUMPDEST PUSH1 0x5 SLOAD PUSH1 0xFF AND PUSH2 0x3B5 JUMP JUMPDEST PUSH2 0x3D3 PUSH1 0x18 SLOAD DUP2 JUMP JUMPDEST PUSH2 0x3D3 PUSH1 0x14 SLOAD DUP2 JUMP JUMPDEST PUSH1 0xF SLOAD PUSH2 0x5B8 SWAP1 PUSH1 0x1 PUSH1 0x1 PUSH1 0xA0 SHL SUB AND DUP2 JUMP JUMPDEST PUSH1 0x40 MLOAD PUSH1 0x1 PUSH1 0x1 PUSH1 0xA0 SHL SUB SWAP1 SWAP2 AND DUP2 MSTORE PUSH1 0x20 ADD PUSH2 0x3C1 JUMP JUMPDEST PUSH2 0x3D3 PUSH2 0x5DE CALLDATASIZE PUSH1 0x4 PUSH2 0x1F7F JUMP JUMPDEST PUSH1 0x1 PUSH1 0x1 PUSH1 0xA0 SHL SUB AND PUSH0 SWAP1 DUP2 MSTORE PUSH1 0x20 DUP2 SWAP1 MSTORE PUSH1 0x40 SWAP1 KECCAK256 SLOAD SWAP1 JUMP JUMPDEST PUSH2 0x3D3 PUSH1 0x15 SLOAD DUP2 JUMP JUMPDEST PUSH2 0x3D3 PUSH1 0xA SLOAD DUP2 JUMP JUMPDEST PUSH2 0x4AB PUSH2 0xDDB JUMP JUMPDEST PUSH2 0x4AB PUSH2 0x620 CALLDATASIZE PUSH1 0x4 PUSH2 0x1F98 JUMP JUMPDEST PUSH2 0xFBE JUMP JUMPDEST PUSH2 0x3D3 PUSH2 0x633 CALLDATASIZE PUSH1 0x4 PUSH2 0x1F7F JUMP JUMPDEST PUSH2 0xFD7 JUMP JUMPDEST PUSH2 0x4AB PUSH2 0x646 CALLDATASIZE PUSH1 0x4 PUSH2 0x1F7F JUMP JUMPDEST PUSH2 0xFF4 JUMP JUMPDEST PUSH2 0x4AB PUSH2 0x1013 JUMP JUMPDEST PUSH2 0x65B PUSH2 0x1045 JUMP JUMPDEST PUSH1 0x40 MLOAD PUSH2 0x3C1 SWAP8 SWAP7 SWAP6 SWAP5 SWAP4 SWAP3 SWAP2 SWAP1 PUSH2 0x205B JUMP JUMPDEST PUSH2 0x3D3 PUSH1 0x16 SLOAD DUP2 JUMP JUMPDEST PUSH2 0x3D3 PUSH2 0x1087 JUMP JUMPDEST PUSH2 0x4AB PUSH2 0x68D CALLDATASIZE PUSH1 0x4 PUSH2 0x1FFA JUMP JUMPDEST PUSH2 0x1098 JUMP JUMPDEST PUSH2 0x3B5 PUSH2 0x6A0 CALLDATASIZE PUSH1 0x4 PUSH2 0x2011 JUMP JUMPDEST PUSH2 0x10E4 JUMP JUMPDEST PUSH2 0x3D3 PUSH2 0x3E7 DUP2 JUMP JUMPDEST PUSH1 0x40 DUP1 MLOAD DUP1 DUP3 ADD SWAP1 SWAP2 MSTORE PUSH1 0x9 DUP2 MSTORE PUSH9 0x312E30302055534443 PUSH1 0xB8 SHL PUSH1 0x20 DUP3 ADD MSTORE PUSH2 0x3E9 JUMP JUMPDEST PUSH2 0x3E9 PUSH2 0x110E JUMP JUMPDEST PUSH2 0x3D3 PUSH1 0xB SLOAD DUP2 JUMP JUMPDEST PUSH2 0x3D3 PUSH2 0x6F2 CALLDATASIZE PUSH1 0x4 PUSH2 0x20F1 JUMP JUMPDEST PUSH2 0x111D JUMP JUMPDEST PUSH2 0x3D3 PUSH0 DUP2 JUMP JUMPDEST PUSH2 0x4AB PUSH2 0x70C CALLDATASIZE PUSH1 0x4 PUSH2 0x1F7F JUMP JUMPDEST PUSH2 0x12B9 JUMP JUMPDEST PUSH2 0x3D3 PUSH1 0x10 SLOAD DUP2 JUMP JUMPDEST PUSH2 0x3B5 PUSH2 0x728 CALLDATASIZE PUSH1 0x4 PUSH2 0x1F98 JUMP JUMPDEST PUSH2 0x1326 JUMP JUMPDEST PUSH2 0x3D3 PUSH9 0x1B1AE4D6E2EF500000 DUP2 JUMP JUMPDEST PUSH1 0xE SLOAD PUSH2 0x5B8 SWAP1 PUSH1 0x1 PUSH1 0x1 PUSH1 0xA0 SHL SUB AND DUP2 JUMP JUMPDEST PUSH2 0x3D3 PUSH11 0x84595161401484A000000 DUP2 JUMP JUMPDEST PUSH2 0x4AB PUSH2 0x770 CALLDATASIZE PUSH1 0x4 PUSH2 0x2174 JUMP JUMPDEST PUSH2 0x1333 JUMP JUMPDEST PUSH2 0x3D3 PUSH32 0x9F2DF0FED2C77648DE5860A4CC508CD0818C85B8B8A1AB4CEEEF8D981C8956A6 DUP2 JUMP JUMPDEST PUSH2 0x4AB PUSH2 0x7AA CALLDATASIZE PUSH1 0x4 PUSH2 0x2011 JUMP JUMPDEST PUSH2 0x1469 JUMP JUMPDEST PUSH2 0x3D3 PUSH2 0x148D JUMP JUMPDEST PUSH2 0x3D3 PUSH2 0x7C5 CALLDATASIZE PUSH1 0x4 PUSH2 0x21E1 JUMP JUMPDEST PUSH1 0x1 PUSH1 0x1 PUSH1 0xA0 SHL SUB SWAP2 DUP3 AND PUSH0 SWAP1 DUP2 MSTORE PUSH1 0x1 PUSH1 0x20 SWAP1 DUP2 MSTORE PUSH1 0x40 DUP1 DUP4 KECCAK256 SWAP4 SWAP1 SWAP5 AND DUP3 MSTORE SWAP2 SWAP1 SWAP2 MSTORE KECCAK256 SLOAD SWAP1 JUMP JUMPDEST PUSH2 0x3D3 PUSH2 0x7FD CALLDATASIZE PUSH1 0x4 PUSH2 0x1F7F JUMP JUMPDEST PUSH1 0x12 PUSH1 0x20 MSTORE PUSH0 SWAP1 DUP2 MSTORE PUSH1 0x40 SWAP1 KECCAK256 SLOAD DUP2 JUMP JUMPDEST PUSH2 0x3D3 PUSH1 0x17 SLOAD DUP2 JUMP JUMPDEST PUSH2 0x3D3 PUSH32 0x65D7A28E3265B37A6474929F336521B332C1681B933F6CB9F3376673440D862A DUP2 JUMP JUMPDEST PUSH1 0x13 SLOAD PUSH2 0x3D3 JUMP JUMPDEST PUSH2 0x4AB PUSH2 0x854 CALLDATASIZE PUSH1 0x4 PUSH2 0x1F7F JUMP JUMPDEST PUSH2 0x14AC JUMP JUMPDEST PUSH0 PUSH1 0x1 PUSH1 0x1 PUSH1 0xE0 SHL SUB NOT DUP3 AND PUSH4 0x7965DB0B PUSH1 0xE0 SHL EQ DUP1 PUSH2 0x889 JUMPI POP PUSH4 0x1FFC9A7 PUSH1 0xE0 SHL PUSH1 0x1 PUSH1 0x1 PUSH1 0xE0 SHL SUB NOT DUP4 AND EQ JUMPDEST SWAP3 SWAP2 POP POP JUMP JUMPDEST PUSH1 0x60 PUSH1 0x3 DUP1 SLOAD PUSH2 0x89E SWAP1 PUSH2 0x2209 JUMP JUMPDEST DUP1 PUSH1 0x1F ADD PUSH1 0x20 DUP1 SWAP2 DIV MUL PUSH1 0x20 ADD PUSH1 0x40 MLOAD SWAP1 DUP2 ADD PUSH1 0x40 MSTORE DUP1 SWAP3 SWAP2 SWAP1 DUP2 DUP2 MSTORE PUSH1 0x20 ADD DUP3 DUP1 SLOAD PUSH2 0x8CA SWAP1 PUSH2 0x2209 JUMP JUMPDEST DUP1 ISZERO PUSH2 0x915 JUMPI DUP1 PUSH1 0x1F LT PUSH2 0x8EC JUMPI PUSH2 0x100 DUP1 DUP4 SLOAD DIV MUL DUP4 MSTORE SWAP2 PUSH1 0x20 ADD SWAP2 PUSH2 0x915 JUMP JUMPDEST DUP3 ADD SWAP2 SWAP1 PUSH0 MSTORE PUSH1 0x20 PUSH0 KECCAK256 SWAP1 JUMPDEST DUP2 SLOAD DUP2 MSTORE SWAP1 PUSH1 0x1 ADD SWAP1 PUSH1 0x20 ADD DUP1 DUP4 GT PUSH2 0x8F8 JUMPI DUP3 SWAP1 SUB PUSH1 0x1F AND DUP3 ADD SWAP2 JUMPDEST POP POP POP POP POP SWAP1 POP SWAP1 JUMP JUMPDEST PUSH0 CALLER PUSH2 0x92C DUP2 DUP6 DUP6 PUSH2 0x1519 JUMP JUMPDEST POP PUSH1 0x1 SWAP4 SWAP3 POP POP POP JUMP JUMPDEST PUSH0 CALLER PUSH2 0x943 DUP6 DUP3 DUP6 PUSH2 0x1526 JUMP JUMPDEST PUSH2 0x94E DUP6 DUP6 DUP6 PUSH2 0x159C JUMP JUMPDEST POP PUSH1 0x1 SWAP5 SWAP4 POP POP POP POP JUMP JUMPDEST PUSH0 DUP3 DUP2 MSTORE PUSH1 0x6 PUSH1 0x20 MSTORE PUSH1 0x40 SWAP1 KECCAK256 PUSH1 0x1 ADD SLOAD PUSH2 0x973 DUP2 PUSH2 0x15F9 JUMP JUMPDEST PUSH2 0x97D DUP4 DUP4 PUSH2 0x1603 JUMP JUMPDEST POP POP POP POP JUMP JUMPDEST PUSH0 PUSH2 0x98C PUSH2 0x1694 JUMP JUMPDEST SWAP1 POP SWAP1 JUMP JUMPDEST PUSH1 0x1 PUSH1 0x1 PUSH1 0xA0 SHL SUB DUP2 AND CALLER EQ PUSH2 0x9BA JUMPI PUSH1 0x40 MLOAD PUSH4 0x334BD919 PUSH1 0xE1 SHL DUP2 MSTORE PUSH1 0x4 ADD PUSH1 0x40 MLOAD DUP1 SWAP2 SUB SWAP1 REVERT JUMPDEST PUSH2 0x9C4 DUP3 DUP3 PUSH2 0x17BD JUMP JUMPDEST POP POP POP JUMP JUMPDEST PUSH0 PUSH0 PUSH0 PUSH0 PUSH0 PUSH0 PUSH0 PUSH0 PUSH2 0x9DA PUSH1 0x2 SLOAD SWAP1 JUMP JUMPDEST PUSH1 0x14 SLOAD PUSH1 0x15 SLOAD PUSH1 0x16 SLOAD PUSH1 0x17 SLOAD PUSH1 0x10 SLOAD PUSH1 0xA SLOAD SWAP6 SWAP15 PUSH11 0x52B7D2DCC80CD2E4000000 SWAP15 POP SWAP5 SWAP13 POP SWAP3 SWAP11 POP SWAP1 SWAP9 POP SWAP7 POP SWAP5 POP SWAP1 SWAP3 POP SWAP1 POP JUMP JUMPDEST PUSH32 0x65D7A28E3265B37A6474929F336521B332C1681B933F6CB9F3376673440D862A PUSH2 0xA3A DUP2 PUSH2 0x15F9 JUMP JUMPDEST PUSH2 0xA42 PUSH2 0x1828 JUMP JUMPDEST POP JUMP JUMPDEST PUSH32 0x9F2DF0FED2C77648DE5860A4CC508CD0818C85B8B8A1AB4CEEEF8D981C8956A6 PUSH2 0xA6F DUP2 PUSH2 0x15F9 JUMP JUMPDEST PUSH11 0x52B7D2DCC80CD2E4000000 DUP3 PUSH2 0xA85 PUSH1 0x2 SLOAD SWAP1 JUMP JUMPDEST PUSH2 0xA8F SWAP2 SWAP1 PUSH2 0x2255 JUMP JUMPDEST GT ISZERO PUSH2 0xAD7 JUMPI PUSH1 0x40 MLOAD PUSH3 0x461BCD PUSH1 0xE5 SHL DUP2 MSTORE PUSH1 0x20 PUSH1 0x4 DUP3 ADD MSTORE PUSH1 0x12 PUSH1 0x24 DUP3 ADD MSTORE PUSH18 0x45786365656473206D617820737570706C79 PUSH1 0x70 SHL PUSH1 0x44 DUP3 ADD MSTORE PUSH1 0x64 ADD JUMPDEST PUSH1 0x40 MLOAD DUP1 SWAP2 SUB SWAP1 REVERT JUMPDEST PUSH2 0x9C4 DUP4 DUP4 PUSH2 0x187A JUMP JUMPDEST PUSH2 0xA42 CALLER DUP3 PUSH2 0x18AE JUMP JUMPDEST PUSH0 PUSH2 0xAF5 DUP2 PUSH2 0x15F9 JUMP JUMPDEST PUSH1 0x64 DUP3 GT ISZERO PUSH2 0xB2F JUMPI PUSH1 0x40 MLOAD PUSH3 0x461BCD PUSH1 0xE5 SHL DUP2 MSTORE PUSH1 0x20 PUSH1 0x4 DUP3 ADD MSTORE PUSH1 0x6 PUSH1 0x24 DUP3 ADD MSTORE PUSH6 0x4D6178203125 PUSH1 0xD0 SHL PUSH1 0x44 DUP3 ADD MSTORE PUSH1 0x64 ADD PUSH2 0xACE JUMP JUMPDEST POP PUSH1 0xB SSTORE JUMP JUMPDEST PUSH0 PUSH2 0xB3F DUP2 PUSH2 0x15F9 JUMP JUMPDEST PUSH1 0xE SLOAD PUSH1 0x1 PUSH1 0x1 PUSH1 0xA0 SHL SUB AND PUSH0 SWAP1 DUP2 MSTORE PUSH1 0x20 DUP2 SWAP1 MSTORE PUSH1 0x40 SWAP1 KECCAK256 SLOAD DUP1 PUSH2 0xB9B JUMPI PUSH1 0x40 MLOAD PUSH3 0x461BCD PUSH1 0xE5 SHL DUP2 MSTORE PUSH1 0x20 PUSH1 0x4 DUP3 ADD MSTORE PUSH1 0x12 PUSH1 0x24 DUP3 ADD MSTORE PUSH18 0x4E6F206665657320746F2070726F63657373 PUSH1 0x70 SHL PUSH1 0x44 DUP3 ADD MSTORE PUSH1 0x64 ADD PUSH2 0xACE JUMP JUMPDEST PUSH1 0x13 SLOAD PUSH2 0xBDF JUMPI PUSH1 0x40 MLOAD PUSH3 0x461BCD PUSH1 0xE5 SHL DUP2 MSTORE PUSH1 0x20 PUSH1 0x4 DUP3 ADD MSTORE PUSH1 0x12 PUSH1 0x24 DUP3 ADD MSTORE PUSH18 0x4E6F2047656E6573697320686F6C64657273 PUSH1 0x70 SHL PUSH1 0x44 DUP3 ADD MSTORE PUSH1 0x64 ADD PUSH2 0xACE JUMP JUMPDEST PUSH0 PUSH1 0x64 PUSH1 0xC SLOAD DUP4 PUSH2 0xBF0 SWAP2 SWAP1 PUSH2 0x2268 JUMP JUMPDEST PUSH2 0xBFA SWAP2 SWAP1 PUSH2 0x227F JUMP JUMPDEST SWAP1 POP PUSH0 PUSH1 0x64 PUSH1 0xD SLOAD DUP5 PUSH2 0xC0D SWAP2 SWAP1 PUSH2 0x2268 JUMP JUMPDEST PUSH2 0xC17 SWAP2 SWAP1 PUSH2 0x227F JUMP JUMPDEST SWAP1 POP DUP2 ISZERO PUSH2 0xC4C JUMPI PUSH1 0xE SLOAD PUSH2 0xC35 SWAP1 PUSH1 0x1 PUSH1 0x1 PUSH1 0xA0 SHL SUB AND DUP4 PUSH2 0x18AE JUMP JUMPDEST DUP2 PUSH1 0x15 PUSH0 DUP3 DUP3 SLOAD PUSH2 0xC46 SWAP2 SWAP1 PUSH2 0x2255 JUMP JUMPDEST SWAP1 SWAP2 SSTORE POP POP JUMPDEST PUSH1 0x13 SLOAD PUSH0 SWAP1 PUSH2 0xC5B SWAP1 DUP4 PUSH2 0x227F JUMP JUMPDEST SWAP1 POP DUP1 ISZERO PUSH2 0xD11 JUMPI PUSH0 JUMPDEST PUSH1 0x13 SLOAD DUP2 LT ISZERO PUSH2 0xCF9 JUMPI PUSH1 0x11 PUSH0 PUSH1 0x13 DUP4 DUP2 SLOAD DUP2 LT PUSH2 0xC85 JUMPI PUSH2 0xC85 PUSH2 0x229E JUMP JUMPDEST PUSH0 SWAP2 DUP3 MSTORE PUSH1 0x20 DUP1 DUP4 KECCAK256 SWAP1 SWAP2 ADD SLOAD PUSH1 0x1 PUSH1 0x1 PUSH1 0xA0 SHL SUB AND DUP4 MSTORE DUP3 ADD SWAP3 SWAP1 SWAP3 MSTORE PUSH1 0x40 ADD SWAP1 KECCAK256 SLOAD PUSH1 0xFF AND ISZERO PUSH2 0xCF1 JUMPI PUSH1 0xE SLOAD PUSH1 0x13 DUP1 SLOAD PUSH2 0xCF1 SWAP3 PUSH1 0x1 PUSH1 0x1 PUSH1 0xA0 SHL SUB AND SWAP2 SWAP1 DUP5 SWAP1 DUP2 LT PUSH2 0xCD7 JUMPI PUSH2 0xCD7 PUSH2 0x229E JUMP JUMPDEST PUSH0 SWAP2 DUP3 MSTORE PUSH1 0x20 SWAP1 SWAP2 KECCAK256 ADD SLOAD PUSH1 0x1 PUSH1 0x1 PUSH1 0xA0 SHL SUB AND DUP5 PUSH2 0x159C JUMP JUMPDEST PUSH1 0x1 ADD PUSH2 0xC65 JUMP JUMPDEST POP DUP2 PUSH1 0x16 PUSH0 DUP3 DUP3 SLOAD PUSH2 0xD0B SWAP2 SWAP1 PUSH2 0x2255 JUMP JUMPDEST SWAP1 SWAP2 SSTORE POP POP JUMPDEST PUSH32 0x5599ED0024D1D97FBD94E4D7FB2DCE4F8A96B17A171844FE2B0FE06CC9A2938F DUP4 DUP4 DUP1 PUSH2 0xD3F DUP4 DUP10 PUSH2 0x22B2 JUMP JUMPDEST PUSH2 0xD49 SWAP2 SWAP1 PUSH2 0x22B2 JUMP JUMPDEST PUSH1 0x13 SLOAD PUSH1 0x40 DUP1 MLOAD SWAP5 DUP6 MSTORE PUSH1 0x20 DUP6 ADD SWAP4 SWAP1 SWAP4 MSTORE SWAP2 DUP4 ADD MSTORE PUSH1 0x60 DUP3 ADD MSTORE PUSH1 0x80 ADD PUSH1 0x40 MLOAD DUP1 SWAP2 SUB SWAP1 LOG1 POP POP POP POP POP JUMP JUMPDEST PUSH0 PUSH2 0xD80 DUP2 PUSH2 0x15F9 JUMP JUMPDEST PUSH1 0x64 PUSH2 0xD8C DUP4 DUP6 PUSH2 0x2255 JUMP JUMPDEST GT ISZERO PUSH2 0xDCF JUMPI PUSH1 0x40 MLOAD PUSH3 0x461BCD PUSH1 0xE5 SHL DUP2 MSTORE PUSH1 0x20 PUSH1 0x4 DUP3 ADD MSTORE PUSH1 0x12 PUSH1 0x24 DUP3 ADD MSTORE PUSH18 0x53756D206D757374206265203C3D2031303 PUSH1 0x74 SHL PUSH1 0x44 DUP3 ADD MSTORE PUSH1 0x64 ADD PUSH2 0xACE JUMP JUMPDEST POP PUSH1 0xC SWAP2 SWAP1 SWAP2 SSTORE PUSH1 0xD SSTORE JUMP JUMPDEST PUSH2 0x3E7 PUSH1 0x10 SLOAD LT PUSH2 0xE2E JUMPI PUSH1 0x40 MLOAD PUSH3 0x461BCD PUSH1 0xE5 SHL DUP2 MSTORE PUSH1 0x20 PUSH1 0x4 DUP3 ADD MSTORE PUSH1 0x19 PUSH1 0x24 DUP3 ADD MSTORE PUSH32 0x416C6C2047656E6573697320736C6F747320636C61696D656400000000000000 PUSH1 0x44 DUP3 ADD MSTORE PUSH1 0x64 ADD PUSH2 0xACE JUMP JUMPDEST CALLER PUSH0 SWAP1 DUP2 MSTORE PUSH1 0x11 PUSH1 0x20 MSTORE PUSH1 0x40 SWAP1 KECCAK256 SLOAD PUSH1 0xFF AND ISZERO PUSH2 0xE8D JUMPI PUSH1 0x40 MLOAD PUSH3 0x461BCD PUSH1 0xE5 SHL DUP2 MSTORE PUSH1 0x20 PUSH1 0x4 DUP3 ADD MSTORE PUSH1 0x18 PUSH1 0x24 DUP3 ADD MSTORE PUSH32 0x416C726561647920612047656E65736973206D656D6265720000000000000000 PUSH1 0x44 DUP3 ADD MSTORE PUSH1 0x64 ADD PUSH2 0xACE JUMP JUMPDEST CALLER PUSH0 SWAP1 DUP2 MSTORE PUSH1 0x20 DUP2 SWAP1 MSTORE PUSH1 0x40 SWAP1 KECCAK256 SLOAD PUSH9 0x1B1AE4D6E2EF500000 GT ISZERO PUSH2 0xEE4 JUMPI PUSH1 0x40 MLOAD PUSH3 0x461BCD PUSH1 0xE5 SHL DUP2 MSTORE PUSH1 0x20 PUSH1 0x4 DUP3 ADD MSTORE PUSH1 0xD PUSH1 0x24 DUP3 ADD MSTORE PUSH13 0x4E65656420353030204B415553 PUSH1 0x98 SHL PUSH1 0x44 DUP3 ADD MSTORE PUSH1 0x64 ADD PUSH2 0xACE JUMP JUMPDEST PUSH1 0x10 DUP1 SLOAD SWAP1 PUSH0 PUSH2 0xEF3 DUP4 PUSH2 0x22C5 JUMP JUMPDEST SWAP1 SWAP2 SSTORE POP POP CALLER PUSH0 DUP2 DUP2 MSTORE PUSH1 0x11 PUSH1 0x20 SWAP1 DUP2 MSTORE PUSH1 0x40 DUP1 DUP4 KECCAK256 DUP1 SLOAD PUSH1 0xFF NOT AND PUSH1 0x1 SWAP1 DUP2 OR SWAP1 SWAP2 SSTORE PUSH1 0x10 SLOAD PUSH1 0x12 SWAP1 SWAP4 MSTORE SWAP1 DUP4 KECCAK256 SWAP2 SWAP1 SWAP2 SSTORE PUSH1 0x13 DUP1 SLOAD SWAP2 DUP3 ADD DUP2 SSTORE SWAP1 SWAP2 MSTORE PUSH32 0x66DE8FFDA797E3DE9C05E8FC57B3BF0EC28A930D40B0D285D93C06501CF6A090 ADD DUP1 SLOAD PUSH1 0x1 PUSH1 0x1 PUSH1 0xA0 SHL SUB NOT AND DUP3 OR SWAP1 SSTORE PUSH1 0xF SLOAD PUSH2 0xF84 SWAP2 SWAP1 PUSH1 0x1 PUSH1 0x1 PUSH1 0xA0 SHL SUB AND PUSH9 0x1B1AE4D6E2EF500000 PUSH2 0x159C JUMP JUMPDEST PUSH1 0x10 SLOAD PUSH1 0x40 MLOAD SWAP1 DUP2 MSTORE CALLER SWAP1 PUSH32 0xB7D0E62C6FF422BBA5B164F980C696CD5C907D96924A2BA929728BE2460B5706 SWAP1 PUSH1 0x20 ADD PUSH1 0x40 MLOAD DUP1 SWAP2 SUB SWAP1 LOG2 JUMP JUMPDEST PUSH2 0xFC9 DUP3 CALLER DUP4 PUSH2 0x1526 JUMP JUMPDEST PUSH2 0xFD3 DUP3 DUP3 PUSH2 0x18AE JUMP JUMPDEST POP POP JUMP JUMPDEST PUSH1 0x1 PUSH1 0x1 PUSH1 0xA0 SHL SUB DUP2 AND PUSH0 SWAP1 DUP2 MSTORE PUSH1 0x9 PUSH1 0x20 MSTORE PUSH1 0x40 DUP2 KECCAK256 SLOAD PUSH2 0x889 JUMP JUMPDEST PUSH0 PUSH2 0xFFE DUP2 PUSH2 0x15F9 JUMP JUMPDEST PUSH2 0x1008 PUSH0 DUP4 PUSH2 0x1603 JUMP JUMPDEST POP PUSH2 0x9C4 PUSH0 CALLER PUSH2 0x17BD JUMP JUMPDEST PUSH32 0x65D7A28E3265B37A6474929F336521B332C1681B933F6CB9F3376673440D862A PUSH2 0x103D DUP2 PUSH2 0x15F9 JUMP JUMPDEST PUSH2 0xA42 PUSH2 0x18E2 JUMP JUMPDEST PUSH0 PUSH1 0x60 DUP1 PUSH0 PUSH0 PUSH0 PUSH1 0x60 PUSH2 0x1056 PUSH2 0x191F JUMP JUMPDEST PUSH2 0x105E PUSH2 0x194C JUMP JUMPDEST PUSH1 0x40 DUP1 MLOAD PUSH0 DUP1 DUP3 MSTORE PUSH1 0x20 DUP3 ADD SWAP1 SWAP3 MSTORE PUSH1 0xF PUSH1 0xF8 SHL SWAP12 SWAP4 SWAP11 POP SWAP2 SWAP9 POP CHAINID SWAP8 POP ADDRESS SWAP7 POP SWAP5 POP SWAP3 POP SWAP1 POP JUMP JUMPDEST PUSH0 PUSH1 0x10 SLOAD PUSH2 0x3E7 PUSH2 0x98C SWAP2 SWAP1 PUSH2 0x22B2 JUMP JUMPDEST PUSH0 PUSH2 0x10A2 DUP2 PUSH2 0x15F9 JUMP JUMPDEST PUSH1 0xA SLOAD PUSH1 0x40 DUP1 MLOAD SWAP2 DUP3 MSTORE PUSH1 0x20 DUP3 ADD DUP5 SWAP1 MSTORE PUSH32 0x945C1C4E99AA89F648FBFE3DF471B916F719E16D960FCEC0737D4D56BD696838 SWAP2 ADD PUSH1 0x40 MLOAD DUP1 SWAP2 SUB SWAP1 LOG1 POP PUSH1 0xA SSTORE JUMP JUMPDEST PUSH0 SWAP2 DUP3 MSTORE PUSH1 0x6 PUSH1 0x20 SWAP1 DUP2 MSTORE PUSH1 0x40 DUP1 DUP5 KECCAK256 PUSH1 0x1 PUSH1 0x1 PUSH1 0xA0 SHL SUB SWAP4 SWAP1 SWAP4 AND DUP5 MSTORE SWAP2 SWAP1 MSTORE SWAP1 KECCAK256 SLOAD PUSH1 0xFF AND SWAP1 JUMP JUMPDEST PUSH1 0x60 PUSH1 0x4 DUP1 SLOAD PUSH2 0x89E SWAP1 PUSH2 0x2209 JUMP JUMPDEST PUSH0 PUSH32 0xF33FE78EB7C840E8BF68670029904B6F0DA8E79346941C278A4E7676D473DF15 PUSH2 0x1148 DUP2 PUSH2 0x15F9 JUMP JUMPDEST PUSH2 0x2710 PUSH1 0xB SLOAD DUP7 PUSH2 0x1159 SWAP2 SWAP1 PUSH2 0x2268 JUMP JUMPDEST PUSH2 0x1163 SWAP2 SWAP1 PUSH2 0x227F JUMP JUMPDEST SWAP2 POP PUSH0 DUP3 GT PUSH2 0x11A4 JUMPI PUSH1 0x40 MLOAD PUSH3 0x461BCD PUSH1 0xE5 SHL DUP2 MSTORE PUSH1 0x20 PUSH1 0x4 DUP3 ADD MSTORE PUSH1 0xD PUSH1 0x24 DUP3 ADD MSTORE PUSH13 0x119959481D1BDBC81CDB585B1B PUSH1 0x9A SHL PUSH1 0x44 DUP3 ADD MSTORE PUSH1 0x64 ADD PUSH2 0xACE JUMP JUMPDEST DUP2 PUSH2 0x11C3 DUP8 PUSH1 0x1 PUSH1 0x1 PUSH1 0xA0 SHL SUB AND PUSH0 SWAP1 DUP2 MSTORE PUSH1 0x20 DUP2 SWAP1 MSTORE PUSH1 0x40 SWAP1 KECCAK256 SLOAD SWAP1 JUMP JUMPDEST LT ISZERO PUSH2 0x1211 JUMPI PUSH1 0x40 MLOAD PUSH3 0x461BCD PUSH1 0xE5 SHL DUP2 MSTORE PUSH1 0x20 PUSH1 0x4 DUP3 ADD MSTORE PUSH1 0x19 PUSH1 0x24 DUP3 ADD MSTORE PUSH32 0x496E73756666696369656E74204B4155532062616C616E636500000000000000 PUSH1 0x44 DUP3 ADD MSTORE PUSH1 0x64 ADD PUSH2 0xACE JUMP JUMPDEST PUSH1 0xE SLOAD PUSH2 0x1229 SWAP1 DUP8 SWAP1 PUSH1 0x1 PUSH1 0x1 PUSH1 0xA0 SHL SUB AND DUP5 PUSH2 0x159C JUMP JUMPDEST DUP2 PUSH1 0x14 PUSH0 DUP3 DUP3 SLOAD PUSH2 0x123A SWAP2 SWAP1 PUSH2 0x2255 JUMP JUMPDEST SWAP3 POP POP DUP2 SWAP1 SSTORE POP DUP5 PUSH1 0x18 PUSH0 DUP3 DUP3 SLOAD PUSH2 0x1252 SWAP2 SWAP1 PUSH2 0x2255 JUMP JUMPDEST SWAP1 SWAP2 SSTORE POP POP PUSH1 0x17 DUP1 SLOAD SWAP1 PUSH0 PUSH2 0x1266 DUP4 PUSH2 0x22C5 JUMP JUMPDEST SWAP2 SWAP1 POP SSTORE POP DUP6 PUSH1 0x1 PUSH1 0x1 PUSH1 0xA0 SHL SUB AND PUSH32 0xBDE344B6F67C3BF7E0ECBBF22B04267D5D3AE0AA1909C0000B812F6B14CE45B9 DUP4 DUP7 DUP7 PUSH1 0x40 MLOAD PUSH2 0x12A8 SWAP4 SWAP3 SWAP2 SWAP1 PUSH2 0x22DD JUMP JUMPDEST PUSH1 0x40 MLOAD DUP1 SWAP2 SUB SWAP1 LOG2 POP SWAP5 SWAP4 POP POP POP POP JUMP JUMPDEST PUSH0 PUSH2 0x12C3 DUP2 PUSH2 0x15F9 JUMP JUMPDEST PUSH1 0x1 PUSH1 0x1 PUSH1 0xA0 SHL SUB DUP3 AND PUSH2 0x1303 JUMPI PUSH1 0x40 MLOAD PUSH3 0x461BCD PUSH1 0xE5 SHL DUP2 MSTORE PUSH1 0x20 PUSH1 0x4 DUP3 ADD MSTORE PUSH1 0x7 PUSH1 0x24 DUP3 ADD MSTORE PUSH7 0x125B9D985B1A59 PUSH1 0xCA SHL PUSH1 0x44 DUP3 ADD MSTORE PUSH1 0x64 ADD PUSH2 0xACE JUMP JUMPDEST POP PUSH1 0xE DUP1 SLOAD PUSH1 0x1 PUSH1 0x1 PUSH1 0xA0 SHL SUB NOT AND PUSH1 0x1 PUSH1 0x1 PUSH1 0xA0 SHL SUB SWAP3 SWAP1 SWAP3 AND SWAP2 SWAP1 SWAP2 OR SWAP1 SSTORE JUMP JUMPDEST PUSH0 CALLER PUSH2 0x92C DUP2 DUP6 DUP6 PUSH2 0x159C JUMP JUMPDEST DUP4 TIMESTAMP GT ISZERO PUSH2 0x1357 JUMPI PUSH1 0x40 MLOAD PUSH4 0x313C8981 PUSH1 0xE1 SHL DUP2 MSTORE PUSH1 0x4 DUP2 ADD DUP6 SWAP1 MSTORE PUSH1 0x24 ADD PUSH2 0xACE JUMP JUMPDEST PUSH0 PUSH32 0x6E71EDAE12B1B97F4D1F60370FEF10105FA2FAAE0126114A169C64845D6126C9 DUP9 DUP9 DUP9 PUSH2 0x13A2 DUP13 PUSH1 0x1 PUSH1 0x1 PUSH1 0xA0 SHL SUB AND PUSH0 SWAP1 DUP2 MSTORE PUSH1 0x9 PUSH1 0x20 MSTORE PUSH1 0x40 SWAP1 KECCAK256 DUP1 SLOAD PUSH1 0x1 DUP2 ADD SWAP1 SWAP2 SSTORE SWAP1 JUMP JUMPDEST PUSH1 0x40 DUP1 MLOAD PUSH1 0x20 DUP2 ADD SWAP7 SWAP1 SWAP7 MSTORE PUSH1 0x1 PUSH1 0x1 PUSH1 0xA0 SHL SUB SWAP5 DUP6 AND SWAP1 DUP7 ADD MSTORE SWAP3 SWAP1 SWAP2 AND PUSH1 0x60 DUP5 ADD MSTORE PUSH1 0x80 DUP4 ADD MSTORE PUSH1 0xA0 DUP3 ADD MSTORE PUSH1 0xC0 DUP2 ADD DUP7 SWAP1 MSTORE PUSH1 0xE0 ADD PUSH1 0x40 MLOAD PUSH1 0x20 DUP2 DUP4 SUB SUB DUP2 MSTORE SWAP1 PUSH1 0x40 MSTORE DUP1 MLOAD SWAP1 PUSH1 0x20 ADD KECCAK256 SWAP1 POP PUSH0 PUSH2 0x13FC DUP3 PUSH2 0x1979 JUMP JUMPDEST SWAP1 POP PUSH0 PUSH2 0x140B DUP3 DUP8 DUP8 DUP8 PUSH2 0x19A5 JUMP JUMPDEST SWAP1 POP DUP10 PUSH1 0x1 PUSH1 0x1 PUSH1 0xA0 SHL SUB AND DUP2 PUSH1 0x1 PUSH1 0x1 PUSH1 0xA0 SHL SUB AND EQ PUSH2 0x1452 JUMPI PUSH1 0x40 MLOAD PUSH4 0x25C00723 PUSH1 0xE1 SHL DUP2 MSTORE PUSH1 0x1 PUSH1 0x1 PUSH1 0xA0 SHL SUB DUP1 DUP4 AND PUSH1 0x4 DUP4 ADD MSTORE DUP12 AND PUSH1 0x24 DUP3 ADD MSTORE PUSH1 0x44 ADD PUSH2 0xACE JUMP JUMPDEST PUSH2 0x145D DUP11 DUP11 DUP11 PUSH2 0x1519 JUMP JUMPDEST POP POP POP POP POP POP POP POP POP POP JUMP JUMPDEST PUSH0 DUP3 DUP2 MSTORE PUSH1 0x6 PUSH1 0x20 MSTORE PUSH1 0x40 SWAP1 KECCAK256 PUSH1 0x1 ADD SLOAD PUSH2 0x1483 DUP2 PUSH2 0x15F9 JUMP JUMPDEST PUSH2 0x97D DUP4 DUP4 PUSH2 0x17BD JUMP JUMPDEST PUSH0 PUSH2 0x1497 PUSH1 0x2 SLOAD SWAP1 JUMP JUMPDEST PUSH2 0x98C SWAP1 PUSH11 0x52B7D2DCC80CD2E4000000 PUSH2 0x22B2 JUMP JUMPDEST PUSH0 PUSH2 0x14B6 DUP2 PUSH2 0x15F9 JUMP JUMPDEST PUSH1 0x1 PUSH1 0x1 PUSH1 0xA0 SHL SUB DUP3 AND PUSH2 0x14F6 JUMPI PUSH1 0x40 MLOAD PUSH3 0x461BCD PUSH1 0xE5 SHL DUP2 MSTORE PUSH1 0x20 PUSH1 0x4 DUP3 ADD MSTORE PUSH1 0x7 PUSH1 0x24 DUP3 ADD MSTORE PUSH7 0x125B9D985B1A59 PUSH1 0xCA SHL PUSH1 0x44 DUP3 ADD MSTORE PUSH1 0x64 ADD PUSH2 0xACE JUMP JUMPDEST POP PUSH1 0xF DUP1 SLOAD PUSH1 0x1 PUSH1 0x1 PUSH1 0xA0 SHL SUB NOT AND PUSH1 0x1 PUSH1 0x1 PUSH1 0xA0 SHL SUB SWAP3 SWAP1 SWAP3 AND SWAP2 SWAP1 SWAP2 OR SWAP1 SSTORE JUMP JUMPDEST PUSH2 0x9C4 DUP4 DUP4 DUP4 PUSH1 0x1 PUSH2 0x19D1 JUMP JUMPDEST PUSH1 0x1 PUSH1 0x1 PUSH1 0xA0 SHL SUB DUP4 DUP2 AND PUSH0 SWAP1 DUP2 MSTORE PUSH1 0x1 PUSH1 0x20 SWAP1 DUP2 MSTORE PUSH1 0x40 DUP1 DUP4 KECCAK256 SWAP4 DUP7 AND DUP4 MSTORE SWAP3 SWAP1 MSTORE KECCAK256 SLOAD PUSH0 NOT DUP2 LT ISZERO PUSH2 0x97D JUMPI DUP2 DUP2 LT ISZERO PUSH2 0x158E JUMPI PUSH1 0x40 MLOAD PUSH4 0x7DC7A0D9 PUSH1 0xE1 SHL DUP2 MSTORE PUSH1 0x1 PUSH1 0x1 PUSH1 0xA0 SHL SUB DUP5 AND PUSH1 0x4 DUP3 ADD MSTORE PUSH1 0x24 DUP2 ADD DUP3 SWAP1 MSTORE PUSH1 0x44 DUP2 ADD DUP4 SWAP1 MSTORE PUSH1 0x64 ADD PUSH2 0xACE JUMP JUMPDEST PUSH2 0x97D DUP5 DUP5 DUP5 DUP5 SUB PUSH0 PUSH2 0x19D1 JUMP JUMPDEST PUSH1 0x1 PUSH1 0x1 PUSH1 0xA0 SHL SUB DUP4 AND PUSH2 0x15C5 JUMPI PUSH1 0x40 MLOAD PUSH4 0x4B637E8F PUSH1 0xE1 SHL DUP2 MSTORE PUSH0 PUSH1 0x4 DUP3 ADD MSTORE PUSH1 0x24 ADD PUSH2 0xACE JUMP JUMPDEST PUSH1 0x1 PUSH1 0x1 PUSH1 0xA0 SHL SUB DUP3 AND PUSH2 0x15EE JUMPI PUSH1 0x40 MLOAD PUSH4 0xEC442F05 PUSH1 0xE0 SHL DUP2 MSTORE PUSH0 PUSH1 0x4 DUP3 ADD MSTORE PUSH1 0x24 ADD PUSH2 0xACE JUMP JUMPDEST PUSH2 0x9C4 DUP4 DUP4 DUP4 PUSH2 0x1AA3 JUMP JUMPDEST PUSH2 0xA42 DUP2 CALLER PUSH2 0x1AAE JUMP JUMPDEST PUSH0 PUSH2 0x160E DUP4 DUP4 PUSH2 0x10E4 JUMP JUMPDEST PUSH2 0x168D JUMPI PUSH0 DUP4 DUP2 MSTORE PUSH1 0x6 PUSH1 0x20 SWAP1 DUP2 MSTORE PUSH1 0x40 DUP1 DUP4 KECCAK256 PUSH1 0x1 PUSH1 0x1 PUSH1 0xA0 SHL SUB DUP7 AND DUP5 MSTORE SWAP1 SWAP2 MSTORE SWAP1 KECCAK256 DUP1 SLOAD PUSH1 0xFF NOT AND PUSH1 0x1 OR SWAP1 SSTORE PUSH2 0x1645 CALLER SWAP1 JUMP JUMPDEST PUSH1 0x1 PUSH1 0x1 PUSH1 0xA0 SHL SUB AND DUP3 PUSH1 0x1 PUSH1 0x1 PUSH1 0xA0 SHL SUB AND DUP5 PUSH32 0x2F8788117E7EFF1D82E926EC794901D17C78024A50270940304540A733656F0D PUSH1 0x40 MLOAD PUSH1 0x40 MLOAD DUP1 SWAP2 SUB SWAP1 LOG4 POP PUSH1 0x1 PUSH2 0x889 JUMP JUMPDEST POP PUSH0 PUSH2 0x889 JUMP JUMPDEST PUSH0 ADDRESS PUSH1 0x1 PUSH1 0x1 PUSH1 0xA0 SHL SUB PUSH32 0x0 AND EQ DUP1 ISZERO PUSH2 0x16EC JUMPI POP PUSH32 0x0 CHAINID EQ JUMPDEST ISZERO PUSH2 0x1716 JUMPI POP PUSH32 0x0 SWAP1 JUMP JUMPDEST PUSH2 0x98C PUSH1 0x40 DUP1 MLOAD PUSH32 0x8B73C3C69BB8FE3D512ECC4CF759CC79239F7B179B0FFACAA9A75D522B39400F PUSH1 0x20 DUP3 ADD MSTORE PUSH32 0x0 SWAP2 DUP2 ADD SWAP2 SWAP1 SWAP2 MSTORE PUSH32 0x0 PUSH1 0x60 DUP3 ADD MSTORE CHAINID PUSH1 0x80 DUP3 ADD MSTORE ADDRESS PUSH1 0xA0 DUP3 ADD MSTORE PUSH0 SWAP1 PUSH1 0xC0 ADD PUSH1 0x40 MLOAD PUSH1 0x20 DUP2 DUP4 SUB SUB DUP2 MSTORE SWAP1 PUSH1 0x40 MSTORE DUP1 MLOAD SWAP1 PUSH1 0x20 ADD KECCAK256 SWAP1 POP SWAP1 JUMP JUMPDEST PUSH0 PUSH2 0x17C8 DUP4 DUP4 PUSH2 0x10E4 JUMP JUMPDEST ISZERO PUSH2 0x168D JUMPI PUSH0 DUP4 DUP2 MSTORE PUSH1 0x6 PUSH1 0x20 SWAP1 DUP2 MSTORE PUSH1 0x40 DUP1 DUP4 KECCAK256 PUSH1 0x1 PUSH1 0x1 PUSH1 0xA0 SHL SUB DUP7 AND DUP1 DUP6 MSTORE SWAP3 MSTORE DUP1 DUP4 KECCAK256 DUP1 SLOAD PUSH1 0xFF NOT AND SWAP1 SSTORE MLOAD CALLER SWAP3 DUP7 SWAP2 PUSH32 0xF6391F5C32D9C69D2A47EA670B442974B53935D1EDC7FD64EB21E047A839171B SWAP2 SWAP1 LOG4 POP PUSH1 0x1 PUSH2 0x889 JUMP JUMPDEST PUSH2 0x1830 PUSH2 0x1AE7 JUMP JUMPDEST PUSH1 0x5 DUP1 SLOAD PUSH1 0xFF NOT AND SWAP1 SSTORE PUSH32 0x5DB9EE0A495BF2E6FF9C91A7834C1BA4FDD244A5E8AA4E537BD38AEAE4B073AA CALLER JUMPDEST PUSH1 0x40 MLOAD PUSH1 0x1 PUSH1 0x1 PUSH1 0xA0 SHL SUB SWAP1 SWAP2 AND DUP2 MSTORE PUSH1 0x20 ADD PUSH1 0x40 MLOAD DUP1 SWAP2 SUB SWAP1 LOG1 JUMP JUMPDEST PUSH1 0x1 PUSH1 0x1 PUSH1 0xA0 SHL SUB DUP3 AND PUSH2 0x18A3 JUMPI PUSH1 0x40 MLOAD PUSH4 0xEC442F05 PUSH1 0xE0 SHL DUP2 MSTORE PUSH0 PUSH1 0x4 DUP3 ADD MSTORE PUSH1 0x24 ADD PUSH2 0xACE JUMP JUMPDEST PUSH2 0xFD3 PUSH0 DUP4 DUP4 PUSH2 0x1AA3 JUMP JUMPDEST PUSH1 0x1 PUSH1 0x1 PUSH1 0xA0 SHL SUB DUP3 AND PUSH2 0x18D7 JUMPI PUSH1 0x40 MLOAD PUSH4 0x4B637E8F PUSH1 0xE1 SHL DUP2 MSTORE PUSH0 PUSH1 0x4 DUP3 ADD MSTORE PUSH1 0x24 ADD PUSH2 0xACE JUMP JUMPDEST PUSH2 0xFD3 DUP3 PUSH0 DUP4 PUSH2 0x1AA3 JUMP JUMPDEST PUSH2 0x18EA PUSH2 0x1B0C JUMP JUMPDEST PUSH1 0x5 DUP1 SLOAD PUSH1 0xFF NOT AND PUSH1 0x1 OR SWAP1 SSTORE PUSH32 0x62E78CEA01BEE320CD4E420270B5EA74000D11B0C9F74754EBDBFC544B05A258 PUSH2 0x185D CALLER SWAP1 JUMP JUMPDEST PUSH1 0x60 PUSH2 0x98C PUSH32 0x0 PUSH1 0x7 PUSH2 0x1B30 JUMP JUMPDEST PUSH1 0x60 PUSH2 0x98C PUSH32 0x0 PUSH1 0x8 PUSH2 0x1B30 JUMP JUMPDEST PUSH0 PUSH2 0x889 PUSH2 0x1985 PUSH2 0x1694 JUMP JUMPDEST DUP4 PUSH1 0x40 MLOAD PUSH2 0x1901 PUSH1 0xF0 SHL DUP2 MSTORE PUSH1 0x2 DUP2 ADD SWAP3 SWAP1 SWAP3 MSTORE PUSH1 0x22 DUP3 ADD MSTORE PUSH1 0x42 SWAP1 KECCAK256 SWAP1 JUMP JUMPDEST PUSH0 PUSH0 PUSH0 PUSH0 PUSH2 0x19B5 DUP9 DUP9 DUP9 DUP9 PUSH2 0x1BD9 JUMP JUMPDEST SWAP3 POP SWAP3 POP SWAP3 POP PUSH2 0x19C5 DUP3 DUP3 PUSH2 0x1CA1 JUMP JUMPDEST POP SWAP1 SWAP7 SWAP6 POP POP POP POP POP POP JUMP JUMPDEST PUSH1 0x1 PUSH1 0x1 PUSH1 0xA0 SHL SUB DUP5 AND PUSH2 0x19FA JUMPI PUSH1 0x40 MLOAD PUSH4 0xE602DF05 PUSH1 0xE0 SHL DUP2 MSTORE PUSH0 PUSH1 0x4 DUP3 ADD MSTORE PUSH1 0x24 ADD PUSH2 0xACE JUMP JUMPDEST PUSH1 0x1 PUSH1 0x1 PUSH1 0xA0 SHL SUB DUP4 AND PUSH2 0x1A23 JUMPI PUSH1 0x40 MLOAD PUSH4 0x4A1406B1 PUSH1 0xE1 SHL DUP2 MSTORE PUSH0 PUSH1 0x4 DUP3 ADD MSTORE PUSH1 0x24 ADD PUSH2 0xACE JUMP JUMPDEST PUSH1 0x1 PUSH1 0x1 PUSH1 0xA0 SHL SUB DUP1 DUP6 AND PUSH0 SWAP1 DUP2 MSTORE PUSH1 0x1 PUSH1 0x20 SWAP1 DUP2 MSTORE PUSH1 0x40 DUP1 DUP4 KECCAK256 SWAP4 DUP8 AND DUP4 MSTORE SWAP3 SWAP1 MSTORE KECCAK256 DUP3 SWAP1 SSTORE DUP1 ISZERO PUSH2 0x97D JUMPI DUP3 PUSH1 0x1 PUSH1 0x1 PUSH1 0xA0 SHL SUB AND DUP5 PUSH1 0x1 PUSH1 0x1 PUSH1 0xA0 SHL SUB AND PUSH32 0x8C5BE1E5EBEC7D5BD14F71427D1E84F3DD0314C0F7B2291E5B200AC8C7C3B925 DUP5 PUSH1 0x40 MLOAD PUSH2 0x1A95 SWAP2 DUP2 MSTORE PUSH1 0x20 ADD SWAP1 JUMP JUMPDEST PUSH1 0x40 MLOAD DUP1 SWAP2 SUB SWAP1 LOG3 POP POP POP POP JUMP JUMPDEST PUSH2 0x9C4 DUP4 DUP4 DUP4 PUSH2 0x1D59 JUMP JUMPDEST PUSH2 0x1AB8 DUP3 DUP3 PUSH2 0x10E4 JUMP JUMPDEST PUSH2 0xFD3 JUMPI PUSH1 0x40 MLOAD PUSH4 0xE2517D3F PUSH1 0xE0 SHL DUP2 MSTORE PUSH1 0x1 PUSH1 0x1 PUSH1 0xA0 SHL SUB DUP3 AND PUSH1 0x4 DUP3 ADD MSTORE PUSH1 0x24 DUP2 ADD DUP4 SWAP1 MSTORE PUSH1 0x44 ADD PUSH2 0xACE JUMP JUMPDEST PUSH1 0x5 SLOAD PUSH1 0xFF AND PUSH2 0x1B0A JUMPI PUSH1 0x40 MLOAD PUSH4 0x8DFC202B PUSH1 0xE0 SHL DUP2 MSTORE PUSH1 0x4 ADD PUSH1 0x40 MLOAD DUP1 SWAP2 SUB SWAP1 REVERT JUMPDEST JUMP JUMPDEST PUSH1 0x5 SLOAD PUSH1 0xFF AND ISZERO PUSH2 0x1B0A JUMPI PUSH1 0x40 MLOAD PUSH4 0xD93C0665 PUSH1 0xE0 SHL DUP2 MSTORE PUSH1 0x4 ADD PUSH1 0x40 MLOAD DUP1 SWAP2 SUB SWAP1 REVERT JUMPDEST PUSH1 0x60 PUSH1 0xFF DUP4 EQ PUSH2 0x1B4A JUMPI PUSH2 0x1B43 DUP4 PUSH2 0x1D6C JUMP JUMPDEST SWAP1 POP PUSH2 0x889 JUMP JUMPDEST DUP2 DUP1 SLOAD PUSH2 0x1B56 SWAP1 PUSH2 0x2209 JUMP JUMPDEST DUP1 PUSH1 0x1F ADD PUSH1 0x20 DUP1 SWAP2 DIV MUL PUSH1 0x20 ADD PUSH1 0x40 MLOAD SWAP1 DUP2 ADD PUSH1 0x40 MSTORE DUP1 SWAP3 SWAP2 SWAP1 DUP2 DUP2 MSTORE PUSH1 0x20 ADD DUP3 DUP1 SLOAD PUSH2 0x1B82 SWAP1 PUSH2 0x2209 JUMP JUMPDEST DUP1 ISZERO PUSH2 0x1BCD JUMPI DUP1 PUSH1 0x1F LT PUSH2 0x1BA4 JUMPI PUSH2 0x100 DUP1 DUP4 SLOAD DIV MUL DUP4 MSTORE SWAP2 PUSH1 0x20 ADD SWAP2 PUSH2 0x1BCD JUMP JUMPDEST DUP3 ADD SWAP2 SWAP1 PUSH0 MSTORE PUSH1 0x20 PUSH0 KECCAK256 SWAP1 JUMPDEST DUP2 SLOAD DUP2 MSTORE SWAP1 PUSH1 0x1 ADD SWAP1 PUSH1 0x20 ADD DUP1 DUP4 GT PUSH2 0x1BB0 JUMPI DUP3 SWAP1 SUB PUSH1 0x1F AND DUP3 ADD SWAP2 JUMPDEST POP POP POP POP POP SWAP1 POP PUSH2 0x889 JUMP JUMPDEST PUSH0 DUP1 DUP1 PUSH32 0x7FFFFFFFFFFFFFFFFFFFFFFFFFFFFFFF5D576E7357A4501DDFE92F46681B20A0 DUP5 GT ISZERO PUSH2 0x1C12 JUMPI POP PUSH0 SWAP2 POP PUSH1 0x3 SWAP1 POP DUP3 PUSH2 0x1C97 JUMP JUMPDEST PUSH1 0x40 DUP1 MLOAD PUSH0 DUP1 DUP3 MSTORE PUSH1 0x20 DUP3 ADD DUP1 DUP5 MSTORE DUP11 SWAP1 MSTORE PUSH1 0xFF DUP10 AND SWAP3 DUP3 ADD SWAP3 SWAP1 SWAP3 MSTORE PUSH1 0x60 DUP2 ADD DUP8 SWAP1 MSTORE PUSH1 0x80 DUP2 ADD DUP7 SWAP1 MSTORE PUSH1 0x1 SWAP1 PUSH1 0xA0 ADD PUSH1 0x20 PUSH1 0x40 MLOAD PUSH1 0x20 DUP2 SUB SWAP1 DUP1 DUP5 SUB SWAP1 DUP6 GAS STATICCALL ISZERO DUP1 ISZERO PUSH2 0x1C63 JUMPI RETURNDATASIZE PUSH0 PUSH0 RETURNDATACOPY RETURNDATASIZE PUSH0 REVERT JUMPDEST POP POP PUSH1 0x40 MLOAD PUSH1 0x1F NOT ADD MLOAD SWAP2 POP POP PUSH1 0x1 PUSH1 0x1 PUSH1 0xA0 SHL SUB DUP2 AND PUSH2 0x1C8E JUMPI POP PUSH0 SWAP3 POP PUSH1 0x1 SWAP2 POP DUP3 SWAP1 POP PUSH2 0x1C97 JUMP JUMPDEST SWAP3 POP PUSH0 SWAP2 POP DUP2 SWAP1 POP JUMPDEST SWAP5 POP SWAP5 POP SWAP5 SWAP2 POP POP JUMP JUMPDEST PUSH0 DUP3 PUSH1 0x3 DUP2 GT ISZERO PUSH2 0x1CB4 JUMPI PUSH2 0x1CB4 PUSH2 0x2312 JUMP JUMPDEST SUB PUSH2 0x1CBD JUMPI POP POP JUMP JUMPDEST PUSH1 0x1 DUP3 PUSH1 0x3 DUP2 GT ISZERO PUSH2 0x1CD1 JUMPI PUSH2 0x1CD1 PUSH2 0x2312 JUMP JUMPDEST SUB PUSH2 0x1CEF JUMPI PUSH1 0x40 MLOAD PUSH4 0xF645EEDF PUSH1 0xE0 SHL DUP2 MSTORE PUSH1 0x4 ADD PUSH1 0x40 MLOAD DUP1 SWAP2 SUB SWAP1 REVERT JUMPDEST PUSH1 0x2 DUP3 PUSH1 0x3 DUP2 GT ISZERO PUSH2 0x1D03 JUMPI PUSH2 0x1D03 PUSH2 0x2312 JUMP JUMPDEST SUB PUSH2 0x1D24 JUMPI PUSH1 0x40 MLOAD PUSH4 0xFCE698F7 PUSH1 0xE0 SHL DUP2 MSTORE PUSH1 0x4 DUP2 ADD DUP3 SWAP1 MSTORE PUSH1 0x24 ADD PUSH2 0xACE JUMP JUMPDEST PUSH1 0x3 DUP3 PUSH1 0x3 DUP2 GT ISZERO PUSH2 0x1D38 JUMPI PUSH2 0x1D38 PUSH2 0x2312 JUMP JUMPDEST SUB PUSH2 0xFD3 JUMPI PUSH1 0x40 MLOAD PUSH4 0x35E2F383 PUSH1 0xE2 SHL DUP2 MSTORE PUSH1 0x4 DUP2 ADD DUP3 SWAP1 MSTORE PUSH1 0x24 ADD PUSH2 0xACE JUMP JUMPDEST PUSH2 0x1D61 PUSH2 0x1B0C JUMP JUMPDEST PUSH2 0x9C4 DUP4 DUP4 DUP4 PUSH2 0x1DA9 JUMP JUMPDEST PUSH1 0x60 PUSH0 PUSH2 0x1D78 DUP4 PUSH2 0x1ECF JUMP JUMPDEST PUSH1 0x40 DUP1 MLOAD PUSH1 0x20 DUP1 DUP3 MSTORE DUP2 DUP4 ADD SWAP1 SWAP3 MSTORE SWAP2 SWAP3 POP PUSH0 SWAP2 SWAP1 PUSH1 0x20 DUP3 ADD DUP2 DUP1 CALLDATASIZE DUP4 CALLDATACOPY POP POP POP SWAP2 DUP3 MSTORE POP PUSH1 0x20 DUP2 ADD SWAP3 SWAP1 SWAP3 MSTORE POP SWAP1 JUMP JUMPDEST PUSH1 0x1 PUSH1 0x1 PUSH1 0xA0 SHL SUB DUP4 AND PUSH2 0x1DD3 JUMPI DUP1 PUSH1 0x2 PUSH0 DUP3 DUP3 SLOAD PUSH2 0x1DC8 SWAP2 SWAP1 PUSH2 0x2255 JUMP JUMPDEST SWAP1 SWAP2 SSTORE POP PUSH2 0x1E43 SWAP1 POP JUMP JUMPDEST PUSH1 0x1 PUSH1 0x1 PUSH1 0xA0 SHL SUB DUP4 AND PUSH0 SWAP1 DUP2 MSTORE PUSH1 0x20 DUP2 SWAP1 MSTORE PUSH1 0x40 SWAP1 KECCAK256 SLOAD DUP2 DUP2 LT ISZERO PUSH2 0x1E25 JUMPI PUSH1 0x40 MLOAD PUSH4 0x391434E3 PUSH1 0xE2 SHL DUP2 MSTORE PUSH1 0x1 PUSH1 0x1 PUSH1 0xA0 SHL SUB DUP6 AND PUSH1 0x4 DUP3 ADD MSTORE PUSH1 0x24 DUP2 ADD DUP3 SWAP1 MSTORE PUSH1 0x44 DUP2 ADD DUP4 SWAP1 MSTORE PUSH1 0x64 ADD PUSH2 0xACE JUMP JUMPDEST PUSH1 0x1 PUSH1 0x1 PUSH1 0xA0 SHL SUB DUP5 AND PUSH0 SWAP1 DUP2 MSTORE PUSH1 0x20 DUP2 SWAP1 MSTORE PUSH1 0x40 SWAP1 KECCAK256 SWAP1 DUP3 SWAP1 SUB SWAP1 SSTORE JUMPDEST PUSH1 0x1 PUSH1 0x1 PUSH1 0xA0 SHL SUB DUP3 AND PUSH2 0x1E5F JUMPI PUSH1 0x2 DUP1 SLOAD DUP3 SWAP1 SUB SWAP1 SSTORE PUSH2 0x1E7D JUMP JUMPDEST PUSH1 0x1 PUSH1 0x1 PUSH1 0xA0 SHL SUB DUP3 AND PUSH0 SWAP1 DUP2 MSTORE PUSH1 0x20 DUP2 SWAP1 MSTORE PUSH1 0x40 SWAP1 KECCAK256 DUP1 SLOAD DUP3 ADD SWAP1 SSTORE JUMPDEST DUP2 PUSH1 0x1 PUSH1 0x1 PUSH1 0xA0 SHL SUB AND DUP4 PUSH1 0x1 PUSH1 0x1 PUSH1 0xA0 SHL SUB AND PUSH32 0xDDF252AD1BE2C89B69C2B068FC378DAA952BA7F163C4A11628F55A4DF523B3EF DUP4 PUSH1 0x40 MLOAD PUSH2 0x1EC2 SWAP2 DUP2 MSTORE PUSH1 0x20 ADD SWAP1 JUMP JUMPDEST PUSH1 0x40 MLOAD DUP1 SWAP2 SUB SWAP1 LOG3 POP POP POP JUMP JUMPDEST PUSH0 PUSH1 0xFF DUP3 AND PUSH1 0x1F DUP2 GT ISZERO PUSH2 0x889 JUMPI PUSH1 0x40 MLOAD PUSH4 0x2CD44AC3 PUSH1 0xE2 SHL DUP2 MSTORE PUSH1 0x4 ADD PUSH1 0x40 MLOAD DUP1 SWAP2 SUB SWAP1 REVERT JUMPDEST PUSH0 PUSH1 0x20 DUP3 DUP5 SUB SLT ISZERO PUSH2 0x1F06 JUMPI PUSH0 PUSH0 REVERT JUMPDEST DUP2 CALLDATALOAD PUSH1 0x1 PUSH1 0x1 PUSH1 0xE0 SHL SUB NOT DUP2 AND DUP2 EQ PUSH2 0x1F1D JUMPI PUSH0 PUSH0 REVERT JUMPDEST SWAP4 SWAP3 POP POP POP JUMP JUMPDEST PUSH0 DUP2 MLOAD DUP1 DUP5 MSTORE DUP1 PUSH1 0x20 DUP5 ADD PUSH1 0x20 DUP7 ADD MCOPY PUSH0 PUSH1 0x20 DUP3 DUP7 ADD ADD MSTORE PUSH1 0x20 PUSH1 0x1F NOT PUSH1 0x1F DUP4 ADD AND DUP6 ADD ADD SWAP2 POP POP SWAP3 SWAP2 POP POP JUMP JUMPDEST PUSH1 0x20 DUP2 MSTORE PUSH0 PUSH2 0x1F1D PUSH1 0x20 DUP4 ADD DUP5 PUSH2 0x1F24 JUMP JUMPDEST DUP1 CALLDATALOAD PUSH1 0x1 PUSH1 0x1 PUSH1 0xA0 SHL SUB DUP2 AND DUP2 EQ PUSH2 0x1F7A JUMPI PUSH0 PUSH0 REVERT JUMPDEST SWAP2 SWAP1 POP JUMP JUMPDEST PUSH0 PUSH1 0x20 DUP3 DUP5 SUB SLT ISZERO PUSH2 0x1F8F JUMPI PUSH0 PUSH0 REVERT JUMPDEST PUSH2 0x1F1D DUP3 PUSH2 0x1F64 JUMP JUMPDEST PUSH0 PUSH0 PUSH1 0x40 DUP4 DUP6 SUB SLT ISZERO PUSH2 0x1FA9 JUMPI PUSH0 PUSH0 REVERT JUMPDEST PUSH2 0x1FB2 DUP4 PUSH2 0x1F64 JUMP JUMPDEST SWAP5 PUSH1 0x20 SWAP4 SWAP1 SWAP4 ADD CALLDATALOAD SWAP4 POP POP POP JUMP JUMPDEST PUSH0 PUSH0 PUSH0 PUSH1 0x60 DUP5 DUP7 SUB SLT ISZERO PUSH2 0x1FD2 JUMPI PUSH0 PUSH0 REVERT JUMPDEST PUSH2 0x1FDB DUP5 PUSH2 0x1F64 JUMP JUMPDEST SWAP3 POP PUSH2 0x1FE9 PUSH1 0x20 DUP6 ADD PUSH2 0x1F64 JUMP JUMPDEST SWAP3 SWAP6 SWAP3 SWAP5 POP POP POP PUSH1 0x40 SWAP2 SWAP1 SWAP2 ADD CALLDATALOAD SWAP1 JUMP JUMPDEST PUSH0 PUSH1 0x20 DUP3 DUP5 SUB SLT ISZERO PUSH2 0x200A JUMPI PUSH0 PUSH0 REVERT JUMPDEST POP CALLDATALOAD SWAP2 SWAP1 POP JUMP JUMPDEST PUSH0 PUSH0 PUSH1 0x40 DUP4 DUP6 SUB SLT ISZERO PUSH2 0x2022 JUMPI PUSH0 PUSH0 REVERT JUMPDEST DUP3 CALLDATALOAD SWAP2 POP PUSH2 0x2032 PUSH1 0x20 DUP5 ADD PUSH2 0x1F64 JUMP JUMPDEST SWAP1 POP SWAP3 POP SWAP3 SWAP1 POP JUMP JUMPDEST PUSH0 PUSH0 PUSH1 0x40 DUP4 DUP6 SUB SLT ISZERO PUSH2 0x204C JUMPI PUSH0 PUSH0 REVERT JUMPDEST POP POP DUP1 CALLDATALOAD SWAP3 PUSH1 0x20 SWAP1 SWAP2 ADD CALLDATALOAD SWAP2 POP JUMP JUMPDEST PUSH1 0xFF PUSH1 0xF8 SHL DUP9 AND DUP2 MSTORE PUSH1 0xE0 PUSH1 0x20 DUP3 ADD MSTORE PUSH0 PUSH2 0x2079 PUSH1 0xE0 DUP4 ADD DUP10 PUSH2 0x1F24 JUMP JUMPDEST DUP3 DUP2 SUB PUSH1 0x40 DUP5 ADD MSTORE PUSH2 0x208B DUP2 DUP10 PUSH2 0x1F24 JUMP JUMPDEST PUSH1 0x60 DUP5 ADD DUP9 SWAP1 MSTORE PUSH1 0x1 PUSH1 0x1 PUSH1 0xA0 SHL SUB DUP8 AND PUSH1 0x80 DUP6 ADD MSTORE PUSH1 0xA0 DUP5 ADD DUP7 SWAP1 MSTORE DUP4 DUP2 SUB PUSH1 0xC0 DUP6 ADD MSTORE DUP5 MLOAD DUP1 DUP3 MSTORE PUSH1 0x20 DUP1 DUP8 ADD SWAP4 POP SWAP1 SWAP2 ADD SWAP1 PUSH0 JUMPDEST DUP2 DUP2 LT ISZERO PUSH2 0x20E0 JUMPI DUP4 MLOAD DUP4 MSTORE PUSH1 0x20 SWAP4 DUP5 ADD SWAP4 SWAP1 SWAP3 ADD SWAP2 PUSH1 0x1 ADD PUSH2 0x20C2 JUMP JUMPDEST POP SWAP1 SWAP12 SWAP11 POP POP POP POP POP POP POP POP POP POP POP JUMP JUMPDEST PUSH0 PUSH0 PUSH0 PUSH0 PUSH1 0x60 DUP6 DUP8 SUB SLT ISZERO PUSH2 0x2104 JUMPI PUSH0 PUSH0 REVERT JUMPDEST PUSH2 0x210D DUP6 PUSH2 0x1F64 JUMP JUMPDEST SWAP4 POP PUSH1 0x20 DUP6 ADD CALLDATALOAD SWAP3 POP PUSH1 0x40 DUP6 ADD CALLDATALOAD PUSH8 0xFFFFFFFFFFFFFFFF DUP2 GT ISZERO PUSH2 0x212F JUMPI PUSH0 PUSH0 REVERT JUMPDEST DUP6 ADD PUSH1 0x1F DUP2 ADD DUP8 SGT PUSH2 0x213F JUMPI PUSH0 PUSH0 REVERT JUMPDEST DUP1 CALLDATALOAD PUSH8 0xFFFFFFFFFFFFFFFF DUP2 GT ISZERO PUSH2 0x2155 JUMPI PUSH0 PUSH0 REVERT JUMPDEST DUP8 PUSH1 0x20 DUP3 DUP5 ADD ADD GT ISZERO PUSH2 0x2166 JUMPI PUSH0 PUSH0 REVERT JUMPDEST SWAP5 SWAP8 SWAP4 SWAP7 POP PUSH1 0x20 ADD SWAP5 POP POP POP JUMP JUMPDEST PUSH0 PUSH0 PUSH0 PUSH0 PUSH0 PUSH0 PUSH0 PUSH1 0xE0 DUP9 DUP11 SUB SLT ISZERO PUSH2 0x218A JUMPI PUSH0 PUSH0 REVERT JUMPDEST PUSH2 0x2193 DUP9 PUSH2 0x1F64 JUMP JUMPDEST SWAP7 POP PUSH2 0x21A1 PUSH1 0x20 DUP10 ADD PUSH2 0x1F64 JUMP JUMPDEST SWAP6 POP PUSH1 0x40 DUP9 ADD CALLDATALOAD SWAP5 POP PUSH1 0x60 DUP9 ADD CALLDATALOAD SWAP4 POP PUSH1 0x80 DUP9 ADD CALLDATALOAD PUSH1 0xFF DUP2 AND DUP2 EQ PUSH2 0x21C4 JUMPI PUSH0 PUSH0 REVERT JUMPDEST SWAP7 SWAP10 SWAP6 SWAP9 POP SWAP4 SWAP7 SWAP3 SWAP6 SWAP5 PUSH1 0xA0 DUP5 ADD CALLDATALOAD SWAP5 POP PUSH1 0xC0 SWAP1 SWAP4 ADD CALLDATALOAD SWAP3 SWAP2 POP POP JUMP JUMPDEST PUSH0 PUSH0 PUSH1 0x40 DUP4 DUP6 SUB SLT ISZERO PUSH2 0x21F2 JUMPI PUSH0 PUSH0 REVERT JUMPDEST PUSH2 0x21FB DUP4 PUSH2 0x1F64 JUMP JUMPDEST SWAP2 POP PUSH2 0x2032 PUSH1 0x20 DUP5 ADD PUSH2 0x1F64 JUMP JUMPDEST PUSH1 0x1 DUP2 DUP2 SHR SWAP1 DUP3 AND DUP1 PUSH2 0x221D JUMPI PUSH1 0x7F DUP3 AND SWAP2 POP JUMPDEST PUSH1 0x20 DUP3 LT DUP2 SUB PUSH2 0x223B JUMPI PUSH4 0x4E487B71 PUSH1 0xE0 SHL PUSH0 MSTORE PUSH1 0x22 PUSH1 0x4 MSTORE PUSH1 0x24 PUSH0 REVERT JUMPDEST POP SWAP2 SWAP1 POP JUMP JUMPDEST PUSH4 0x4E487B71 PUSH1 0xE0 SHL PUSH0 MSTORE PUSH1 0x11 PUSH1 0x4 MSTORE PUSH1 0x24 PUSH0 REVERT JUMPDEST DUP1 DUP3 ADD DUP1 DUP3 GT ISZERO PUSH2 0x889 JUMPI PUSH2 0x889 PUSH2 0x2241 JUMP JUMPDEST DUP1 DUP3 MUL DUP2 ISZERO DUP3 DUP3 DIV DUP5 EQ OR PUSH2 0x889 JUMPI PUSH2 0x889 PUSH2 0x2241 JUMP JUMPDEST PUSH0 DUP3 PUSH2 0x2299 JUMPI PUSH4 0x4E487B71 PUSH1 0xE0 SHL PUSH0 MSTORE PUSH1 0x12 PUSH1 0x4 MSTORE PUSH1 0x24 PUSH0 REVERT JUMPDEST POP DIV SWAP1 JUMP JUMPDEST PUSH4 0x4E487B71 PUSH1 0xE0 SHL PUSH0 MSTORE PUSH1 0x32 PUSH1 0x4 MSTORE PUSH1 0x24 PUSH0 REVERT JUMPDEST DUP2 DUP2 SUB DUP2 DUP2 GT ISZERO PUSH2 0x889 JUMPI PUSH2 0x889 PUSH2 0x2241 JUMP JUMPDEST PUSH0 PUSH1 0x1 DUP3 ADD PUSH2 0x22D6 JUMPI PUSH2 0x22D6 PUSH2 0x2241 JUMP JUMPDEST POP PUSH1 0x1 ADD SWAP1 JUMP JUMPDEST DUP4 DUP2 MSTORE PUSH1 0x40 PUSH1 0x20 DUP3 ADD MSTORE DUP2 PUSH1 0x40 DUP3 ADD MSTORE DUP2 DUP4 PUSH1 0x60 DUP4 ADD CALLDATACOPY PUSH0 DUP2 DUP4 ADD PUSH1 0x60 SWAP1 DUP2 ADD SWAP2 SWAP1 SWAP2 MSTORE PUSH1 0x1F SWAP1 SWAP3 ADD PUSH1 0x1F NOT AND ADD ADD SWAP3 SWAP2 POP POP JUMP JUMPDEST PUSH4 0x4E487B71 PUSH1 0xE0 SHL PUSH0 MSTORE PUSH1 0x21 PUSH1 0x4 MSTORE PUSH1 0x24 PUSH0 REVERT INVALID LOG2 PUSH5 0x6970667358 0x22 SLT KECCAK256 0xCE INVALID 0xF8 0xD6 MULMOD DUP7 CREATE2 0xAA 0xE3 0xDE SWAP14 0xC5 DUP15 0xD4 PUSH19 0xC05FCA32ED9E5F24DBE740E225587C97D6473 PUSH16 0x6C634300081C0033F33FE78EB7C840E8 0xBF PUSH9 0x670029904B6F0DA8E7 SWAP4 CHAINID SWAP5 SHR 0x27 DUP11 0x4E PUSH23 0x76D473DF15000000000000000000000000000000000000 "},"methodIdentifiers":{"DEFAULT_ADMIN_ROLE()":"a217fddf","DOMAIN_SEPARATOR()":"3644e515","FEE_ROLE()":"2a0276f8","GENESIS_MAX()":"925d886b","GENESIS_PRICE()":"b85f3fb8","INITIAL_MINT()":"ca7df92c","MAX_SUPPLY()":"32cb6b0c","MINTER_ROLE()":"d5391393","PAUSER_ROLE()":"e63ab1e9","allowance(address,address)":"dd62ed3e","approve(address,uint256)":"095ea7b3","balanceOf(address)":"70a08231","burn(uint256)":"42966c68","burnFrom(address,uint256)":"79cc6790","burnShare()":"05bf0a54","collectFee(address,uint256,string)":"9f3043c3","decimals()":"313ce567","eip712Domain()":"84b0196e","feeCollector()":"c415b95c","feeRate()":"978bbdb9","genesisHolderCount()":"efdbbac3","genesisRemaining()":"8a531ebf","genesisSlot(address)":"de9c208a","genesisSold()":"a6a74a0e","getRoleAdmin(bytes32)":"248a9ca3","grantRole(bytes32,address)":"2f2ff15d","hasRole(bytes32,address)":"91d14854","holderShare()":"14504445","isGenesisMember(address)":"078ea64e","kausPriceUSDC()":"781ba1a1","mint(address,uint256)":"40c10f19","mintGenesis()":"78c3a692","monthlyDistribution()":"491df226","name()":"06fdde03","nonces(address)":"7ecebe00","pause()":"8456cb59","paused()":"5c975abb","permit(address,address,uint256,uint256,uint8,bytes32,bytes32)":"d505accf","platformStats()":"3b9e1ab0","priceUSD()":"93a408d7","remainingSupply()":"da0239a6","renounceRole(bytes32,address)":"36568abe","revokeRole(bytes32,address)":"d547741f","setDistributionShares(uint256,uint256)":"5b6a7660","setFeeCollector(address)":"a42dce80","setFeeRate(uint256)":"45596e2e","setPrice(uint256)":"91b7f5ed","setTreasury(address)":"f0f44260","supportsInterface(bytes4)":"01ffc9a7","symbol()":"95d89b41","totalFeesBurned()":"72ccd69e","totalFeesCollected()":"60c6d8ae","totalFeesDistributed()":"8582c913","totalSupply()":"18160ddd","totalTrades()":"e275c997","totalVolume()":"5f81a57c","transfer(address,uint256)":"a9059cbb","transferAdminToSafe(address)":"839ad8c5","transferFrom(address,address,uint256)":"23b872dd","treasury()":"61d027b3","unpause()":"3f4ba83a"}}}}}